{
  "_format": "hh-sol-artifact-1",
  "contractName": "BetContract",
  "sourceName": "contracts/BetContract.sol",
  "abi": [
    {
      "inputs": [
        {
          "internalType": "uint256",
          "name": "_platformFeePercent",
          "type": "uint256"
        },
        {
          "internalType": "string",
          "name": "_team1",
          "type": "string"
        },
        {
          "internalType": "string",
          "name": "_team2",
          "type": "string"
        },
        {
          "internalType": "uint256",
          "name": "_matchDate",
          "type": "uint256"
        },
        {
          "internalType": "address",
          "name": "_owner",
          "type": "address"
        }
      ],
      "stateMutability": "nonpayable",
      "type": "constructor"
    },
    {
      "anonymous": false,
      "inputs": [
        {
          "indexed": true,
          "internalType": "address",
          "name": "better",
          "type": "address"
        },
        {
          "indexed": false,
          "internalType": "uint256",
          "name": "amount",
          "type": "uint256"
        },
        {
          "indexed": false,
          "internalType": "string",
          "name": "choice",
          "type": "string"
        }
      ],
      "name": "BetPlaced",
      "type": "event"
    },
    {
      "anonymous": false,
      "inputs": [
        {
          "indexed": false,
          "internalType": "string",
          "name": "result",
          "type": "string"
        }
      ],
      "name": "BetSettled",
      "type": "event"
    },
    {
      "anonymous": false,
      "inputs": [
        {
          "indexed": false,
          "internalType": "uint256",
          "name": "amount",
          "type": "uint256"
        }
      ],
      "name": "PlatformFeeCollected",
      "type": "event"
    },
    {
      "anonymous": false,
      "inputs": [
        {
          "indexed": true,
          "internalType": "address",
          "name": "better",
          "type": "address"
        },
        {
          "indexed": false,
          "internalType": "uint256",
          "name": "amount",
          "type": "uint256"
        }
      ],
      "name": "RewardDistributed",
      "type": "event"
    },
    {
      "inputs": [
        {
          "internalType": "address",
          "name": "",
          "type": "address"
        },
        {
          "internalType": "uint256",
          "name": "",
          "type": "uint256"
        }
      ],
      "name": "bets",
      "outputs": [
        {
          "internalType": "uint256",
          "name": "amount",
          "type": "uint256"
        },
        {
          "internalType": "string",
          "name": "choice",
          "type": "string"
        },
        {
          "internalType": "string",
          "name": "status",
          "type": "string"
        },
        {
          "internalType": "uint256",
          "name": "amountWon",
          "type": "uint256"
        }
      ],
      "stateMutability": "view",
      "type": "function"
    },
    {
      "inputs": [
        {
          "internalType": "uint256",
          "name": "",
          "type": "uint256"
        }
      ],
      "name": "bettors",
      "outputs": [
        {
          "internalType": "address",
          "name": "",
          "type": "address"
        }
      ],
      "stateMutability": "view",
      "type": "function"
    },
    {
      "inputs": [],
      "name": "currentMatch",
      "outputs": [
        {
          "internalType": "string",
          "name": "team1",
          "type": "string"
        },
        {
          "internalType": "string",
          "name": "team2",
          "type": "string"
        },
        {
          "internalType": "uint256",
          "name": "matchDate",
          "type": "uint256"
        },
        {
          "internalType": "bool",
          "name": "isSettled",
          "type": "bool"
        },
        {
          "internalType": "string",
          "name": "result",
          "type": "string"
        },
        {
          "internalType": "address",
          "name": "owner",
          "type": "address"
        },
        {
          "internalType": "uint256",
          "name": "totalAmount",
          "type": "uint256"
        }
      ],
      "stateMutability": "view",
      "type": "function"
    },
    {
      "inputs": [],
      "name": "getMatchDetails",
      "outputs": [
        {
          "internalType": "string",
          "name": "",
          "type": "string"
        },
        {
          "internalType": "string",
          "name": "",
          "type": "string"
        },
        {
          "internalType": "uint256",
          "name": "",
          "type": "uint256"
        },
        {
          "internalType": "bool",
          "name": "",
          "type": "bool"
        },
        {
          "internalType": "string",
          "name": "",
          "type": "string"
        },
        {
          "internalType": "address",
          "name": "",
          "type": "address"
        }
      ],
      "stateMutability": "view",
      "type": "function"
    },
    {
      "inputs": [],
      "name": "getMyBets",
      "outputs": [
        {
          "components": [
            {
              "internalType": "uint256",
              "name": "amount",
              "type": "uint256"
            },
            {
              "internalType": "string",
              "name": "choice",
              "type": "string"
            },
            {
              "internalType": "string",
              "name": "status",
              "type": "string"
            },
            {
              "internalType": "uint256",
              "name": "amountWon",
              "type": "uint256"
            }
          ],
          "internalType": "struct Bet",
          "name": "",
          "type": "tuple"
        }
      ],
      "stateMutability": "view",
      "type": "function"
    },
    {
      "inputs": [],
      "name": "getTotalBets",
      "outputs": [
        {
          "internalType": "uint256",
          "name": "",
          "type": "uint256"
        }
      ],
      "stateMutability": "view",
      "type": "function"
    },
    {
      "inputs": [],
      "name": "getTotalBetsByChoice",
      "outputs": [
        {
          "internalType": "uint256",
          "name": "totalTeam1",
          "type": "uint256"
        },
        {
          "internalType": "uint256",
          "name": "totalTeam2",
          "type": "uint256"
        },
        {
          "internalType": "uint256",
          "name": "totalDraw",
          "type": "uint256"
        }
      ],
      "stateMutability": "view",
      "type": "function"
    },
    {
      "inputs": [],
      "name": "isMatchSettled",
      "outputs": [
        {
          "internalType": "bool",
          "name": "",
          "type": "bool"
        }
      ],
      "stateMutability": "view",
      "type": "function"
    },
    {
      "inputs": [],
      "name": "owner",
      "outputs": [
        {
          "internalType": "address",
          "name": "",
          "type": "address"
        }
      ],
      "stateMutability": "view",
      "type": "function"
    },
    {
      "inputs": [
        {
          "internalType": "string",
          "name": "_choice",
          "type": "string"
        }
      ],
      "name": "placeBet",
      "outputs": [],
      "stateMutability": "payable",
      "type": "function"
    },
    {
      "inputs": [],
      "name": "platformFeePercent",
      "outputs": [
        {
          "internalType": "uint256",
          "name": "",
          "type": "uint256"
        }
      ],
      "stateMutability": "view",
      "type": "function"
    },
    {
      "inputs": [
        {
          "internalType": "string",
          "name": "_result",
          "type": "string"
        }
      ],
      "name": "settleBet",
      "outputs": [],
      "stateMutability": "nonpayable",
      "type": "function"
    }
  ],
  "bytecode": "0x608060405234801561001057600080fd5b506040516136eb3803806136eb83398181016040528101906100329190610320565b6064851115610076576040517f08c379a000000000000000000000000000000000000000000000000000000000815260040161006d90610456565b60405180910390fd5b846009819055508360008001908161008e919061068d565b5082600060010190816100a1919061068d565b508160006002018190555060008060030160006101000a81548160ff02191690831515021790555080600060050160006101000a81548173ffffffffffffffffffffffffffffffffffffffff021916908373ffffffffffffffffffffffffffffffffffffffff160217905550505050505061075f565b6000604051905090565b600080fd5b600080fd5b6000819050919050565b61013e8161012b565b811461014957600080fd5b50565b60008151905061015b81610135565b92915050565b600080fd5b600080fd5b6000601f19601f8301169050919050565b7f4e487b7100000000000000000000000000000000000000000000000000000000600052604160045260246000fd5b6101b48261016b565b810181811067ffffffffffffffff821117156101d3576101d261017c565b5b80604052505050565b60006101e6610117565b90506101f282826101ab565b919050565b600067ffffffffffffffff8211156102125761021161017c565b5b61021b8261016b565b9050602081019050919050565b60005b8381101561024657808201518184015260208101905061022b565b60008484015250505050565b6000610265610260846101f7565b6101dc565b90508281526020810184848401111561028157610280610166565b5b61028c848285610228565b509392505050565b600082601f8301126102a9576102a8610161565b5b81516102b9848260208601610252565b91505092915050565b600073ffffffffffffffffffffffffffffffffffffffff82169050919050565b60006102ed826102c2565b9050919050565b6102fd816102e2565b811461030857600080fd5b50565b60008151905061031a816102f4565b92915050565b600080600080600060a0868803121561033c5761033b610121565b5b600061034a8882890161014c565b955050602086015167ffffffffffffffff81111561036b5761036a610126565b5b61037788828901610294565b945050604086015167ffffffffffffffff81111561039857610397610126565b5b6103a488828901610294565b93505060606103b58882890161014c565b92505060806103c68882890161030b565b9150509295509295909350565b600082825260208201905092915050565b7f4665652070657263656e742063616e6e6f74206265206772656174657220746860008201527f616e203130300000000000000000000000000000000000000000000000000000602082015250565b60006104406026836103d3565b915061044b826103e4565b604082019050919050565b6000602082019050818103600083015261046f81610433565b9050919050565b600081519050919050565b7f4e487b7100000000000000000000000000000000000000000000000000000000600052602260045260246000fd5b600060028204905060018216806104c857607f821691505b6020821081036104db576104da610481565b5b50919050565b60008190508160005260206000209050919050565b60006020601f8301049050919050565b600082821b905092915050565b6000600883026105437fffffffffffffffffffffffffffffffffffffffffffffffffffffffffffffffff82610506565b61054d8683610506565b95508019841693508086168417925050509392505050565b6000819050919050565b600061058a6105856105808461012b565b610565565b61012b565b9050919050565b6000819050919050565b6105a48361056f565b6105b86105b082610591565b848454610513565b825550505050565b600090565b6105cd6105c0565b6105d881848461059b565b505050565b5b818110156105fc576105f16000826105c5565b6001810190506105de565b5050565b601f82111561064157610612816104e1565b61061b846104f6565b8101602085101561062a578190505b61063e610636856104f6565b8301826105dd565b50505b505050565b600082821c905092915050565b600061066460001984600802610646565b1980831691505092915050565b600061067d8383610653565b9150826002028217905092915050565b61069682610476565b67ffffffffffffffff8111156106af576106ae61017c565b5b6106b982546104b0565b6106c4828285610600565b600060209050601f8311600181146106f757600084156106e5578287015190505b6106ef8582610671565b865550610757565b601f198416610705866104e1565b60005b8281101561072d57848901518255600182019150602085019450602081019050610708565b8683101561074a5784890151610746601f891682610653565b8355505b6001600288020188555050505b505050505050565b612f7d8061076e6000396000f3fe6080604052600436106100a75760003560e01c80638c639a85116100645780638c639a85146101db5780638da5cb5b1461020657806397bfeb881461023157806399535bd71461024d578063a3cb679d14610278578063d9229a3a146102a3576100a7565b80632c70444e146100ac5780632eb190aa146100dd57806332b19c65146101085780633482b644146101315780634a39ec901461016e57806372e4d507146101ae575b600080fd5b3480156100b857600080fd5b506100c16102d3565b6040516100d49796959493929190612179565b60405180910390f35b3480156100e957600080fd5b506100f26104c8565b6040516100ff91906121fd565b60405180910390f35b34801561011457600080fd5b5061012f600480360381019061012a9190612361565b6104e1565b005b34801561013d57600080fd5b50610158600480360381019061015391906123d6565b610e14565b6040516101659190612403565b60405180910390f35b34801561017a57600080fd5b506101956004803603810190610190919061244a565b610e53565b6040516101a5949392919061248a565b60405180910390f35b3480156101ba57600080fd5b506101c3610fb0565b6040516101d2939291906124dd565b60405180910390f35b3480156101e757600080fd5b506101f0611610565b6040516101fd9190612514565b60405180910390f35b34801561021257600080fd5b5061021b611616565b6040516102289190612403565b60405180910390f35b61024b60048036038101906102469190612361565b61163c565b005b34801561025957600080fd5b50610262611ba7565b60405161026f91906125f2565b60405180910390f35b34801561028457600080fd5b5061028d611ddc565b60405161029a9190612514565b60405180910390f35b3480156102af57600080fd5b506102b8611de4565b6040516102ca96959493929190612614565b60405180910390f35b60008060000180546102e4906126b9565b80601f0160208091040260200160405190810160405280929190818152602001828054610310906126b9565b801561035d5780601f106103325761010080835404028352916020019161035d565b820191906000526020600020905b81548152906001019060200180831161034057829003601f168201915b505050505090806001018054610372906126b9565b80601f016020809104026020016040519081016040528092919081815260200182805461039e906126b9565b80156103eb5780601f106103c0576101008083540402835291602001916103eb565b820191906000526020600020905b8154815290600101906020018083116103ce57829003601f168201915b5050505050908060020154908060030160009054906101000a900460ff1690806004018054610419906126b9565b80601f0160208091040260200160405190810160405280929190818152602001828054610445906126b9565b80156104925780601f1061046757610100808354040283529160200191610492565b820191906000526020600020905b81548152906001019060200180831161047557829003601f168201915b5050505050908060050160009054906101000a900473ffffffffffffffffffffffffffffffffffffffff16908060060154905087565b60008060030160009054906101000a900460ff16905090565b600060050160009054906101000a900473ffffffffffffffffffffffffffffffffffffffff1673ffffffffffffffffffffffffffffffffffffffff163373ffffffffffffffffffffffffffffffffffffffff1614610574576040517f08c379a000000000000000000000000000000000000000000000000000000000815260040161056b9061275c565b60405180910390fd5b600060030160009054906101000a900460ff16156105c7576040517f08c379a00000000000000000000000000000000000000000000000000000000081526004016105be906127c8565b60405180910390fd5b8061065e816000800180546105db906126b9565b80601f0160208091040260200160405190810160405280929190818152602001828054610607906126b9565b80156106545780601f1061062957610100808354040283529160200191610654565b820191906000526020600020905b81548152906001019060200180831161063757829003601f168201915b5050505050611ff3565b806106fc57506106fb8160006001018054610678906126b9565b80601f01602080910402602001604051908101604052809291908181526020018280546106a4906126b9565b80156106f15780601f106106c6576101008083540402835291602001916106f1565b820191906000526020600020905b8154815290600101906020018083116106d457829003601f168201915b5050505050611ff3565b5b806107425750610741816040518060400160405280600481526020017f4472617700000000000000000000000000000000000000000000000000000000815250611ff3565b5b610781576040517f08c379a000000000000000000000000000000000000000000000000000000000815260040161077890612834565b60405180910390fd5b6001600060030160006101000a81548160ff02191690831515021790555081600060040190816107b19190612a00565b50600047905060006064600954836107c99190612b01565b6107d39190612b72565b9050600081836107e39190612ba3565b9050600a60009054906101000a900473ffffffffffffffffffffffffffffffffffffffff1673ffffffffffffffffffffffffffffffffffffffff166108fc839081150290604051600060405180830381858888f1935050505015801561084d573d6000803e3d6000fd5b507f1e78db4c4ee9ca4946fb3ee60599d1e0258a8b22e183510241ff770ab6332baf8260405161087d9190612514565b60405180910390a16000805b600880549050811015610aac576000600882815481106108ac576108ab612bd7565b5b9060005260206000200160009054906101000a900473ffffffffffffffffffffffffffffffffffffffff16905060005b600760008373ffffffffffffffffffffffffffffffffffffffff1673ffffffffffffffffffffffffffffffffffffffff16815260200190815260200160002080549050811015610a9d57610a1a600760008473ffffffffffffffffffffffffffffffffffffffff1673ffffffffffffffffffffffffffffffffffffffff168152602001908152602001600020828154811061097a57610979612bd7565b5b90600052602060002090600402016001018054610996906126b9565b80601f01602080910402602001604051908101604052809291908181526020018280546109c2906126b9565b8015610a0f5780601f106109e457610100808354040283529160200191610a0f565b820191906000526020600020905b8154815290600101906020018083116109f257829003601f168201915b50505050508a611ff3565b15610a9057600760008373ffffffffffffffffffffffffffffffffffffffff1673ffffffffffffffffffffffffffffffffffffffff1681526020019081526020016000208181548110610a7057610a6f612bd7565b5b90600052602060002090600402016000015484610a8d9190612c06565b93505b80806001019150506108dc565b50508080600101915050610889565b5060005b600880549050811015610dd457600060088281548110610ad357610ad2612bd7565b5b9060005260206000200160009054906101000a900473ffffffffffffffffffffffffffffffffffffffff1690506000805b600760008473ffffffffffffffffffffffffffffffffffffffff1673ffffffffffffffffffffffffffffffffffffffff16815260200190815260200160002080549050811015610d25576000600760008573ffffffffffffffffffffffffffffffffffffffff1673ffffffffffffffffffffffffffffffffffffffff1681526020019081526020016000208281548110610ba157610ba0612bd7565b5b90600052602060002090600402019050610c47816001018054610bc3906126b9565b80601f0160208091040260200160405190810160405280929190818152602001828054610bef906126b9565b8015610c3c5780601f10610c1157610100808354040283529160200191610c3c565b820191906000526020600020905b815481529060010190602001808311610c1f57829003601f168201915b50505050508c611ff3565b15610ccf57600086888360000154610c5f9190612b01565b610c699190612b72565b90508084610c779190612c06565b93506040518060400160405280600381526020017f576f6e0000000000000000000000000000000000000000000000000000000000815250826002019081610cbf9190612a00565b5080826003018190555050610d17565b6040518060400160405280600481526020017f4c6f737400000000000000000000000000000000000000000000000000000000815250816002019081610d159190612a00565b505b508080600101915050610b04565b506000811115610dc5578173ffffffffffffffffffffffffffffffffffffffff166108fc829081150290604051600060405180830381858888f19350505050158015610d75573d6000803e3d6000fd5b508173ffffffffffffffffffffffffffffffffffffffff167fe34918ff1c7084970068b53fd71ad6d8b04e9f15d3886cbf006443e6cdc52ea682604051610dbc9190612514565b60405180910390a25b50508080600101915050610ab0565b507f3ea7a0e97590231292a074b5b57cd3b715bff76a55a6125d03dc864e55909ba986604051610e049190612c3a565b60405180910390a1505050505050565b60088181548110610e2457600080fd5b906000526020600020016000915054906101000a900473ffffffffffffffffffffffffffffffffffffffff1681565b60076020528160005260406000208181548110610e6f57600080fd5b906000526020600020906004020160009150915050806000015490806001018054610e99906126b9565b80601f0160208091040260200160405190810160405280929190818152602001828054610ec5906126b9565b8015610f125780601f10610ee757610100808354040283529160200191610f12565b820191906000526020600020905b815481529060010190602001808311610ef557829003601f168201915b505050505090806002018054610f27906126b9565b80601f0160208091040260200160405190810160405280929190818152602001828054610f53906126b9565b8015610fa05780601f10610f7557610100808354040283529160200191610fa0565b820191906000526020600020905b815481529060010190602001808311610f8357829003601f168201915b5050505050908060030154905084565b600080600080600090505b60088054905081101561160a57600060088281548110610fde57610fdd612bd7565b5b9060005260206000200160009054906101000a900473ffffffffffffffffffffffffffffffffffffffff16905060005b600760008373ffffffffffffffffffffffffffffffffffffffff1673ffffffffffffffffffffffffffffffffffffffff168152602001908152602001600020805490508110156115fb576111d8600760008473ffffffffffffffffffffffffffffffffffffffff1673ffffffffffffffffffffffffffffffffffffffff16815260200190815260200160002082815481106110ac576110ab612bd7565b5b906000526020600020906004020160010180546110c8906126b9565b80601f01602080910402602001604051908101604052809291908181526020018280546110f4906126b9565b80156111415780601f1061111657610100808354040283529160200191611141565b820191906000526020600020905b81548152906001019060200180831161112457829003601f168201915b5050505050600080018054611155906126b9565b80601f0160208091040260200160405190810160405280929190818152602001828054611181906126b9565b80156111ce5780601f106111a3576101008083540402835291602001916111ce565b820191906000526020600020905b8154815290600101906020018083116111b157829003601f168201915b5050505050611ff3565b1561125257600760008373ffffffffffffffffffffffffffffffffffffffff1673ffffffffffffffffffffffffffffffffffffffff168152602001908152602001600020818154811061122e5761122d612bd7565b5b9060005260206000209060040201600001548661124b9190612c06565b95506115ee565b6113d3600760008473ffffffffffffffffffffffffffffffffffffffff1673ffffffffffffffffffffffffffffffffffffffff16815260200190815260200160002082815481106112a6576112a5612bd7565b5b906000526020600020906004020160010180546112c2906126b9565b80601f01602080910402602001604051908101604052809291908181526020018280546112ee906126b9565b801561133b5780601f106113105761010080835404028352916020019161133b565b820191906000526020600020905b81548152906001019060200180831161131e57829003601f168201915b505050505060006001018054611350906126b9565b80601f016020809104026020016040519081016040528092919081815260200182805461137c906126b9565b80156113c95780601f1061139e576101008083540402835291602001916113c9565b820191906000526020600020905b8154815290600101906020018083116113ac57829003601f168201915b5050505050611ff3565b1561144d57600760008373ffffffffffffffffffffffffffffffffffffffff1673ffffffffffffffffffffffffffffffffffffffff168152602001908152602001600020818154811061142957611428612bd7565b5b906000526020600020906004020160000154856114469190612c06565b94506115ed565b611576600760008473ffffffffffffffffffffffffffffffffffffffff1673ffffffffffffffffffffffffffffffffffffffff16815260200190815260200160002082815481106114a1576114a0612bd7565b5b906000526020600020906004020160010180546114bd906126b9565b80601f01602080910402602001604051908101604052809291908181526020018280546114e9906126b9565b80156115365780601f1061150b57610100808354040283529160200191611536565b820191906000526020600020905b81548152906001019060200180831161151957829003601f168201915b50505050506040518060400160405280600481526020017f4472617700000000000000000000000000000000000000000000000000000000815250611ff3565b156115ec57600760008373ffffffffffffffffffffffffffffffffffffffff1673ffffffffffffffffffffffffffffffffffffffff16815260200190815260200160002081815481106115cc576115cb612bd7565b5b906000526020600020906004020160000154846115e99190612c06565b93505b5b5b808060010191505061100e565b50508080600101915050610fbb565b50909192565b60095481565b600a60009054906101000a900473ffffffffffffffffffffffffffffffffffffffff1681565b600060050160009054906101000a900473ffffffffffffffffffffffffffffffffffffffff1673ffffffffffffffffffffffffffffffffffffffff163373ffffffffffffffffffffffffffffffffffffffff16036116cf576040517f08c379a00000000000000000000000000000000000000000000000000000000081526004016116c690612cce565b60405180910390fd5b600060030160009054906101000a900460ff1615611722576040517f08c379a0000000000000000000000000000000000000000000000000000000008152600401611719906127c8565b60405180910390fd5b60003411611765576040517f08c379a000000000000000000000000000000000000000000000000000000000815260040161175c90612d60565b60405180910390fd5b806117fc81600080018054611779906126b9565b80601f01602080910402602001604051908101604052809291908181526020018280546117a5906126b9565b80156117f25780601f106117c7576101008083540402835291602001916117f2565b820191906000526020600020905b8154815290600101906020018083116117d557829003601f168201915b5050505050611ff3565b8061189a57506118998160006001018054611816906126b9565b80601f0160208091040260200160405190810160405280929190818152602001828054611842906126b9565b801561188f5780601f106118645761010080835404028352916020019161188f565b820191906000526020600020905b81548152906001019060200180831161187257829003601f168201915b5050505050611ff3565b5b806118e057506118df816040518060400160405280600481526020017f4472617700000000000000000000000000000000000000000000000000000000815250611ff3565b5b61191f576040517f08c379a000000000000000000000000000000000000000000000000000000000815260040161191690612dcc565b60405180910390fd5b6000600760003373ffffffffffffffffffffffffffffffffffffffff1673ffffffffffffffffffffffffffffffffffffffff16815260200190815260200160002080549050146119a4576040517f08c379a000000000000000000000000000000000000000000000000000000000815260040161199b90612e38565b60405180910390fd5b600760003373ffffffffffffffffffffffffffffffffffffffff1673ffffffffffffffffffffffffffffffffffffffff16815260200190815260200160002060405180608001604052803481526020018481526020016040518060400160405280600781526020017f70656e64696e6700000000000000000000000000000000000000000000000000815250815260200160008152509080600181540180825580915050600190039060005260206000209060040201600090919091909150600082015181600001556020820151816001019081611a829190612a00565b506040820151816002019081611a989190612a00565b506060820151816003015550506001600760003373ffffffffffffffffffffffffffffffffffffffff1673ffffffffffffffffffffffffffffffffffffffff1681526020019081526020016000208054905003611b53576008339080600181540180825580915050600190039060005260206000200160009091909190916101000a81548173ffffffffffffffffffffffffffffffffffffffff021916908373ffffffffffffffffffffffffffffffffffffffff1602179055505b3373ffffffffffffffffffffffffffffffffffffffff167ff14919ff92658c8b721faa944957b48dedaee13316a12a2635add911929e91703484604051611b9b929190612e58565b60405180910390a25050565b611baf61204c565b6000600760003373ffffffffffffffffffffffffffffffffffffffff1673ffffffffffffffffffffffffffffffffffffffff1681526020019081526020016000208054905011611c34576040517f08c379a0000000000000000000000000000000000000000000000000000000008152600401611c2b90612ed4565b60405180910390fd5b600760003373ffffffffffffffffffffffffffffffffffffffff1673ffffffffffffffffffffffffffffffffffffffff168152602001908152602001600020600081548110611c8657611c85612bd7565b5b906000526020600020906004020160405180608001604052908160008201548152602001600182018054611cb9906126b9565b80601f0160208091040260200160405190810160405280929190818152602001828054611ce5906126b9565b8015611d325780601f10611d0757610100808354040283529160200191611d32565b820191906000526020600020905b815481529060010190602001808311611d1557829003601f168201915b50505050508152602001600282018054611d4b906126b9565b80601f0160208091040260200160405190810160405280929190818152602001828054611d77906126b9565b8015611dc45780601f10611d9957610100808354040283529160200191611dc4565b820191906000526020600020905b815481529060010190602001808311611da757829003601f168201915b50505050508152602001600382015481525050905090565b600047905090565b60608060008060606000806000016000600101600060020154600060030160009054906101000a900460ff166000600401600060050160009054906101000a900473ffffffffffffffffffffffffffffffffffffffff16858054611e47906126b9565b80601f0160208091040260200160405190810160405280929190818152602001828054611e73906126b9565b8015611ec05780601f10611e9557610100808354040283529160200191611ec0565b820191906000526020600020905b815481529060010190602001808311611ea357829003601f168201915b50505050509550848054611ed3906126b9565b80601f0160208091040260200160405190810160405280929190818152602001828054611eff906126b9565b8015611f4c5780601f10611f2157610100808354040283529160200191611f4c565b820191906000526020600020905b815481529060010190602001808311611f2f57829003601f168201915b50505050509450818054611f5f906126b9565b80601f0160208091040260200160405190810160405280929190818152602001828054611f8b906126b9565b8015611fd85780601f10611fad57610100808354040283529160200191611fd8565b820191906000526020600020905b815481529060010190602001808311611fbb57829003601f168201915b50505050509150955095509550955095509550909192939495565b6000816040516020016120069190612f30565b604051602081830303815290604052805190602001208360405160200161202d9190612f30565b6040516020818303038152906040528051906020012014905092915050565b6040518060800160405280600081526020016060815260200160608152602001600081525090565b600081519050919050565b600082825260208201905092915050565b60005b838110156120ae578082015181840152602081019050612093565b60008484015250505050565b6000601f19601f8301169050919050565b60006120d682612074565b6120e0818561207f565b93506120f0818560208601612090565b6120f9816120ba565b840191505092915050565b6000819050919050565b61211781612104565b82525050565b60008115159050919050565b6121328161211d565b82525050565b600073ffffffffffffffffffffffffffffffffffffffff82169050919050565b600061216382612138565b9050919050565b61217381612158565b82525050565b600060e0820190508181036000830152612193818a6120cb565b905081810360208301526121a781896120cb565b90506121b6604083018861210e565b6121c36060830187612129565b81810360808301526121d581866120cb565b90506121e460a083018561216a565b6121f160c083018461210e565b98975050505050505050565b60006020820190506122126000830184612129565b92915050565b6000604051905090565b600080fd5b600080fd5b600080fd5b600080fd5b7f4e487b7100000000000000000000000000000000000000000000000000000000600052604160045260246000fd5b61226e826120ba565b810181811067ffffffffffffffff8211171561228d5761228c612236565b5b80604052505050565b60006122a0612218565b90506122ac8282612265565b919050565b600067ffffffffffffffff8211156122cc576122cb612236565b5b6122d5826120ba565b9050602081019050919050565b82818337600083830152505050565b60006123046122ff846122b1565b612296565b9050828152602081018484840111156123205761231f612231565b5b61232b8482856122e2565b509392505050565b600082601f8301126123485761234761222c565b5b81356123588482602086016122f1565b91505092915050565b60006020828403121561237757612376612222565b5b600082013567ffffffffffffffff81111561239557612394612227565b5b6123a184828501612333565b91505092915050565b6123b381612104565b81146123be57600080fd5b50565b6000813590506123d0816123aa565b92915050565b6000602082840312156123ec576123eb612222565b5b60006123fa848285016123c1565b91505092915050565b6000602082019050612418600083018461216a565b92915050565b61242781612158565b811461243257600080fd5b50565b6000813590506124448161241e565b92915050565b6000806040838503121561246157612460612222565b5b600061246f85828601612435565b9250506020612480858286016123c1565b9150509250929050565b600060808201905061249f600083018761210e565b81810360208301526124b181866120cb565b905081810360408301526124c581856120cb565b90506124d4606083018461210e565b95945050505050565b60006060820190506124f2600083018661210e565b6124ff602083018561210e565b61250c604083018461210e565b949350505050565b6000602082019050612529600083018461210e565b92915050565b61253881612104565b82525050565b600082825260208201905092915050565b600061255a82612074565b612564818561253e565b9350612574818560208601612090565b61257d816120ba565b840191505092915050565b60006080830160008301516125a0600086018261252f565b50602083015184820360208601526125b8828261254f565b915050604083015184820360408601526125d2828261254f565b91505060608301516125e7606086018261252f565b508091505092915050565b6000602082019050818103600083015261260c8184612588565b905092915050565b600060c082019050818103600083015261262e81896120cb565b9050818103602083015261264281886120cb565b9050612651604083018761210e565b61265e6060830186612129565b818103608083015261267081856120cb565b905061267f60a083018461216a565b979650505050505050565b7f4e487b7100000000000000000000000000000000000000000000000000000000600052602260045260246000fd5b600060028204905060018216806126d157607f821691505b6020821081036126e4576126e361268a565b5b50919050565b7f4f6e6c79206f776e65722063616e2063616c6c20746869732066756e6374696f60008201527f6e00000000000000000000000000000000000000000000000000000000000000602082015250565b600061274660218361207f565b9150612751826126ea565b604082019050919050565b6000602082019050818103600083015261277581612739565b9050919050565b7f42657474696e6720697320636c6f736564000000000000000000000000000000600082015250565b60006127b260118361207f565b91506127bd8261277c565b602082019050919050565b600060208201905081810360008301526127e1816127a5565b9050919050565b7f496e76616c696420726573756c74000000000000000000000000000000000000600082015250565b600061281e600e8361207f565b9150612829826127e8565b602082019050919050565b6000602082019050818103600083015261284d81612811565b9050919050565b60008190508160005260206000209050919050565b60006020601f8301049050919050565b600082821b905092915050565b6000600883026128b67fffffffffffffffffffffffffffffffffffffffffffffffffffffffffffffffff82612879565b6128c08683612879565b95508019841693508086168417925050509392505050565b6000819050919050565b60006128fd6128f86128f384612104565b6128d8565b612104565b9050919050565b6000819050919050565b612917836128e2565b61292b61292382612904565b848454612886565b825550505050565b600090565b612940612933565b61294b81848461290e565b505050565b5b8181101561296f57612964600082612938565b600181019050612951565b5050565b601f8211156129b45761298581612854565b61298e84612869565b8101602085101561299d578190505b6129b16129a985612869565b830182612950565b50505b505050565b600082821c905092915050565b60006129d7600019846008026129b9565b1980831691505092915050565b60006129f083836129c6565b9150826002028217905092915050565b612a0982612074565b67ffffffffffffffff811115612a2257612a21612236565b5b612a2c82546126b9565b612a37828285612973565b600060209050601f831160018114612a6a5760008415612a58578287015190505b612a6285826129e4565b865550612aca565b601f198416612a7886612854565b60005b82811015612aa057848901518255600182019150602085019450602081019050612a7b565b86831015612abd5784890151612ab9601f8916826129c6565b8355505b6001600288020188555050505b505050505050565b7f4e487b7100000000000000000000000000000000000000000000000000000000600052601160045260246000fd5b6000612b0c82612104565b9150612b1783612104565b9250828202612b2581612104565b91508282048414831517612b3c57612b3b612ad2565b5b5092915050565b7f4e487b7100000000000000000000000000000000000000000000000000000000600052601260045260246000fd5b6000612b7d82612104565b9150612b8883612104565b925082612b9857612b97612b43565b5b828204905092915050565b6000612bae82612104565b9150612bb983612104565b9250828203905081811115612bd157612bd0612ad2565b5b92915050565b7f4e487b7100000000000000000000000000000000000000000000000000000000600052603260045260246000fd5b6000612c1182612104565b9150612c1c83612104565b9250828201905080821115612c3457612c33612ad2565b5b92915050565b60006020820190508181036000830152612c5481846120cb565b905092915050565b7f4f6e6c79206e6f74206f776e65722063616e2063616c6c20746869732066756e60008201527f6374696f6e000000000000000000000000000000000000000000000000000000602082015250565b6000612cb860258361207f565b9150612cc382612c5c565b604082019050919050565b60006020820190508181036000830152612ce781612cab565b9050919050565b7f42657420616d6f756e74206d7573742062652067726561746572207468616e2060008201527f3000000000000000000000000000000000000000000000000000000000000000602082015250565b6000612d4a60218361207f565b9150612d5582612cee565b604082019050919050565b60006020820190508181036000830152612d7981612d3d565b9050919050565b7f496e76616c69642063686f696365000000000000000000000000000000000000600082015250565b6000612db6600e8361207f565b9150612dc182612d80565b602082019050919050565b60006020820190508181036000830152612de581612da9565b9050919050565b7f4f6e6c79206f6e652062657420706572207573657220616c6c6f776564000000600082015250565b6000612e22601d8361207f565b9150612e2d82612dec565b602082019050919050565b60006020820190508181036000830152612e5181612e15565b9050919050565b6000604082019050612e6d600083018561210e565b8181036020830152612e7f81846120cb565b90509392505050565b7f4e6f206265747320666f756e6420666f72207468697320757365720000000000600082015250565b6000612ebe601b8361207f565b9150612ec982612e88565b602082019050919050565b60006020820190508181036000830152612eed81612eb1565b9050919050565b600081905092915050565b6000612f0a82612074565b612f148185612ef4565b9350612f24818560208601612090565b80840191505092915050565b6000612f3c8284612eff565b91508190509291505056fea2646970667358221220bd214a98e4b83454c0e981faf5014446cc13f47d0748db39994e82b4342141c964736f6c634300081c0033",
  "linkReferences": {},
  "deployedLinkReferences": {}
}