{
  "_format": "hh-sol-artifact-1",
  "contractName": "BetContract",
  "sourceName": "contracts/BetContract.sol",
  "abi": [
    {
      "inputs": [
        {
          "internalType": "uint256",
          "name": "_platformFeePercent",
          "type": "uint256"
        },
        {
          "internalType": "string",
          "name": "_team1",
          "type": "string"
        },
        {
          "internalType": "string",
          "name": "_team2",
          "type": "string"
        },
        {
          "internalType": "uint256",
          "name": "_matchDate",
          "type": "uint256"
        }
      ],
      "stateMutability": "nonpayable",
      "type": "constructor"
    },
    {
      "anonymous": false,
      "inputs": [
        {
          "indexed": true,
          "internalType": "address",
          "name": "better",
          "type": "address"
        },
        {
          "indexed": false,
          "internalType": "uint256",
          "name": "amount",
          "type": "uint256"
        },
        {
          "indexed": false,
          "internalType": "string",
          "name": "choice",
          "type": "string"
        }
      ],
      "name": "BetPlaced",
      "type": "event"
    },
    {
      "anonymous": false,
      "inputs": [
        {
          "indexed": false,
          "internalType": "string",
          "name": "result",
          "type": "string"
        }
      ],
      "name": "BetSettled",
      "type": "event"
    },
    {
      "anonymous": false,
      "inputs": [
        {
          "indexed": false,
          "internalType": "uint256",
          "name": "amount",
          "type": "uint256"
        }
      ],
      "name": "PlatformFeeCollected",
      "type": "event"
    },
    {
      "anonymous": false,
      "inputs": [
        {
          "indexed": true,
          "internalType": "address",
          "name": "better",
          "type": "address"
        },
        {
          "indexed": false,
          "internalType": "uint256",
          "name": "amount",
          "type": "uint256"
        }
      ],
      "name": "RewardDistributed",
      "type": "event"
    },
    {
      "inputs": [
        {
          "internalType": "address",
          "name": "",
          "type": "address"
        },
        {
          "internalType": "uint256",
          "name": "",
          "type": "uint256"
        }
      ],
      "name": "bets",
      "outputs": [
        {
          "internalType": "uint256",
          "name": "amount",
          "type": "uint256"
        },
        {
          "internalType": "string",
          "name": "choice",
          "type": "string"
        },
        {
          "internalType": "string",
          "name": "status",
          "type": "string"
        }
      ],
      "stateMutability": "view",
      "type": "function"
    },
    {
      "inputs": [
        {
          "internalType": "uint256",
          "name": "",
          "type": "uint256"
        }
      ],
      "name": "bettors",
      "outputs": [
        {
          "internalType": "address",
          "name": "",
          "type": "address"
        }
      ],
      "stateMutability": "view",
      "type": "function"
    },
    {
      "inputs": [],
      "name": "currentMatch",
      "outputs": [
        {
          "internalType": "string",
          "name": "team1",
          "type": "string"
        },
        {
          "internalType": "string",
          "name": "team2",
          "type": "string"
        },
        {
          "internalType": "uint256",
          "name": "matchDate",
          "type": "uint256"
        },
        {
          "internalType": "bool",
          "name": "isSettled",
          "type": "bool"
        },
        {
          "internalType": "string",
          "name": "result",
          "type": "string"
        }
      ],
      "stateMutability": "view",
      "type": "function"
    },
    {
      "inputs": [],
      "name": "getMatchDetails",
      "outputs": [
        {
          "internalType": "string",
          "name": "",
          "type": "string"
        },
        {
          "internalType": "string",
          "name": "",
          "type": "string"
        },
        {
          "internalType": "uint256",
          "name": "",
          "type": "uint256"
        },
        {
          "internalType": "bool",
          "name": "",
          "type": "bool"
        },
        {
          "internalType": "string",
          "name": "",
          "type": "string"
        }
      ],
      "stateMutability": "view",
      "type": "function"
    },
    {
      "inputs": [],
      "name": "getMyBets",
      "outputs": [
        {
          "components": [
            {
              "internalType": "uint256",
              "name": "amount",
              "type": "uint256"
            },
            {
              "internalType": "string",
              "name": "choice",
              "type": "string"
            },
            {
              "internalType": "string",
              "name": "status",
              "type": "string"
            }
          ],
          "internalType": "struct Bet",
          "name": "",
          "type": "tuple"
        }
      ],
      "stateMutability": "view",
      "type": "function"
    },
    {
      "inputs": [],
      "name": "getTotalBets",
      "outputs": [
        {
          "internalType": "uint256",
          "name": "",
          "type": "uint256"
        }
      ],
      "stateMutability": "view",
      "type": "function"
    },
    {
      "inputs": [],
      "name": "getTotalBetsByChoice",
      "outputs": [
        {
          "internalType": "uint256",
          "name": "totalTeam1",
          "type": "uint256"
        },
        {
          "internalType": "uint256",
          "name": "totalTeam2",
          "type": "uint256"
        },
        {
          "internalType": "uint256",
          "name": "totalDraw",
          "type": "uint256"
        }
      ],
      "stateMutability": "view",
      "type": "function"
    },
    {
      "inputs": [],
      "name": "isMatchSettled",
      "outputs": [
        {
          "internalType": "bool",
          "name": "",
          "type": "bool"
        }
      ],
      "stateMutability": "view",
      "type": "function"
    },
    {
      "inputs": [],
      "name": "owner",
      "outputs": [
        {
          "internalType": "address",
          "name": "",
          "type": "address"
        }
      ],
      "stateMutability": "view",
      "type": "function"
    },
    {
      "inputs": [
        {
          "internalType": "string",
          "name": "_choice",
          "type": "string"
        }
      ],
      "name": "placeBet",
      "outputs": [],
      "stateMutability": "payable",
      "type": "function"
    },
    {
      "inputs": [],
      "name": "platformFeePercent",
      "outputs": [
        {
          "internalType": "uint256",
          "name": "",
          "type": "uint256"
        }
      ],
      "stateMutability": "view",
      "type": "function"
    },
    {
      "inputs": [
        {
          "internalType": "string",
          "name": "_result",
          "type": "string"
        }
      ],
      "name": "settleBet",
      "outputs": [],
      "stateMutability": "nonpayable",
      "type": "function"
    }
  ],
  "bytecode": "0x608060405234801561001057600080fd5b5060405161331d38038061331d833981810160405281019061003291906102be565b6064841115610076576040517f08c379a000000000000000000000000000000000000000000000000000000000815260040161006d906103e0565b60405180910390fd5b836007819055508260008001908161008e9190610617565b5081600060010190816100a19190610617565b508060006002018190555060008060030160006101000a81548160ff02191690831515021790555033600860006101000a81548173ffffffffffffffffffffffffffffffffffffffff021916908373ffffffffffffffffffffffffffffffffffffffff160217905550505050506106e9565b6000604051905090565b600080fd5b600080fd5b6000819050919050565b61013a81610127565b811461014557600080fd5b50565b60008151905061015781610131565b92915050565b600080fd5b600080fd5b6000601f19601f8301169050919050565b7f4e487b7100000000000000000000000000000000000000000000000000000000600052604160045260246000fd5b6101b082610167565b810181811067ffffffffffffffff821117156101cf576101ce610178565b5b80604052505050565b60006101e2610113565b90506101ee82826101a7565b919050565b600067ffffffffffffffff82111561020e5761020d610178565b5b61021782610167565b9050602081019050919050565b60005b83811015610242578082015181840152602081019050610227565b60008484015250505050565b600061026161025c846101f3565b6101d8565b90508281526020810184848401111561027d5761027c610162565b5b610288848285610224565b509392505050565b600082601f8301126102a5576102a461015d565b5b81516102b584826020860161024e565b91505092915050565b600080600080608085870312156102d8576102d761011d565b5b60006102e687828801610148565b945050602085015167ffffffffffffffff81111561030757610306610122565b5b61031387828801610290565b935050604085015167ffffffffffffffff81111561033457610333610122565b5b61034087828801610290565b925050606061035187828801610148565b91505092959194509250565b600082825260208201905092915050565b7f4665652070657263656e742063616e6e6f74206265206772656174657220746860008201527f616e203130300000000000000000000000000000000000000000000000000000602082015250565b60006103ca60268361035d565b91506103d58261036e565b604082019050919050565b600060208201905081810360008301526103f9816103bd565b9050919050565b600081519050919050565b7f4e487b7100000000000000000000000000000000000000000000000000000000600052602260045260246000fd5b6000600282049050600182168061045257607f821691505b6020821081036104655761046461040b565b5b50919050565b60008190508160005260206000209050919050565b60006020601f8301049050919050565b600082821b905092915050565b6000600883026104cd7fffffffffffffffffffffffffffffffffffffffffffffffffffffffffffffffff82610490565b6104d78683610490565b95508019841693508086168417925050509392505050565b6000819050919050565b600061051461050f61050a84610127565b6104ef565b610127565b9050919050565b6000819050919050565b61052e836104f9565b61054261053a8261051b565b84845461049d565b825550505050565b600090565b61055761054a565b610562818484610525565b505050565b5b818110156105865761057b60008261054f565b600181019050610568565b5050565b601f8211156105cb5761059c8161046b565b6105a584610480565b810160208510156105b4578190505b6105c86105c085610480565b830182610567565b50505b505050565b600082821c905092915050565b60006105ee600019846008026105d0565b1980831691505092915050565b600061060783836105dd565b9150826002028217905092915050565b61062082610400565b67ffffffffffffffff81111561063957610638610178565b5b610643825461043a565b61064e82828561058a565b600060209050601f831160018114610681576000841561066f578287015190505b61067985826105fb565b8655506106e1565b601f19841661068f8661046b565b60005b828110156106b757848901518255600182019150602085019450602081019050610692565b868310156106d457848901516106d0601f8916826105dd565b8355505b6001600288020188555050505b505050505050565b612c25806106f86000396000f3fe6080604052600436106100a75760003560e01c80638c639a85116100645780638c639a85146101d85780638da5cb5b1461020357806397bfeb881461022e57806399535bd71461024a578063a3cb679d14610275578063d9229a3a146102a0576100a7565b80632c70444e146100ac5780632eb190aa146100db57806332b19c65146101065780633482b6441461012f5780634a39ec901461016c57806372e4d507146101ab575b600080fd5b3480156100b857600080fd5b506100c16102cf565b6040516100d2959493929190611f91565b60405180910390f35b3480156100e757600080fd5b506100f0610498565b6040516100fd9190611ff9565b60405180910390f35b34801561011257600080fd5b5061012d6004803603810190610128919061215d565b6104b1565b005b34801561013b57600080fd5b50610156600480360381019061015191906121d2565b610dd8565b6040516101639190612240565b60405180910390f35b34801561017857600080fd5b50610193600480360381019061018e9190612287565b610e17565b6040516101a2939291906122c7565b60405180910390f35b3480156101b757600080fd5b506101c0610f6e565b6040516101cf9392919061230c565b60405180910390f35b3480156101e457600080fd5b506101ed6115ce565b6040516101fa9190612343565b60405180910390f35b34801561020f57600080fd5b506102186115d4565b6040516102259190612240565b60405180910390f35b6102486004803603810190610243919061215d565b6115fa565b005b34801561025657600080fd5b5061025f611ac1565b60405161026c919061240e565b60405180910390f35b34801561028157600080fd5b5061028a611c67565b6040516102979190612343565b60405180910390f35b3480156102ac57600080fd5b506102b5611c6f565b6040516102c6959493929190611f91565b60405180910390f35b60008060000180546102e09061245f565b80601f016020809104026020016040519081016040528092919081815260200182805461030c9061245f565b80156103595780601f1061032e57610100808354040283529160200191610359565b820191906000526020600020905b81548152906001019060200180831161033c57829003601f168201915b50505050509080600101805461036e9061245f565b80601f016020809104026020016040519081016040528092919081815260200182805461039a9061245f565b80156103e75780601f106103bc576101008083540402835291602001916103e7565b820191906000526020600020905b8154815290600101906020018083116103ca57829003601f168201915b5050505050908060020154908060030160009054906101000a900460ff16908060040180546104159061245f565b80601f01602080910402602001604051908101604052809291908181526020018280546104419061245f565b801561048e5780601f106104635761010080835404028352916020019161048e565b820191906000526020600020905b81548152906001019060200180831161047157829003601f168201915b5050505050905085565b60008060030160009054906101000a900460ff16905090565b600860009054906101000a900473ffffffffffffffffffffffffffffffffffffffff1673ffffffffffffffffffffffffffffffffffffffff163373ffffffffffffffffffffffffffffffffffffffff1614610541576040517f08c379a000000000000000000000000000000000000000000000000000000000815260040161053890612502565b60405180910390fd5b600060030160009054906101000a900460ff1615610594576040517f08c379a000000000000000000000000000000000000000000000000000000000815260040161058b9061256e565b60405180910390fd5b8061062b816000800180546105a89061245f565b80601f01602080910402602001604051908101604052809291908181526020018280546105d49061245f565b80156106215780601f106105f657610100808354040283529160200191610621565b820191906000526020600020905b81548152906001019060200180831161060457829003601f168201915b5050505050611e53565b806106c957506106c881600060010180546106459061245f565b80601f01602080910402602001604051908101604052809291908181526020018280546106719061245f565b80156106be5780601f10610693576101008083540402835291602001916106be565b820191906000526020600020905b8154815290600101906020018083116106a157829003601f168201915b5050505050611e53565b5b8061070f575061070e816040518060400160405280600481526020017f4472617700000000000000000000000000000000000000000000000000000000815250611e53565b5b61074e576040517f08c379a0000000000000000000000000000000000000000000000000000000008152600401610745906125da565b60405180910390fd5b6001600060030160006101000a81548160ff021916908315150217905550816000600401908161077e91906127a6565b506000479050600060646007548361079691906128a7565b6107a09190612918565b9050600081836107b09190612949565b9050600860009054906101000a900473ffffffffffffffffffffffffffffffffffffffff1673ffffffffffffffffffffffffffffffffffffffff166108fc839081150290604051600060405180830381858888f1935050505015801561081a573d6000803e3d6000fd5b507f1e78db4c4ee9ca4946fb3ee60599d1e0258a8b22e183510241ff770ab6332baf8260405161084a9190612343565b60405180910390a16000805b600680549050811015610a79576000600682815481106108795761087861297d565b5b9060005260206000200160009054906101000a900473ffffffffffffffffffffffffffffffffffffffff16905060005b600560008373ffffffffffffffffffffffffffffffffffffffff1673ffffffffffffffffffffffffffffffffffffffff16815260200190815260200160002080549050811015610a6a576109e7600560008473ffffffffffffffffffffffffffffffffffffffff1673ffffffffffffffffffffffffffffffffffffffff16815260200190815260200160002082815481106109475761094661297d565b5b906000526020600020906003020160010180546109639061245f565b80601f016020809104026020016040519081016040528092919081815260200182805461098f9061245f565b80156109dc5780601f106109b1576101008083540402835291602001916109dc565b820191906000526020600020905b8154815290600101906020018083116109bf57829003601f168201915b50505050508a611e53565b15610a5d57600560008373ffffffffffffffffffffffffffffffffffffffff1673ffffffffffffffffffffffffffffffffffffffff1681526020019081526020016000208181548110610a3d57610a3c61297d565b5b90600052602060002090600302016000015484610a5a91906129ac565b93505b80806001019150506108a9565b50508080600101915050610856565b5060005b600680549050811015610d9857600060068281548110610aa057610a9f61297d565b5b9060005260206000200160009054906101000a900473ffffffffffffffffffffffffffffffffffffffff1690506000805b600560008473ffffffffffffffffffffffffffffffffffffffff1673ffffffffffffffffffffffffffffffffffffffff16815260200190815260200160002080549050811015610ce9576000600560008573ffffffffffffffffffffffffffffffffffffffff1673ffffffffffffffffffffffffffffffffffffffff1681526020019081526020016000208281548110610b6e57610b6d61297d565b5b90600052602060002090600302019050610c14816001018054610b909061245f565b80601f0160208091040260200160405190810160405280929190818152602001828054610bbc9061245f565b8015610c095780601f10610bde57610100808354040283529160200191610c09565b820191906000526020600020905b815481529060010190602001808311610bec57829003601f168201915b50505050508c611e53565b15610c9357600086888360000154610c2c91906128a7565b610c369190612918565b90508084610c4491906129ac565b93506040518060400160405280600381526020017f576f6e0000000000000000000000000000000000000000000000000000000000815250826002019081610c8c91906127a6565b5050610cdb565b6040518060400160405280600481526020017f4c6f737400000000000000000000000000000000000000000000000000000000815250816002019081610cd991906127a6565b505b508080600101915050610ad1565b506000811115610d89578173ffffffffffffffffffffffffffffffffffffffff166108fc829081150290604051600060405180830381858888f19350505050158015610d39573d6000803e3d6000fd5b508173ffffffffffffffffffffffffffffffffffffffff167fe34918ff1c7084970068b53fd71ad6d8b04e9f15d3886cbf006443e6cdc52ea682604051610d809190612343565b60405180910390a25b50508080600101915050610a7d565b507f3ea7a0e97590231292a074b5b57cd3b715bff76a55a6125d03dc864e55909ba986604051610dc891906129e0565b60405180910390a1505050505050565b60068181548110610de857600080fd5b906000526020600020016000915054906101000a900473ffffffffffffffffffffffffffffffffffffffff1681565b60056020528160005260406000208181548110610e3357600080fd5b906000526020600020906003020160009150915050806000015490806001018054610e5d9061245f565b80601f0160208091040260200160405190810160405280929190818152602001828054610e899061245f565b8015610ed65780601f10610eab57610100808354040283529160200191610ed6565b820191906000526020600020905b815481529060010190602001808311610eb957829003601f168201915b505050505090806002018054610eeb9061245f565b80601f0160208091040260200160405190810160405280929190818152602001828054610f179061245f565b8015610f645780601f10610f3957610100808354040283529160200191610f64565b820191906000526020600020905b815481529060010190602001808311610f4757829003601f168201915b5050505050905083565b600080600080600090505b6006805490508110156115c857600060068281548110610f9c57610f9b61297d565b5b9060005260206000200160009054906101000a900473ffffffffffffffffffffffffffffffffffffffff16905060005b600560008373ffffffffffffffffffffffffffffffffffffffff1673ffffffffffffffffffffffffffffffffffffffff168152602001908152602001600020805490508110156115b957611196600560008473ffffffffffffffffffffffffffffffffffffffff1673ffffffffffffffffffffffffffffffffffffffff168152602001908152602001600020828154811061106a5761106961297d565b5b906000526020600020906003020160010180546110869061245f565b80601f01602080910402602001604051908101604052809291908181526020018280546110b29061245f565b80156110ff5780601f106110d4576101008083540402835291602001916110ff565b820191906000526020600020905b8154815290600101906020018083116110e257829003601f168201915b50505050506000800180546111139061245f565b80601f016020809104026020016040519081016040528092919081815260200182805461113f9061245f565b801561118c5780601f106111615761010080835404028352916020019161118c565b820191906000526020600020905b81548152906001019060200180831161116f57829003601f168201915b5050505050611e53565b1561121057600560008373ffffffffffffffffffffffffffffffffffffffff1673ffffffffffffffffffffffffffffffffffffffff16815260200190815260200160002081815481106111ec576111eb61297d565b5b9060005260206000209060030201600001548661120991906129ac565b95506115ac565b611391600560008473ffffffffffffffffffffffffffffffffffffffff1673ffffffffffffffffffffffffffffffffffffffff16815260200190815260200160002082815481106112645761126361297d565b5b906000526020600020906003020160010180546112809061245f565b80601f01602080910402602001604051908101604052809291908181526020018280546112ac9061245f565b80156112f95780601f106112ce576101008083540402835291602001916112f9565b820191906000526020600020905b8154815290600101906020018083116112dc57829003601f168201915b50505050506000600101805461130e9061245f565b80601f016020809104026020016040519081016040528092919081815260200182805461133a9061245f565b80156113875780601f1061135c57610100808354040283529160200191611387565b820191906000526020600020905b81548152906001019060200180831161136a57829003601f168201915b5050505050611e53565b1561140b57600560008373ffffffffffffffffffffffffffffffffffffffff1673ffffffffffffffffffffffffffffffffffffffff16815260200190815260200160002081815481106113e7576113e661297d565b5b9060005260206000209060030201600001548561140491906129ac565b94506115ab565b611534600560008473ffffffffffffffffffffffffffffffffffffffff1673ffffffffffffffffffffffffffffffffffffffff168152602001908152602001600020828154811061145f5761145e61297d565b5b9060005260206000209060030201600101805461147b9061245f565b80601f01602080910402602001604051908101604052809291908181526020018280546114a79061245f565b80156114f45780601f106114c9576101008083540402835291602001916114f4565b820191906000526020600020905b8154815290600101906020018083116114d757829003601f168201915b50505050506040518060400160405280600481526020017f4472617700000000000000000000000000000000000000000000000000000000815250611e53565b156115aa57600560008373ffffffffffffffffffffffffffffffffffffffff1673ffffffffffffffffffffffffffffffffffffffff168152602001908152602001600020818154811061158a5761158961297d565b5b906000526020600020906003020160000154846115a791906129ac565b93505b5b5b8080600101915050610fcc565b50508080600101915050610f79565b50909192565b60075481565b600860009054906101000a900473ffffffffffffffffffffffffffffffffffffffff1681565b600060030160009054906101000a900460ff161561164d576040517f08c379a00000000000000000000000000000000000000000000000000000000081526004016116449061256e565b60405180910390fd5b60003411611690576040517f08c379a000000000000000000000000000000000000000000000000000000000815260040161168790612a74565b60405180910390fd5b80611727816000800180546116a49061245f565b80601f01602080910402602001604051908101604052809291908181526020018280546116d09061245f565b801561171d5780601f106116f25761010080835404028352916020019161171d565b820191906000526020600020905b81548152906001019060200180831161170057829003601f168201915b5050505050611e53565b806117c557506117c481600060010180546117419061245f565b80601f016020809104026020016040519081016040528092919081815260200182805461176d9061245f565b80156117ba5780601f1061178f576101008083540402835291602001916117ba565b820191906000526020600020905b81548152906001019060200180831161179d57829003601f168201915b5050505050611e53565b5b8061180b575061180a816040518060400160405280600481526020017f4472617700000000000000000000000000000000000000000000000000000000815250611e53565b5b61184a576040517f08c379a000000000000000000000000000000000000000000000000000000000815260040161184190612ae0565b60405180910390fd5b6000600560003373ffffffffffffffffffffffffffffffffffffffff1673ffffffffffffffffffffffffffffffffffffffff16815260200190815260200160002080549050146118cf576040517f08c379a00000000000000000000000000000000000000000000000000000000081526004016118c690612b4c565b60405180910390fd5b600560003373ffffffffffffffffffffffffffffffffffffffff1673ffffffffffffffffffffffffffffffffffffffff16815260200190815260200160002060405180606001604052803481526020018481526020016040518060400160405280600781526020017f70656e64696e670000000000000000000000000000000000000000000000000081525081525090806001815401808255809150506001900390600052602060002090600302016000909190919091506000820151816000015560208201518160010190816119a691906127a6565b5060408201518160020190816119bc91906127a6565b5050506001600560003373ffffffffffffffffffffffffffffffffffffffff1673ffffffffffffffffffffffffffffffffffffffff1681526020019081526020016000208054905003611a6d576006339080600181540180825580915050600190039060005260206000200160009091909190916101000a81548173ffffffffffffffffffffffffffffffffffffffff021916908373ffffffffffffffffffffffffffffffffffffffff1602179055505b3373ffffffffffffffffffffffffffffffffffffffff167ff14919ff92658c8b721faa944957b48dedaee13316a12a2635add911929e91703484604051611ab5929190612b6c565b60405180910390a25050565b611ac9611eac565b600560003373ffffffffffffffffffffffffffffffffffffffff1673ffffffffffffffffffffffffffffffffffffffff168152602001908152602001600020600081548110611b1b57611b1a61297d565b5b906000526020600020906003020160405180606001604052908160008201548152602001600182018054611b4e9061245f565b80601f0160208091040260200160405190810160405280929190818152602001828054611b7a9061245f565b8015611bc75780601f10611b9c57610100808354040283529160200191611bc7565b820191906000526020600020905b815481529060010190602001808311611baa57829003601f168201915b50505050508152602001600282018054611be09061245f565b80601f0160208091040260200160405190810160405280929190818152602001828054611c0c9061245f565b8015611c595780601f10611c2e57610100808354040283529160200191611c59565b820191906000526020600020905b815481529060010190602001808311611c3c57829003601f168201915b505050505081525050905090565b600047905090565b6060806000806060600080016000600101600060020154600060030160009054906101000a900460ff166000600401848054611caa9061245f565b80601f0160208091040260200160405190810160405280929190818152602001828054611cd69061245f565b8015611d235780601f10611cf857610100808354040283529160200191611d23565b820191906000526020600020905b815481529060010190602001808311611d0657829003601f168201915b50505050509450838054611d369061245f565b80601f0160208091040260200160405190810160405280929190818152602001828054611d629061245f565b8015611daf5780601f10611d8457610100808354040283529160200191611daf565b820191906000526020600020905b815481529060010190602001808311611d9257829003601f168201915b50505050509350808054611dc29061245f565b80601f0160208091040260200160405190810160405280929190818152602001828054611dee9061245f565b8015611e3b5780601f10611e1057610100808354040283529160200191611e3b565b820191906000526020600020905b815481529060010190602001808311611e1e57829003601f168201915b50505050509050945094509450945094509091929394565b600081604051602001611e669190612bd8565b6040516020818303038152906040528051906020012083604051602001611e8d9190612bd8565b6040516020818303038152906040528051906020012014905092915050565b60405180606001604052806000815260200160608152602001606081525090565b600081519050919050565b600082825260208201905092915050565b60005b83811015611f07578082015181840152602081019050611eec565b60008484015250505050565b6000601f19601f8301169050919050565b6000611f2f82611ecd565b611f398185611ed8565b9350611f49818560208601611ee9565b611f5281611f13565b840191505092915050565b6000819050919050565b611f7081611f5d565b82525050565b60008115159050919050565b611f8b81611f76565b82525050565b600060a0820190508181036000830152611fab8188611f24565b90508181036020830152611fbf8187611f24565b9050611fce6040830186611f67565b611fdb6060830185611f82565b8181036080830152611fed8184611f24565b90509695505050505050565b600060208201905061200e6000830184611f82565b92915050565b6000604051905090565b600080fd5b600080fd5b600080fd5b600080fd5b7f4e487b7100000000000000000000000000000000000000000000000000000000600052604160045260246000fd5b61206a82611f13565b810181811067ffffffffffffffff8211171561208957612088612032565b5b80604052505050565b600061209c612014565b90506120a88282612061565b919050565b600067ffffffffffffffff8211156120c8576120c7612032565b5b6120d182611f13565b9050602081019050919050565b82818337600083830152505050565b60006121006120fb846120ad565b612092565b90508281526020810184848401111561211c5761211b61202d565b5b6121278482856120de565b509392505050565b600082601f83011261214457612143612028565b5b81356121548482602086016120ed565b91505092915050565b6000602082840312156121735761217261201e565b5b600082013567ffffffffffffffff81111561219157612190612023565b5b61219d8482850161212f565b91505092915050565b6121af81611f5d565b81146121ba57600080fd5b50565b6000813590506121cc816121a6565b92915050565b6000602082840312156121e8576121e761201e565b5b60006121f6848285016121bd565b91505092915050565b600073ffffffffffffffffffffffffffffffffffffffff82169050919050565b600061222a826121ff565b9050919050565b61223a8161221f565b82525050565b60006020820190506122556000830184612231565b92915050565b6122648161221f565b811461226f57600080fd5b50565b6000813590506122818161225b565b92915050565b6000806040838503121561229e5761229d61201e565b5b60006122ac85828601612272565b92505060206122bd858286016121bd565b9150509250929050565b60006060820190506122dc6000830186611f67565b81810360208301526122ee8185611f24565b905081810360408301526123028184611f24565b9050949350505050565b60006060820190506123216000830186611f67565b61232e6020830185611f67565b61233b6040830184611f67565b949350505050565b60006020820190506123586000830184611f67565b92915050565b61236781611f5d565b82525050565b600082825260208201905092915050565b600061238982611ecd565b612393818561236d565b93506123a3818560208601611ee9565b6123ac81611f13565b840191505092915050565b60006060830160008301516123cf600086018261235e565b50602083015184820360208601526123e7828261237e565b91505060408301518482036040860152612401828261237e565b9150508091505092915050565b6000602082019050818103600083015261242881846123b7565b905092915050565b7f4e487b7100000000000000000000000000000000000000000000000000000000600052602260045260246000fd5b6000600282049050600182168061247757607f821691505b60208210810361248a57612489612430565b5b50919050565b7f4f6e6c79206f776e65722063616e2063616c6c20746869732066756e6374696f60008201527f6e00000000000000000000000000000000000000000000000000000000000000602082015250565b60006124ec602183611ed8565b91506124f782612490565b604082019050919050565b6000602082019050818103600083015261251b816124df565b9050919050565b7f42657474696e6720697320636c6f736564000000000000000000000000000000600082015250565b6000612558601183611ed8565b915061256382612522565b602082019050919050565b600060208201905081810360008301526125878161254b565b9050919050565b7f496e76616c696420726573756c74000000000000000000000000000000000000600082015250565b60006125c4600e83611ed8565b91506125cf8261258e565b602082019050919050565b600060208201905081810360008301526125f3816125b7565b9050919050565b60008190508160005260206000209050919050565b60006020601f8301049050919050565b600082821b905092915050565b60006008830261265c7fffffffffffffffffffffffffffffffffffffffffffffffffffffffffffffffff8261261f565b612666868361261f565b95508019841693508086168417925050509392505050565b6000819050919050565b60006126a361269e61269984611f5d565b61267e565b611f5d565b9050919050565b6000819050919050565b6126bd83612688565b6126d16126c9826126aa565b84845461262c565b825550505050565b600090565b6126e66126d9565b6126f18184846126b4565b505050565b5b818110156127155761270a6000826126de565b6001810190506126f7565b5050565b601f82111561275a5761272b816125fa565b6127348461260f565b81016020851015612743578190505b61275761274f8561260f565b8301826126f6565b50505b505050565b600082821c905092915050565b600061277d6000198460080261275f565b1980831691505092915050565b6000612796838361276c565b9150826002028217905092915050565b6127af82611ecd565b67ffffffffffffffff8111156127c8576127c7612032565b5b6127d2825461245f565b6127dd828285612719565b600060209050601f83116001811461281057600084156127fe578287015190505b612808858261278a565b865550612870565b601f19841661281e866125fa565b60005b8281101561284657848901518255600182019150602085019450602081019050612821565b86831015612863578489015161285f601f89168261276c565b8355505b6001600288020188555050505b505050505050565b7f4e487b7100000000000000000000000000000000000000000000000000000000600052601160045260246000fd5b60006128b282611f5d565b91506128bd83611f5d565b92508282026128cb81611f5d565b915082820484148315176128e2576128e1612878565b5b5092915050565b7f4e487b7100000000000000000000000000000000000000000000000000000000600052601260045260246000fd5b600061292382611f5d565b915061292e83611f5d565b92508261293e5761293d6128e9565b5b828204905092915050565b600061295482611f5d565b915061295f83611f5d565b925082820390508181111561297757612976612878565b5b92915050565b7f4e487b7100000000000000000000000000000000000000000000000000000000600052603260045260246000fd5b60006129b782611f5d565b91506129c283611f5d565b92508282019050808211156129da576129d9612878565b5b92915050565b600060208201905081810360008301526129fa8184611f24565b905092915050565b7f42657420616d6f756e74206d7573742062652067726561746572207468616e2060008201527f3000000000000000000000000000000000000000000000000000000000000000602082015250565b6000612a5e602183611ed8565b9150612a6982612a02565b604082019050919050565b60006020820190508181036000830152612a8d81612a51565b9050919050565b7f496e76616c69642063686f696365000000000000000000000000000000000000600082015250565b6000612aca600e83611ed8565b9150612ad582612a94565b602082019050919050565b60006020820190508181036000830152612af981612abd565b9050919050565b7f4f6e6c79206f6e652062657420706572207573657220616c6c6f776564000000600082015250565b6000612b36601d83611ed8565b9150612b4182612b00565b602082019050919050565b60006020820190508181036000830152612b6581612b29565b9050919050565b6000604082019050612b816000830185611f67565b8181036020830152612b938184611f24565b90509392505050565b600081905092915050565b6000612bb282611ecd565b612bbc8185612b9c565b9350612bcc818560208601611ee9565b80840191505092915050565b6000612be48284612ba7565b91508190509291505056fea2646970667358221220ffa3363863df13c8c7ab426035e7dddc4db5c417b4d9668f2651b696528c722c64736f6c634300081c0033",
  "linkReferences": {},
  "deployedLinkReferences": {}
}