{
  "_format": "hh-sol-artifact-1",
  "contractName": "BetContract",
  "sourceName": "contracts/BetContract.sol",
  "abi": [
    {
      "inputs": [
        {
          "internalType": "uint256",
          "name": "_platformFeePercent",
          "type": "uint256"
        },
        {
          "internalType": "string",
          "name": "_team1",
          "type": "string"
        },
        {
          "internalType": "string",
          "name": "_team2",
          "type": "string"
        },
        {
          "internalType": "uint256",
          "name": "_matchDate",
          "type": "uint256"
        },
        {
          "internalType": "string",
          "name": "_owner",
          "type": "string"
        }
      ],
      "stateMutability": "nonpayable",
      "type": "constructor"
    },
    {
      "anonymous": false,
      "inputs": [
        {
          "indexed": true,
          "internalType": "address",
          "name": "better",
          "type": "address"
        },
        {
          "indexed": false,
          "internalType": "uint256",
          "name": "amount",
          "type": "uint256"
        },
        {
          "indexed": false,
          "internalType": "string",
          "name": "choice",
          "type": "string"
        }
      ],
      "name": "BetPlaced",
      "type": "event"
    },
    {
      "anonymous": false,
      "inputs": [
        {
          "indexed": false,
          "internalType": "string",
          "name": "result",
          "type": "string"
        }
      ],
      "name": "BetSettled",
      "type": "event"
    },
    {
      "anonymous": false,
      "inputs": [
        {
          "indexed": false,
          "internalType": "uint256",
          "name": "amount",
          "type": "uint256"
        }
      ],
      "name": "PlatformFeeCollected",
      "type": "event"
    },
    {
      "anonymous": false,
      "inputs": [
        {
          "indexed": true,
          "internalType": "address",
          "name": "better",
          "type": "address"
        },
        {
          "indexed": false,
          "internalType": "uint256",
          "name": "amount",
          "type": "uint256"
        }
      ],
      "name": "RewardDistributed",
      "type": "event"
    },
    {
      "inputs": [
        {
          "internalType": "address",
          "name": "",
          "type": "address"
        },
        {
          "internalType": "uint256",
          "name": "",
          "type": "uint256"
        }
      ],
      "name": "bets",
      "outputs": [
        {
          "internalType": "uint256",
          "name": "amount",
          "type": "uint256"
        },
        {
          "internalType": "string",
          "name": "choice",
          "type": "string"
        }
      ],
      "stateMutability": "view",
      "type": "function"
    },
    {
      "inputs": [
        {
          "internalType": "uint256",
          "name": "",
          "type": "uint256"
        }
      ],
      "name": "bettors",
      "outputs": [
        {
          "internalType": "address",
          "name": "",
          "type": "address"
        }
      ],
      "stateMutability": "view",
      "type": "function"
    },
    {
      "inputs": [],
      "name": "currentMatch",
      "outputs": [
        {
          "internalType": "string",
          "name": "team1",
          "type": "string"
        },
        {
          "internalType": "string",
          "name": "team2",
          "type": "string"
        },
        {
          "internalType": "uint256",
          "name": "matchDate",
          "type": "uint256"
        },
        {
          "internalType": "bool",
          "name": "isSettled",
          "type": "bool"
        },
        {
          "internalType": "string",
          "name": "result",
          "type": "string"
        },
        {
          "internalType": "string",
          "name": "owner",
          "type": "string"
        }
      ],
      "stateMutability": "view",
      "type": "function"
    },
    {
      "inputs": [],
      "name": "getMatchDetails",
      "outputs": [
        {
          "internalType": "string",
          "name": "",
          "type": "string"
        },
        {
          "internalType": "string",
          "name": "",
          "type": "string"
        },
        {
          "internalType": "uint256",
          "name": "",
          "type": "uint256"
        },
        {
          "internalType": "bool",
          "name": "",
          "type": "bool"
        },
        {
          "internalType": "string",
          "name": "",
          "type": "string"
        },
        {
          "internalType": "string",
          "name": "",
          "type": "string"
        }
      ],
      "stateMutability": "view",
      "type": "function"
    },
    {
      "inputs": [],
      "name": "getTotalBets",
      "outputs": [
        {
          "internalType": "uint256",
          "name": "",
          "type": "uint256"
        }
      ],
      "stateMutability": "view",
      "type": "function"
    },
    {
      "inputs": [],
      "name": "getTotalBetsByChoice",
      "outputs": [
        {
          "internalType": "uint256",
          "name": "totalTeam1",
          "type": "uint256"
        },
        {
          "internalType": "uint256",
          "name": "totalTeam2",
          "type": "uint256"
        },
        {
          "internalType": "uint256",
          "name": "totalDraw",
          "type": "uint256"
        }
      ],
      "stateMutability": "view",
      "type": "function"
    },
    {
      "inputs": [],
      "name": "isMatchSettled",
      "outputs": [
        {
          "internalType": "bool",
          "name": "",
          "type": "bool"
        }
      ],
      "stateMutability": "view",
      "type": "function"
    },
    {
      "inputs": [],
      "name": "owner",
      "outputs": [
        {
          "internalType": "address",
          "name": "",
          "type": "address"
        }
      ],
      "stateMutability": "view",
      "type": "function"
    },
    {
      "inputs": [
        {
          "internalType": "string",
          "name": "_choice",
          "type": "string"
        }
      ],
      "name": "placeBet",
      "outputs": [],
      "stateMutability": "payable",
      "type": "function"
    },
    {
      "inputs": [],
      "name": "platformFeePercent",
      "outputs": [
        {
          "internalType": "uint256",
          "name": "",
          "type": "uint256"
        }
      ],
      "stateMutability": "view",
      "type": "function"
    },
    {
      "inputs": [
        {
          "internalType": "string",
          "name": "_result",
          "type": "string"
        }
      ],
      "name": "settleBet",
      "outputs": [],
      "stateMutability": "nonpayable",
      "type": "function"
    }
  ],
  "bytecode": "0x608060405234801561001057600080fd5b50604051612f7b380380612f7b833981810160405281019061003291906102d2565b6064851115610076576040517f08c379a000000000000000000000000000000000000000000000000000000000815260040161006d90610424565b60405180910390fd5b846008819055508360008001908161008e919061065b565b5082600060010190816100a1919061065b565b508160006002018190555060008060030160006101000a81548160ff02191690831515021790555080600060050190816100db919061065b565b5033600960006101000a81548173ffffffffffffffffffffffffffffffffffffffff021916908373ffffffffffffffffffffffffffffffffffffffff160217905550505050505061072d565b6000604051905090565b600080fd5b600080fd5b6000819050919050565b61014e8161013b565b811461015957600080fd5b50565b60008151905061016b81610145565b92915050565b600080fd5b600080fd5b6000601f19601f8301169050919050565b7f4e487b7100000000000000000000000000000000000000000000000000000000600052604160045260246000fd5b6101c48261017b565b810181811067ffffffffffffffff821117156101e3576101e261018c565b5b80604052505050565b60006101f6610127565b905061020282826101bb565b919050565b600067ffffffffffffffff8211156102225761022161018c565b5b61022b8261017b565b9050602081019050919050565b60005b8381101561025657808201518184015260208101905061023b565b60008484015250505050565b600061027561027084610207565b6101ec565b90508281526020810184848401111561029157610290610176565b5b61029c848285610238565b509392505050565b600082601f8301126102b9576102b8610171565b5b81516102c9848260208601610262565b91505092915050565b600080600080600060a086880312156102ee576102ed610131565b5b60006102fc8882890161015c565b955050602086015167ffffffffffffffff81111561031d5761031c610136565b5b610329888289016102a4565b945050604086015167ffffffffffffffff81111561034a57610349610136565b5b610356888289016102a4565b93505060606103678882890161015c565b925050608086015167ffffffffffffffff81111561038857610387610136565b5b610394888289016102a4565b9150509295509295909350565b600082825260208201905092915050565b7f4665652070657263656e742063616e6e6f74206265206772656174657220746860008201527f616e203130300000000000000000000000000000000000000000000000000000602082015250565b600061040e6026836103a1565b9150610419826103b2565b604082019050919050565b6000602082019050818103600083015261043d81610401565b9050919050565b600081519050919050565b7f4e487b7100000000000000000000000000000000000000000000000000000000600052602260045260246000fd5b6000600282049050600182168061049657607f821691505b6020821081036104a9576104a861044f565b5b50919050565b60008190508160005260206000209050919050565b60006020601f8301049050919050565b600082821b905092915050565b6000600883026105117fffffffffffffffffffffffffffffffffffffffffffffffffffffffffffffffff826104d4565b61051b86836104d4565b95508019841693508086168417925050509392505050565b6000819050919050565b600061055861055361054e8461013b565b610533565b61013b565b9050919050565b6000819050919050565b6105728361053d565b61058661057e8261055f565b8484546104e1565b825550505050565b600090565b61059b61058e565b6105a6818484610569565b505050565b5b818110156105ca576105bf600082610593565b6001810190506105ac565b5050565b601f82111561060f576105e0816104af565b6105e9846104c4565b810160208510156105f8578190505b61060c610604856104c4565b8301826105ab565b50505b505050565b600082821c905092915050565b600061063260001984600802610614565b1980831691505092915050565b600061064b8383610621565b9150826002028217905092915050565b61066482610444565b67ffffffffffffffff81111561067d5761067c61018c565b5b610687825461047e565b6106928282856105ce565b600060209050601f8311600181146106c557600084156106b3578287015190505b6106bd858261063f565b865550610725565b601f1984166106d3866104af565b60005b828110156106fb578489015182556001820191506020850194506020810190506106d6565b868310156107185784890151610714601f891682610621565b8355505b6001600288020188555050505b505050505050565b61283f8061073c6000396000f3fe60806040526004361061009c5760003560e01c806372e4d5071161006457806372e4d507146101a05780638c639a85146101cd5780638da5cb5b146101f857806397bfeb8814610223578063a3cb679d1461023f578063d9229a3a1461026a5761009c565b80632c70444e146100a15780632eb190aa146100d157806332b19c65146100fc5780633482b644146101255780634a39ec9014610162575b600080fd5b3480156100ad57600080fd5b506100b661029a565b6040516100c896959493929190611d19565b60405180910390f35b3480156100dd57600080fd5b506100e66104f1565b6040516100f39190611d96565b60405180910390f35b34801561010857600080fd5b50610123600480360381019061011e9190611efa565b61050a565b005b34801561013157600080fd5b5061014c60048036038101906101479190611f6f565b610df6565b6040516101599190611fdd565b60405180910390f35b34801561016e57600080fd5b5061018960048036038101906101849190612024565b610e35565b604051610197929190612064565b60405180910390f35b3480156101ac57600080fd5b506101b5610efe565b6040516101c493929190612094565b60405180910390f35b3480156101d957600080fd5b506101e261155e565b6040516101ef91906120cb565b60405180910390f35b34801561020457600080fd5b5061020d611564565b60405161021a9190611fdd565b60405180910390f35b61023d60048036038101906102389190611efa565b61158a565b005b34801561024b57600080fd5b5061025461197b565b60405161026191906120cb565b60405180910390f35b34801561027657600080fd5b5061027f611983565b60405161029196959493929190611d19565b60405180910390f35b60008060000180546102ab90612115565b80601f01602080910402602001604051908101604052809291908181526020018280546102d790612115565b80156103245780601f106102f957610100808354040283529160200191610324565b820191906000526020600020905b81548152906001019060200180831161030757829003601f168201915b50505050509080600101805461033990612115565b80601f016020809104026020016040519081016040528092919081815260200182805461036590612115565b80156103b25780601f10610387576101008083540402835291602001916103b2565b820191906000526020600020905b81548152906001019060200180831161039557829003601f168201915b5050505050908060020154908060030160009054906101000a900460ff16908060040180546103e090612115565b80601f016020809104026020016040519081016040528092919081815260200182805461040c90612115565b80156104595780601f1061042e57610100808354040283529160200191610459565b820191906000526020600020905b81548152906001019060200180831161043c57829003601f168201915b50505050509080600501805461046e90612115565b80601f016020809104026020016040519081016040528092919081815260200182805461049a90612115565b80156104e75780601f106104bc576101008083540402835291602001916104e7565b820191906000526020600020905b8154815290600101906020018083116104ca57829003601f168201915b5050505050905086565b60008060030160009054906101000a900460ff16905090565b600960009054906101000a900473ffffffffffffffffffffffffffffffffffffffff1673ffffffffffffffffffffffffffffffffffffffff163373ffffffffffffffffffffffffffffffffffffffff161461059a576040517f08c379a0000000000000000000000000000000000000000000000000000000008152600401610591906121b8565b60405180910390fd5b600060030160009054906101000a900460ff16156105ed576040517f08c379a00000000000000000000000000000000000000000000000000000000081526004016105e490612224565b60405180910390fd5b806106848160008001805461060190612115565b80601f016020809104026020016040519081016040528092919081815260200182805461062d90612115565b801561067a5780601f1061064f5761010080835404028352916020019161067a565b820191906000526020600020905b81548152906001019060200180831161065d57829003601f168201915b5050505050611bfc565b806107225750610721816000600101805461069e90612115565b80601f01602080910402602001604051908101604052809291908181526020018280546106ca90612115565b80156107175780601f106106ec57610100808354040283529160200191610717565b820191906000526020600020905b8154815290600101906020018083116106fa57829003601f168201915b5050505050611bfc565b5b806107685750610767816040518060400160405280600481526020017f4472617700000000000000000000000000000000000000000000000000000000815250611bfc565b5b6107a7576040517f08c379a000000000000000000000000000000000000000000000000000000000815260040161079e90612290565b60405180910390fd5b6001600060030160006101000a81548160ff02191690831515021790555081600060040190816107d7919061245c565b50600047905060006064600854836107ef919061255d565b6107f991906125ce565b90506000818361080991906125ff565b9050600960009054906101000a900473ffffffffffffffffffffffffffffffffffffffff1673ffffffffffffffffffffffffffffffffffffffff166108fc839081150290604051600060405180830381858888f19350505050158015610873573d6000803e3d6000fd5b507f1e78db4c4ee9ca4946fb3ee60599d1e0258a8b22e183510241ff770ab6332baf826040516108a391906120cb565b60405180910390a16000805b600780549050811015610ad2576000600782815481106108d2576108d1612633565b5b9060005260206000200160009054906101000a900473ffffffffffffffffffffffffffffffffffffffff16905060005b600660008373ffffffffffffffffffffffffffffffffffffffff1673ffffffffffffffffffffffffffffffffffffffff16815260200190815260200160002080549050811015610ac357610a40600660008473ffffffffffffffffffffffffffffffffffffffff1673ffffffffffffffffffffffffffffffffffffffff16815260200190815260200160002082815481106109a05761099f612633565b5b906000526020600020906002020160010180546109bc90612115565b80601f01602080910402602001604051908101604052809291908181526020018280546109e890612115565b8015610a355780601f10610a0a57610100808354040283529160200191610a35565b820191906000526020600020905b815481529060010190602001808311610a1857829003601f168201915b50505050508a611bfc565b15610ab657600660008373ffffffffffffffffffffffffffffffffffffffff1673ffffffffffffffffffffffffffffffffffffffff1681526020019081526020016000208181548110610a9657610a95612633565b5b90600052602060002090600202016000015484610ab39190612662565b93505b8080600101915050610902565b505080806001019150506108af565b5060005b600780549050811015610db657600060078281548110610af957610af8612633565b5b9060005260206000200160009054906101000a900473ffffffffffffffffffffffffffffffffffffffff1690506000805b600660008473ffffffffffffffffffffffffffffffffffffffff1673ffffffffffffffffffffffffffffffffffffffff16815260200190815260200160002080549050811015610d0757610c68600660008573ffffffffffffffffffffffffffffffffffffffff1673ffffffffffffffffffffffffffffffffffffffff1681526020019081526020016000208281548110610bc857610bc7612633565b5b90600052602060002090600202016001018054610be490612115565b80601f0160208091040260200160405190810160405280929190818152602001828054610c1090612115565b8015610c5d5780601f10610c3257610100808354040283529160200191610c5d565b820191906000526020600020905b815481529060010190602001808311610c4057829003601f168201915b50505050508b611bfc565b15610cfa5760008587600660008773ffffffffffffffffffffffffffffffffffffffff1673ffffffffffffffffffffffffffffffffffffffff1681526020019081526020016000208481548110610cc257610cc1612633565b5b906000526020600020906002020160000154610cde919061255d565b610ce891906125ce565b90508083610cf69190612662565b9250505b8080600101915050610b2a565b506000811115610da7578173ffffffffffffffffffffffffffffffffffffffff166108fc829081150290604051600060405180830381858888f19350505050158015610d57573d6000803e3d6000fd5b508173ffffffffffffffffffffffffffffffffffffffff167fe34918ff1c7084970068b53fd71ad6d8b04e9f15d3886cbf006443e6cdc52ea682604051610d9e91906120cb565b60405180910390a25b50508080600101915050610ad6565b507f3ea7a0e97590231292a074b5b57cd3b715bff76a55a6125d03dc864e55909ba986604051610de69190612696565b60405180910390a1505050505050565b60078181548110610e0657600080fd5b906000526020600020016000915054906101000a900473ffffffffffffffffffffffffffffffffffffffff1681565b60066020528160005260406000208181548110610e5157600080fd5b906000526020600020906002020160009150915050806000015490806001018054610e7b90612115565b80601f0160208091040260200160405190810160405280929190818152602001828054610ea790612115565b8015610ef45780601f10610ec957610100808354040283529160200191610ef4565b820191906000526020600020905b815481529060010190602001808311610ed757829003601f168201915b5050505050905082565b600080600080600090505b60078054905081101561155857600060078281548110610f2c57610f2b612633565b5b9060005260206000200160009054906101000a900473ffffffffffffffffffffffffffffffffffffffff16905060005b600660008373ffffffffffffffffffffffffffffffffffffffff1673ffffffffffffffffffffffffffffffffffffffff1681526020019081526020016000208054905081101561154957611126600660008473ffffffffffffffffffffffffffffffffffffffff1673ffffffffffffffffffffffffffffffffffffffff1681526020019081526020016000208281548110610ffa57610ff9612633565b5b9060005260206000209060020201600101805461101690612115565b80601f016020809104026020016040519081016040528092919081815260200182805461104290612115565b801561108f5780601f106110645761010080835404028352916020019161108f565b820191906000526020600020905b81548152906001019060200180831161107257829003601f168201915b50505050506000800180546110a390612115565b80601f01602080910402602001604051908101604052809291908181526020018280546110cf90612115565b801561111c5780601f106110f15761010080835404028352916020019161111c565b820191906000526020600020905b8154815290600101906020018083116110ff57829003601f168201915b5050505050611bfc565b156111a057600660008373ffffffffffffffffffffffffffffffffffffffff1673ffffffffffffffffffffffffffffffffffffffff168152602001908152602001600020818154811061117c5761117b612633565b5b906000526020600020906002020160000154866111999190612662565b955061153c565b611321600660008473ffffffffffffffffffffffffffffffffffffffff1673ffffffffffffffffffffffffffffffffffffffff16815260200190815260200160002082815481106111f4576111f3612633565b5b9060005260206000209060020201600101805461121090612115565b80601f016020809104026020016040519081016040528092919081815260200182805461123c90612115565b80156112895780601f1061125e57610100808354040283529160200191611289565b820191906000526020600020905b81548152906001019060200180831161126c57829003601f168201915b50505050506000600101805461129e90612115565b80601f01602080910402602001604051908101604052809291908181526020018280546112ca90612115565b80156113175780601f106112ec57610100808354040283529160200191611317565b820191906000526020600020905b8154815290600101906020018083116112fa57829003601f168201915b5050505050611bfc565b1561139b57600660008373ffffffffffffffffffffffffffffffffffffffff1673ffffffffffffffffffffffffffffffffffffffff168152602001908152602001600020818154811061137757611376612633565b5b906000526020600020906002020160000154856113949190612662565b945061153b565b6114c4600660008473ffffffffffffffffffffffffffffffffffffffff1673ffffffffffffffffffffffffffffffffffffffff16815260200190815260200160002082815481106113ef576113ee612633565b5b9060005260206000209060020201600101805461140b90612115565b80601f016020809104026020016040519081016040528092919081815260200182805461143790612115565b80156114845780601f1061145957610100808354040283529160200191611484565b820191906000526020600020905b81548152906001019060200180831161146757829003601f168201915b50505050506040518060400160405280600481526020017f4472617700000000000000000000000000000000000000000000000000000000815250611bfc565b1561153a57600660008373ffffffffffffffffffffffffffffffffffffffff1673ffffffffffffffffffffffffffffffffffffffff168152602001908152602001600020818154811061151a57611519612633565b5b906000526020600020906002020160000154846115379190612662565b93505b5b5b8080600101915050610f5c565b50508080600101915050610f09565b50909192565b60085481565b600960009054906101000a900473ffffffffffffffffffffffffffffffffffffffff1681565b600060030160009054906101000a900460ff16156115dd576040517f08c379a00000000000000000000000000000000000000000000000000000000081526004016115d490612224565b60405180910390fd5b60003411611620576040517f08c379a00000000000000000000000000000000000000000000000000000000081526004016116179061272a565b60405180910390fd5b806116b78160008001805461163490612115565b80601f016020809104026020016040519081016040528092919081815260200182805461166090612115565b80156116ad5780601f10611682576101008083540402835291602001916116ad565b820191906000526020600020905b81548152906001019060200180831161169057829003601f168201915b5050505050611bfc565b80611755575061175481600060010180546116d190612115565b80601f01602080910402602001604051908101604052809291908181526020018280546116fd90612115565b801561174a5780601f1061171f5761010080835404028352916020019161174a565b820191906000526020600020905b81548152906001019060200180831161172d57829003601f168201915b5050505050611bfc565b5b8061179b575061179a816040518060400160405280600481526020017f4472617700000000000000000000000000000000000000000000000000000000815250611bfc565b5b6117da576040517f08c379a00000000000000000000000000000000000000000000000000000000081526004016117d190612796565b60405180910390fd5b600660003373ffffffffffffffffffffffffffffffffffffffff1673ffffffffffffffffffffffffffffffffffffffff1681526020019081526020016000206040518060400160405280348152602001848152509080600181540180825580915050600190039060005260206000209060020201600090919091909150600082015181600001556020820151816001019081611876919061245c565b5050506001600660003373ffffffffffffffffffffffffffffffffffffffff1673ffffffffffffffffffffffffffffffffffffffff1681526020019081526020016000208054905003611927576007339080600181540180825580915050600190039060005260206000200160009091909190916101000a81548173ffffffffffffffffffffffffffffffffffffffff021916908373ffffffffffffffffffffffffffffffffffffffff1602179055505b3373ffffffffffffffffffffffffffffffffffffffff167ff14919ff92658c8b721faa944957b48dedaee13316a12a2635add911929e9170348460405161196f929190612064565b60405180910390a25050565b600047905090565b606080600080606080600080016000600101600060020154600060030160009054906101000a900460ff16600060040160006005018580546119c490612115565b80601f01602080910402602001604051908101604052809291908181526020018280546119f090612115565b8015611a3d5780601f10611a1257610100808354040283529160200191611a3d565b820191906000526020600020905b815481529060010190602001808311611a2057829003601f168201915b50505050509550848054611a5090612115565b80601f0160208091040260200160405190810160405280929190818152602001828054611a7c90612115565b8015611ac95780601f10611a9e57610100808354040283529160200191611ac9565b820191906000526020600020905b815481529060010190602001808311611aac57829003601f168201915b50505050509450818054611adc90612115565b80601f0160208091040260200160405190810160405280929190818152602001828054611b0890612115565b8015611b555780601f10611b2a57610100808354040283529160200191611b55565b820191906000526020600020905b815481529060010190602001808311611b3857829003601f168201915b50505050509150808054611b6890612115565b80601f0160208091040260200160405190810160405280929190818152602001828054611b9490612115565b8015611be15780601f10611bb657610100808354040283529160200191611be1565b820191906000526020600020905b815481529060010190602001808311611bc457829003601f168201915b50505050509050955095509550955095509550909192939495565b600081604051602001611c0f91906127f2565b6040516020818303038152906040528051906020012083604051602001611c3691906127f2565b6040516020818303038152906040528051906020012014905092915050565b600081519050919050565b600082825260208201905092915050565b60005b83811015611c8f578082015181840152602081019050611c74565b60008484015250505050565b6000601f19601f8301169050919050565b6000611cb782611c55565b611cc18185611c60565b9350611cd1818560208601611c71565b611cda81611c9b565b840191505092915050565b6000819050919050565b611cf881611ce5565b82525050565b60008115159050919050565b611d1381611cfe565b82525050565b600060c0820190508181036000830152611d338189611cac565b90508181036020830152611d478188611cac565b9050611d566040830187611cef565b611d636060830186611d0a565b8181036080830152611d758185611cac565b905081810360a0830152611d898184611cac565b9050979650505050505050565b6000602082019050611dab6000830184611d0a565b92915050565b6000604051905090565b600080fd5b600080fd5b600080fd5b600080fd5b7f4e487b7100000000000000000000000000000000000000000000000000000000600052604160045260246000fd5b611e0782611c9b565b810181811067ffffffffffffffff82111715611e2657611e25611dcf565b5b80604052505050565b6000611e39611db1565b9050611e458282611dfe565b919050565b600067ffffffffffffffff821115611e6557611e64611dcf565b5b611e6e82611c9b565b9050602081019050919050565b82818337600083830152505050565b6000611e9d611e9884611e4a565b611e2f565b905082815260208101848484011115611eb957611eb8611dca565b5b611ec4848285611e7b565b509392505050565b600082601f830112611ee157611ee0611dc5565b5b8135611ef1848260208601611e8a565b91505092915050565b600060208284031215611f1057611f0f611dbb565b5b600082013567ffffffffffffffff811115611f2e57611f2d611dc0565b5b611f3a84828501611ecc565b91505092915050565b611f4c81611ce5565b8114611f5757600080fd5b50565b600081359050611f6981611f43565b92915050565b600060208284031215611f8557611f84611dbb565b5b6000611f9384828501611f5a565b91505092915050565b600073ffffffffffffffffffffffffffffffffffffffff82169050919050565b6000611fc782611f9c565b9050919050565b611fd781611fbc565b82525050565b6000602082019050611ff26000830184611fce565b92915050565b61200181611fbc565b811461200c57600080fd5b50565b60008135905061201e81611ff8565b92915050565b6000806040838503121561203b5761203a611dbb565b5b60006120498582860161200f565b925050602061205a85828601611f5a565b9150509250929050565b60006040820190506120796000830185611cef565b818103602083015261208b8184611cac565b90509392505050565b60006060820190506120a96000830186611cef565b6120b66020830185611cef565b6120c36040830184611cef565b949350505050565b60006020820190506120e06000830184611cef565b92915050565b7f4e487b7100000000000000000000000000000000000000000000000000000000600052602260045260246000fd5b6000600282049050600182168061212d57607f821691505b6020821081036121405761213f6120e6565b5b50919050565b7f4f6e6c79206f776e65722063616e2063616c6c20746869732066756e6374696f60008201527f6e00000000000000000000000000000000000000000000000000000000000000602082015250565b60006121a2602183611c60565b91506121ad82612146565b604082019050919050565b600060208201905081810360008301526121d181612195565b9050919050565b7f42657474696e6720697320636c6f736564000000000000000000000000000000600082015250565b600061220e601183611c60565b9150612219826121d8565b602082019050919050565b6000602082019050818103600083015261223d81612201565b9050919050565b7f496e76616c696420726573756c74000000000000000000000000000000000000600082015250565b600061227a600e83611c60565b915061228582612244565b602082019050919050565b600060208201905081810360008301526122a98161226d565b9050919050565b60008190508160005260206000209050919050565b60006020601f8301049050919050565b600082821b905092915050565b6000600883026123127fffffffffffffffffffffffffffffffffffffffffffffffffffffffffffffffff826122d5565b61231c86836122d5565b95508019841693508086168417925050509392505050565b6000819050919050565b600061235961235461234f84611ce5565b612334565b611ce5565b9050919050565b6000819050919050565b6123738361233e565b61238761237f82612360565b8484546122e2565b825550505050565b600090565b61239c61238f565b6123a781848461236a565b505050565b5b818110156123cb576123c0600082612394565b6001810190506123ad565b5050565b601f821115612410576123e1816122b0565b6123ea846122c5565b810160208510156123f9578190505b61240d612405856122c5565b8301826123ac565b50505b505050565b600082821c905092915050565b600061243360001984600802612415565b1980831691505092915050565b600061244c8383612422565b9150826002028217905092915050565b61246582611c55565b67ffffffffffffffff81111561247e5761247d611dcf565b5b6124888254612115565b6124938282856123cf565b600060209050601f8311600181146124c657600084156124b4578287015190505b6124be8582612440565b865550612526565b601f1984166124d4866122b0565b60005b828110156124fc578489015182556001820191506020850194506020810190506124d7565b868310156125195784890151612515601f891682612422565b8355505b6001600288020188555050505b505050505050565b7f4e487b7100000000000000000000000000000000000000000000000000000000600052601160045260246000fd5b600061256882611ce5565b915061257383611ce5565b925082820261258181611ce5565b915082820484148315176125985761259761252e565b5b5092915050565b7f4e487b7100000000000000000000000000000000000000000000000000000000600052601260045260246000fd5b60006125d982611ce5565b91506125e483611ce5565b9250826125f4576125f361259f565b5b828204905092915050565b600061260a82611ce5565b915061261583611ce5565b925082820390508181111561262d5761262c61252e565b5b92915050565b7f4e487b7100000000000000000000000000000000000000000000000000000000600052603260045260246000fd5b600061266d82611ce5565b915061267883611ce5565b92508282019050808211156126905761268f61252e565b5b92915050565b600060208201905081810360008301526126b08184611cac565b905092915050565b7f42657420616d6f756e74206d7573742062652067726561746572207468616e2060008201527f3000000000000000000000000000000000000000000000000000000000000000602082015250565b6000612714602183611c60565b915061271f826126b8565b604082019050919050565b6000602082019050818103600083015261274381612707565b9050919050565b7f496e76616c69642063686f696365000000000000000000000000000000000000600082015250565b6000612780600e83611c60565b915061278b8261274a565b602082019050919050565b600060208201905081810360008301526127af81612773565b9050919050565b600081905092915050565b60006127cc82611c55565b6127d681856127b6565b93506127e6818560208601611c71565b80840191505092915050565b60006127fe82846127c1565b91508190509291505056fea2646970667358221220e1a03c41019dd13c976689cc536c5517a748757dd11f37f3957dc4f9d59f4c8964736f6c634300081c0033",
  "linkReferences": {},
  "deployedLinkReferences": {}
}