{
    "_format": "hh-sol-artifact-1",
    "contractName": "BetContract",
    "sourceName": "contracts/BetContract.sol",
    "abi": [
        {
            "inputs": [
                {
                    "internalType": "uint256",
                    "name": "_platformFeePercent",
                    "type": "uint256"
                },
                {
                    "internalType": "string",
                    "name": "_team1",
                    "type": "string"
                },
                {
                    "internalType": "string",
                    "name": "_team2",
                    "type": "string"
                },
                {
                    "internalType": "uint256",
                    "name": "_matchDate",
                    "type": "uint256"
                }
            ],
            "stateMutability": "nonpayable",
            "type": "constructor"
        },
        {
            "anonymous": false,
            "inputs": [
                {
                    "indexed": true,
                    "internalType": "address",
                    "name": "better",
                    "type": "address"
                },
                {
                    "indexed": false,
                    "internalType": "uint256",
                    "name": "amount",
                    "type": "uint256"
                },
                {
                    "indexed": false,
                    "internalType": "string",
                    "name": "choice",
                    "type": "string"
                }
            ],
            "name": "BetPlaced",
            "type": "event"
        },
        {
            "anonymous": false,
            "inputs": [
                {
                    "indexed": false,
                    "internalType": "string",
                    "name": "result",
                    "type": "string"
                }
            ],
            "name": "BetSettled",
            "type": "event"
        },
        {
            "anonymous": false,
            "inputs": [
                {
                    "indexed": false,
                    "internalType": "uint256",
                    "name": "amount",
                    "type": "uint256"
                }
            ],
            "name": "PlatformFeeCollected",
            "type": "event"
        },
        {
            "anonymous": false,
            "inputs": [
                {
                    "indexed": true,
                    "internalType": "address",
                    "name": "better",
                    "type": "address"
                },
                {
                    "indexed": false,
                    "internalType": "uint256",
                    "name": "amount",
                    "type": "uint256"
                }
            ],
            "name": "RewardDistributed",
            "type": "event"
        },
        {
            "inputs": [
                {
                    "internalType": "address",
                    "name": "",
                    "type": "address"
                },
                {
                    "internalType": "uint256",
                    "name": "",
                    "type": "uint256"
                }
            ],
            "name": "bets",
            "outputs": [
                {
                    "internalType": "uint256",
                    "name": "amount",
                    "type": "uint256"
                },
                {
                    "internalType": "string",
                    "name": "choice",
                    "type": "string"
                }
            ],
            "stateMutability": "view",
            "type": "function"
        },
        {
            "inputs": [
                {
                    "internalType": "uint256",
                    "name": "",
                    "type": "uint256"
                }
            ],
            "name": "bettors",
            "outputs": [
                {
                    "internalType": "address",
                    "name": "",
                    "type": "address"
                }
            ],
            "stateMutability": "view",
            "type": "function"
        },
        {
            "inputs": [],
            "name": "currentMatch",
            "outputs": [
                {
                    "internalType": "string",
                    "name": "team1",
                    "type": "string"
                },
                {
                    "internalType": "string",
                    "name": "team2",
                    "type": "string"
                },
                {
                    "internalType": "uint256",
                    "name": "matchDate",
                    "type": "uint256"
                },
                {
                    "internalType": "bool",
                    "name": "isSettled",
                    "type": "bool"
                },
                {
                    "internalType": "string",
                    "name": "result",
                    "type": "string"
                }
            ],
            "stateMutability": "view",
            "type": "function"
        },
        {
            "inputs": [],
            "name": "getTotalBets",
            "outputs": [
                {
                    "internalType": "uint256",
                    "name": "",
                    "type": "uint256"
                }
            ],
            "stateMutability": "view",
            "type": "function"
        },
        {
            "inputs": [],
            "name": "getTotalBetsByChoice",
            "outputs": [
                {
                    "internalType": "uint256",
                    "name": "totalTeam1",
                    "type": "uint256"
                },
                {
                    "internalType": "uint256",
                    "name": "totalTeam2",
                    "type": "uint256"
                },
                {
                    "internalType": "uint256",
                    "name": "totalDraw",
                    "type": "uint256"
                }
            ],
            "stateMutability": "view",
            "type": "function"
        },
        {
            "inputs": [],
            "name": "isMatchSettled",
            "outputs": [
                {
                    "internalType": "bool",
                    "name": "",
                    "type": "bool"
                }
            ],
            "stateMutability": "view",
            "type": "function"
        },
        {
            "inputs": [],
            "name": "owner",
            "outputs": [
                {
                    "internalType": "address",
                    "name": "",
                    "type": "address"
                }
            ],
            "stateMutability": "view",
            "type": "function"
        },
        {
            "inputs": [
                {
                    "internalType": "string",
                    "name": "_choice",
                    "type": "string"
                }
            ],
            "name": "placeBet",
            "outputs": [],
            "stateMutability": "payable",
            "type": "function"
        },
        {
            "inputs": [],
            "name": "platformFeePercent",
            "outputs": [
                {
                    "internalType": "uint256",
                    "name": "",
                    "type": "uint256"
                }
            ],
            "stateMutability": "view",
            "type": "function"
        },
        {
            "inputs": [
                {
                    "internalType": "string",
                    "name": "_result",
                    "type": "string"
                }
            ],
            "name": "settleBet",
            "outputs": [],
            "stateMutability": "nonpayable",
            "type": "function"
        }
    ],
    "bytecode": "0x608060405234801561001057600080fd5b50604051612bdf380380612bdf833981810160405281019061003291906102be565b6064841115610076576040517f08c379a000000000000000000000000000000000000000000000000000000000815260040161006d906103e0565b60405180910390fd5b836007819055508260008001908161008e9190610617565b5081600060010190816100a19190610617565b508060006002018190555060008060030160006101000a81548160ff02191690831515021790555033600860006101000a81548173ffffffffffffffffffffffffffffffffffffffff021916908373ffffffffffffffffffffffffffffffffffffffff160217905550505050506106e9565b6000604051905090565b600080fd5b600080fd5b6000819050919050565b61013a81610127565b811461014557600080fd5b50565b60008151905061015781610131565b92915050565b600080fd5b600080fd5b6000601f19601f8301169050919050565b7f4e487b7100000000000000000000000000000000000000000000000000000000600052604160045260246000fd5b6101b082610167565b810181811067ffffffffffffffff821117156101cf576101ce610178565b5b80604052505050565b60006101e2610113565b90506101ee82826101a7565b919050565b600067ffffffffffffffff82111561020e5761020d610178565b5b61021782610167565b9050602081019050919050565b60005b83811015610242578082015181840152602081019050610227565b60008484015250505050565b600061026161025c846101f3565b6101d8565b90508281526020810184848401111561027d5761027c610162565b5b610288848285610224565b509392505050565b600082601f8301126102a5576102a461015d565b5b81516102b584826020860161024e565b91505092915050565b600080600080608085870312156102d8576102d761011d565b5b60006102e687828801610148565b945050602085015167ffffffffffffffff81111561030757610306610122565b5b61031387828801610290565b935050604085015167ffffffffffffffff81111561033457610333610122565b5b61034087828801610290565b925050606061035187828801610148565b91505092959194509250565b600082825260208201905092915050565b7f4665652070657263656e742063616e6e6f74206265206772656174657220746860008201527f616e203130300000000000000000000000000000000000000000000000000000602082015250565b60006103ca60268361035d565b91506103d58261036e565b604082019050919050565b600060208201905081810360008301526103f9816103bd565b9050919050565b600081519050919050565b7f4e487b7100000000000000000000000000000000000000000000000000000000600052602260045260246000fd5b6000600282049050600182168061045257607f821691505b6020821081036104655761046461040b565b5b50919050565b60008190508160005260206000209050919050565b60006020601f8301049050919050565b600082821b905092915050565b6000600883026104cd7fffffffffffffffffffffffffffffffffffffffffffffffffffffffffffffffff82610490565b6104d78683610490565b95508019841693508086168417925050509392505050565b6000819050919050565b600061051461050f61050a84610127565b6104ef565b610127565b9050919050565b6000819050919050565b61052e836104f9565b61054261053a8261051b565b84845461049d565b825550505050565b600090565b61055761054a565b610562818484610525565b505050565b5b818110156105865761057b60008261054f565b600181019050610568565b5050565b601f8211156105cb5761059c8161046b565b6105a584610480565b810160208510156105b4578190505b6105c86105c085610480565b830182610567565b50505b505050565b600082821c905092915050565b60006105ee600019846008026105d0565b1980831691505092915050565b600061060783836105dd565b9150826002028217905092915050565b61062082610400565b67ffffffffffffffff81111561063957610638610178565b5b610643825461043a565b61064e82828561058a565b600060209050601f831160018114610681576000841561066f578287015190505b61067985826105fb565b8655506106e1565b601f19841661068f8661046b565b60005b828110156106b757848901518255600182019150602085019450602081019050610692565b868310156106d457848901516106d0601f8916826105dd565b8355505b6001600288020188555050505b505050505050565b6124e7806106f86000396000f3fe6080604052600436106100915760003560e01c806372e4d5071161005957806372e4d507146101945780638c639a85146101c15780638da5cb5b146101ec57806397bfeb8814610217578063a3cb679d1461023357610091565b80632c70444e146100965780632eb190aa146100c557806332b19c65146100f05780633482b644146101195780634a39ec9014610156575b600080fd5b3480156100a257600080fd5b506100ab61025e565b6040516100bc9594939291906119d6565b60405180910390f35b3480156100d157600080fd5b506100da610427565b6040516100e79190611a3e565b60405180910390f35b3480156100fc57600080fd5b5061011760048036038101906101129190611ba2565b610440565b005b34801561012557600080fd5b50610140600480360381019061013b9190611c17565b610d2c565b60405161014d9190611c85565b60405180910390f35b34801561016257600080fd5b5061017d60048036038101906101789190611ccc565b610d6b565b60405161018b929190611d0c565b60405180910390f35b3480156101a057600080fd5b506101a9610e34565b6040516101b893929190611d3c565b60405180910390f35b3480156101cd57600080fd5b506101d6611494565b6040516101e39190611d73565b60405180910390f35b3480156101f857600080fd5b5061020161149a565b60405161020e9190611c85565b60405180910390f35b610231600480360381019061022c9190611ba2565b6114c0565b005b34801561023f57600080fd5b506102486118b1565b6040516102559190611d73565b60405180910390f35b600080600001805461026f90611dbd565b80601f016020809104026020016040519081016040528092919081815260200182805461029b90611dbd565b80156102e85780601f106102bd576101008083540402835291602001916102e8565b820191906000526020600020905b8154815290600101906020018083116102cb57829003601f168201915b5050505050908060010180546102fd90611dbd565b80601f016020809104026020016040519081016040528092919081815260200182805461032990611dbd565b80156103765780601f1061034b57610100808354040283529160200191610376565b820191906000526020600020905b81548152906001019060200180831161035957829003601f168201915b5050505050908060020154908060030160009054906101000a900460ff16908060040180546103a490611dbd565b80601f01602080910402602001604051908101604052809291908181526020018280546103d090611dbd565b801561041d5780601f106103f25761010080835404028352916020019161041d565b820191906000526020600020905b81548152906001019060200180831161040057829003601f168201915b5050505050905085565b60008060030160009054906101000a900460ff16905090565b600860009054906101000a900473ffffffffffffffffffffffffffffffffffffffff1673ffffffffffffffffffffffffffffffffffffffff163373ffffffffffffffffffffffffffffffffffffffff16146104d0576040517f08c379a00000000000000000000000000000000000000000000000000000000081526004016104c790611e60565b60405180910390fd5b600060030160009054906101000a900460ff1615610523576040517f08c379a000000000000000000000000000000000000000000000000000000000815260040161051a90611ecc565b60405180910390fd5b806105ba8160008001805461053790611dbd565b80601f016020809104026020016040519081016040528092919081815260200182805461056390611dbd565b80156105b05780601f10610585576101008083540402835291602001916105b0565b820191906000526020600020905b81548152906001019060200180831161059357829003601f168201915b50505050506118b9565b80610658575061065781600060010180546105d490611dbd565b80601f016020809104026020016040519081016040528092919081815260200182805461060090611dbd565b801561064d5780601f106106225761010080835404028352916020019161064d565b820191906000526020600020905b81548152906001019060200180831161063057829003601f168201915b50505050506118b9565b5b8061069e575061069d816040518060400160405280600481526020017f44726177000000000000000000000000000000000000000000000000000000008152506118b9565b5b6106dd576040517f08c379a00000000000000000000000000000000000000000000000000000000081526004016106d490611f38565b60405180910390fd5b6001600060030160006101000a81548160ff021916908315150217905550816000600401908161070d9190612104565b50600047905060006064600754836107259190612205565b61072f9190612276565b90506000818361073f91906122a7565b9050600860009054906101000a900473ffffffffffffffffffffffffffffffffffffffff1673ffffffffffffffffffffffffffffffffffffffff166108fc839081150290604051600060405180830381858888f193505050501580156107a9573d6000803e3d6000fd5b507f1e78db4c4ee9ca4946fb3ee60599d1e0258a8b22e183510241ff770ab6332baf826040516107d99190611d73565b60405180910390a16000805b600680549050811015610a0857600060068281548110610808576108076122db565b5b9060005260206000200160009054906101000a900473ffffffffffffffffffffffffffffffffffffffff16905060005b600560008373ffffffffffffffffffffffffffffffffffffffff1673ffffffffffffffffffffffffffffffffffffffff168152602001908152602001600020805490508110156109f957610976600560008473ffffffffffffffffffffffffffffffffffffffff1673ffffffffffffffffffffffffffffffffffffffff16815260200190815260200160002082815481106108d6576108d56122db565b5b906000526020600020906002020160010180546108f290611dbd565b80601f016020809104026020016040519081016040528092919081815260200182805461091e90611dbd565b801561096b5780601f106109405761010080835404028352916020019161096b565b820191906000526020600020905b81548152906001019060200180831161094e57829003601f168201915b50505050508a6118b9565b156109ec57600560008373ffffffffffffffffffffffffffffffffffffffff1673ffffffffffffffffffffffffffffffffffffffff16815260200190815260200160002081815481106109cc576109cb6122db565b5b906000526020600020906002020160000154846109e9919061230a565b93505b8080600101915050610838565b505080806001019150506107e5565b5060005b600680549050811015610cec57600060068281548110610a2f57610a2e6122db565b5b9060005260206000200160009054906101000a900473ffffffffffffffffffffffffffffffffffffffff1690506000805b600560008473ffffffffffffffffffffffffffffffffffffffff1673ffffffffffffffffffffffffffffffffffffffff16815260200190815260200160002080549050811015610c3d57610b9e600560008573ffffffffffffffffffffffffffffffffffffffff1673ffffffffffffffffffffffffffffffffffffffff1681526020019081526020016000208281548110610afe57610afd6122db565b5b90600052602060002090600202016001018054610b1a90611dbd565b80601f0160208091040260200160405190810160405280929190818152602001828054610b4690611dbd565b8015610b935780601f10610b6857610100808354040283529160200191610b93565b820191906000526020600020905b815481529060010190602001808311610b7657829003601f168201915b50505050508b6118b9565b15610c305760008587600560008773ffffffffffffffffffffffffffffffffffffffff1673ffffffffffffffffffffffffffffffffffffffff1681526020019081526020016000208481548110610bf857610bf76122db565b5b906000526020600020906002020160000154610c149190612205565b610c1e9190612276565b90508083610c2c919061230a565b9250505b8080600101915050610a60565b506000811115610cdd578173ffffffffffffffffffffffffffffffffffffffff166108fc829081150290604051600060405180830381858888f19350505050158015610c8d573d6000803e3d6000fd5b508173ffffffffffffffffffffffffffffffffffffffff167fe34918ff1c7084970068b53fd71ad6d8b04e9f15d3886cbf006443e6cdc52ea682604051610cd49190611d73565b60405180910390a25b50508080600101915050610a0c565b507f3ea7a0e97590231292a074b5b57cd3b715bff76a55a6125d03dc864e55909ba986604051610d1c919061233e565b60405180910390a1505050505050565b60068181548110610d3c57600080fd5b906000526020600020016000915054906101000a900473ffffffffffffffffffffffffffffffffffffffff1681565b60056020528160005260406000208181548110610d8757600080fd5b906000526020600020906002020160009150915050806000015490806001018054610db190611dbd565b80601f0160208091040260200160405190810160405280929190818152602001828054610ddd90611dbd565b8015610e2a5780601f10610dff57610100808354040283529160200191610e2a565b820191906000526020600020905b815481529060010190602001808311610e0d57829003601f168201915b5050505050905082565b600080600080600090505b60068054905081101561148e57600060068281548110610e6257610e616122db565b5b9060005260206000200160009054906101000a900473ffffffffffffffffffffffffffffffffffffffff16905060005b600560008373ffffffffffffffffffffffffffffffffffffffff1673ffffffffffffffffffffffffffffffffffffffff1681526020019081526020016000208054905081101561147f5761105c600560008473ffffffffffffffffffffffffffffffffffffffff1673ffffffffffffffffffffffffffffffffffffffff1681526020019081526020016000208281548110610f3057610f2f6122db565b5b90600052602060002090600202016001018054610f4c90611dbd565b80601f0160208091040260200160405190810160405280929190818152602001828054610f7890611dbd565b8015610fc55780601f10610f9a57610100808354040283529160200191610fc5565b820191906000526020600020905b815481529060010190602001808311610fa857829003601f168201915b5050505050600080018054610fd990611dbd565b80601f016020809104026020016040519081016040528092919081815260200182805461100590611dbd565b80156110525780601f1061102757610100808354040283529160200191611052565b820191906000526020600020905b81548152906001019060200180831161103557829003601f168201915b50505050506118b9565b156110d657600560008373ffffffffffffffffffffffffffffffffffffffff1673ffffffffffffffffffffffffffffffffffffffff16815260200190815260200160002081815481106110b2576110b16122db565b5b906000526020600020906002020160000154866110cf919061230a565b9550611472565b611257600560008473ffffffffffffffffffffffffffffffffffffffff1673ffffffffffffffffffffffffffffffffffffffff168152602001908152602001600020828154811061112a576111296122db565b5b9060005260206000209060020201600101805461114690611dbd565b80601f016020809104026020016040519081016040528092919081815260200182805461117290611dbd565b80156111bf5780601f10611194576101008083540402835291602001916111bf565b820191906000526020600020905b8154815290600101906020018083116111a257829003601f168201915b5050505050600060010180546111d490611dbd565b80601f016020809104026020016040519081016040528092919081815260200182805461120090611dbd565b801561124d5780601f106112225761010080835404028352916020019161124d565b820191906000526020600020905b81548152906001019060200180831161123057829003601f168201915b50505050506118b9565b156112d157600560008373ffffffffffffffffffffffffffffffffffffffff1673ffffffffffffffffffffffffffffffffffffffff16815260200190815260200160002081815481106112ad576112ac6122db565b5b906000526020600020906002020160000154856112ca919061230a565b9450611471565b6113fa600560008473ffffffffffffffffffffffffffffffffffffffff1673ffffffffffffffffffffffffffffffffffffffff1681526020019081526020016000208281548110611325576113246122db565b5b9060005260206000209060020201600101805461134190611dbd565b80601f016020809104026020016040519081016040528092919081815260200182805461136d90611dbd565b80156113ba5780601f1061138f576101008083540402835291602001916113ba565b820191906000526020600020905b81548152906001019060200180831161139d57829003601f168201915b50505050506040518060400160405280600481526020017f44726177000000000000000000000000000000000000000000000000000000008152506118b9565b1561147057600560008373ffffffffffffffffffffffffffffffffffffffff1673ffffffffffffffffffffffffffffffffffffffff16815260200190815260200160002081815481106114505761144f6122db565b5b9060005260206000209060020201600001548461146d919061230a565b93505b5b5b8080600101915050610e92565b50508080600101915050610e3f565b50909192565b60075481565b600860009054906101000a900473ffffffffffffffffffffffffffffffffffffffff1681565b600060030160009054906101000a900460ff1615611513576040517f08c379a000000000000000000000000000000000000000000000000000000000815260040161150a90611ecc565b60405180910390fd5b60003411611556576040517f08c379a000000000000000000000000000000000000000000000000000000000815260040161154d906123d2565b60405180910390fd5b806115ed8160008001805461156a90611dbd565b80601f016020809104026020016040519081016040528092919081815260200182805461159690611dbd565b80156115e35780601f106115b8576101008083540402835291602001916115e3565b820191906000526020600020905b8154815290600101906020018083116115c657829003601f168201915b50505050506118b9565b8061168b575061168a816000600101805461160790611dbd565b80601f016020809104026020016040519081016040528092919081815260200182805461163390611dbd565b80156116805780601f1061165557610100808354040283529160200191611680565b820191906000526020600020905b81548152906001019060200180831161166357829003601f168201915b50505050506118b9565b5b806116d157506116d0816040518060400160405280600481526020017f44726177000000000000000000000000000000000000000000000000000000008152506118b9565b5b611710576040517f08c379a00000000000000000000000000000000000000000000000000000000081526004016117079061243e565b60405180910390fd5b600560003373ffffffffffffffffffffffffffffffffffffffff1673ffffffffffffffffffffffffffffffffffffffff16815260200190815260200160002060405180604001604052803481526020018481525090806001815401808255809150506001900390600052602060002090600202016000909190919091506000820151816000015560208201518160010190816117ac9190612104565b5050506001600560003373ffffffffffffffffffffffffffffffffffffffff1673ffffffffffffffffffffffffffffffffffffffff168152602001908152602001600020805490500361185d576006339080600181540180825580915050600190039060005260206000200160009091909190916101000a81548173ffffffffffffffffffffffffffffffffffffffff021916908373ffffffffffffffffffffffffffffffffffffffff1602179055505b3373ffffffffffffffffffffffffffffffffffffffff167ff14919ff92658c8b721faa944957b48dedaee13316a12a2635add911929e917034846040516118a5929190611d0c565b60405180910390a25050565b600047905090565b6000816040516020016118cc919061249a565b60405160208183030381529060405280519060200120836040516020016118f3919061249a565b6040516020818303038152906040528051906020012014905092915050565b600081519050919050565b600082825260208201905092915050565b60005b8381101561194c578082015181840152602081019050611931565b60008484015250505050565b6000601f19601f8301169050919050565b600061197482611912565b61197e818561191d565b935061198e81856020860161192e565b61199781611958565b840191505092915050565b6000819050919050565b6119b5816119a2565b82525050565b60008115159050919050565b6119d0816119bb565b82525050565b600060a08201905081810360008301526119f08188611969565b90508181036020830152611a048187611969565b9050611a1360408301866119ac565b611a2060608301856119c7565b8181036080830152611a328184611969565b90509695505050505050565b6000602082019050611a5360008301846119c7565b92915050565b6000604051905090565b600080fd5b600080fd5b600080fd5b600080fd5b7f4e487b7100000000000000000000000000000000000000000000000000000000600052604160045260246000fd5b611aaf82611958565b810181811067ffffffffffffffff82111715611ace57611acd611a77565b5b80604052505050565b6000611ae1611a59565b9050611aed8282611aa6565b919050565b600067ffffffffffffffff821115611b0d57611b0c611a77565b5b611b1682611958565b9050602081019050919050565b82818337600083830152505050565b6000611b45611b4084611af2565b611ad7565b905082815260208101848484011115611b6157611b60611a72565b5b611b6c848285611b23565b509392505050565b600082601f830112611b8957611b88611a6d565b5b8135611b99848260208601611b32565b91505092915050565b600060208284031215611bb857611bb7611a63565b5b600082013567ffffffffffffffff811115611bd657611bd5611a68565b5b611be284828501611b74565b91505092915050565b611bf4816119a2565b8114611bff57600080fd5b50565b600081359050611c1181611beb565b92915050565b600060208284031215611c2d57611c2c611a63565b5b6000611c3b84828501611c02565b91505092915050565b600073ffffffffffffffffffffffffffffffffffffffff82169050919050565b6000611c6f82611c44565b9050919050565b611c7f81611c64565b82525050565b6000602082019050611c9a6000830184611c76565b92915050565b611ca981611c64565b8114611cb457600080fd5b50565b600081359050611cc681611ca0565b92915050565b60008060408385031215611ce357611ce2611a63565b5b6000611cf185828601611cb7565b9250506020611d0285828601611c02565b9150509250929050565b6000604082019050611d2160008301856119ac565b8181036020830152611d338184611969565b90509392505050565b6000606082019050611d5160008301866119ac565b611d5e60208301856119ac565b611d6b60408301846119ac565b949350505050565b6000602082019050611d8860008301846119ac565b92915050565b7f4e487b7100000000000000000000000000000000000000000000000000000000600052602260045260246000fd5b60006002820490506001821680611dd557607f821691505b602082108103611de857611de7611d8e565b5b50919050565b7f4f6e6c79206f776e65722063616e2063616c6c20746869732066756e6374696f60008201527f6e00000000000000000000000000000000000000000000000000000000000000602082015250565b6000611e4a60218361191d565b9150611e5582611dee565b604082019050919050565b60006020820190508181036000830152611e7981611e3d565b9050919050565b7f42657474696e6720697320636c6f736564000000000000000000000000000000600082015250565b6000611eb660118361191d565b9150611ec182611e80565b602082019050919050565b60006020820190508181036000830152611ee581611ea9565b9050919050565b7f496e76616c696420726573756c74000000000000000000000000000000000000600082015250565b6000611f22600e8361191d565b9150611f2d82611eec565b602082019050919050565b60006020820190508181036000830152611f5181611f15565b9050919050565b60008190508160005260206000209050919050565b60006020601f8301049050919050565b600082821b905092915050565b600060088302611fba7fffffffffffffffffffffffffffffffffffffffffffffffffffffffffffffffff82611f7d565b611fc48683611f7d565b95508019841693508086168417925050509392505050565b6000819050919050565b6000612001611ffc611ff7846119a2565b611fdc565b6119a2565b9050919050565b6000819050919050565b61201b83611fe6565b61202f61202782612008565b848454611f8a565b825550505050565b600090565b612044612037565b61204f818484612012565b505050565b5b818110156120735761206860008261203c565b600181019050612055565b5050565b601f8211156120b85761208981611f58565b61209284611f6d565b810160208510156120a1578190505b6120b56120ad85611f6d565b830182612054565b50505b505050565b600082821c905092915050565b60006120db600019846008026120bd565b1980831691505092915050565b60006120f483836120ca565b9150826002028217905092915050565b61210d82611912565b67ffffffffffffffff81111561212657612125611a77565b5b6121308254611dbd565b61213b828285612077565b600060209050601f83116001811461216e576000841561215c578287015190505b61216685826120e8565b8655506121ce565b601f19841661217c86611f58565b60005b828110156121a45784890151825560018201915060208501945060208101905061217f565b868310156121c157848901516121bd601f8916826120ca565b8355505b6001600288020188555050505b505050505050565b7f4e487b7100000000000000000000000000000000000000000000000000000000600052601160045260246000fd5b6000612210826119a2565b915061221b836119a2565b9250828202612229816119a2565b915082820484148315176122405761223f6121d6565b5b5092915050565b7f4e487b7100000000000000000000000000000000000000000000000000000000600052601260045260246000fd5b6000612281826119a2565b915061228c836119a2565b92508261229c5761229b612247565b5b828204905092915050565b60006122b2826119a2565b91506122bd836119a2565b92508282039050818111156122d5576122d46121d6565b5b92915050565b7f4e487b7100000000000000000000000000000000000000000000000000000000600052603260045260246000fd5b6000612315826119a2565b9150612320836119a2565b9250828201905080821115612338576123376121d6565b5b92915050565b600060208201905081810360008301526123588184611969565b905092915050565b7f42657420616d6f756e74206d7573742062652067726561746572207468616e2060008201527f3000000000000000000000000000000000000000000000000000000000000000602082015250565b60006123bc60218361191d565b91506123c782612360565b604082019050919050565b600060208201905081810360008301526123eb816123af565b9050919050565b7f496e76616c69642063686f696365000000000000000000000000000000000000600082015250565b6000612428600e8361191d565b9150612433826123f2565b602082019050919050565b600060208201905081810360008301526124578161241b565b9050919050565b600081905092915050565b600061247482611912565b61247e818561245e565b935061248e81856020860161192e565b80840191505092915050565b60006124a68284612469565b91508190509291505056fea264697066735822122026978cdbee96dff0a314d8985a0975456a916a24791cb2dc0a9b62fbb519277064736f6c634300081c0033",
    "linkReferences": {},
    "deployedLinkReferences": {}
}