{
  "_format": "hh-sol-artifact-1",
  "contractName": "BetFactory",
  "sourceName": "contracts/BetFactory.sol",
  "abi": [
    {
      "anonymous": false,
      "inputs": [
        {
          "indexed": true,
          "internalType": "address",
          "name": "betAddress",
          "type": "address"
        },
        {
          "indexed": false,
          "internalType": "string",
          "name": "team1",
          "type": "string"
        },
        {
          "indexed": false,
          "internalType": "string",
          "name": "team2",
          "type": "string"
        },
        {
          "indexed": false,
          "internalType": "uint256",
          "name": "matchDate",
          "type": "uint256"
        },
        {
          "indexed": false,
          "internalType": "address",
          "name": "owner",
          "type": "address"
        }
      ],
      "name": "BetCreated",
      "type": "event"
    },
    {
      "inputs": [
        {
          "internalType": "uint256",
          "name": "",
          "type": "uint256"
        }
      ],
      "name": "bets",
      "outputs": [
        {
          "internalType": "address",
          "name": "",
          "type": "address"
        }
      ],
      "stateMutability": "view",
      "type": "function"
    },
    {
      "inputs": [
        {
          "internalType": "uint256",
          "name": "_platformFeePercent",
          "type": "uint256"
        },
        {
          "internalType": "string",
          "name": "_team1",
          "type": "string"
        },
        {
          "internalType": "string",
          "name": "_team2",
          "type": "string"
        },
        {
          "internalType": "uint256",
          "name": "_matchDate",
          "type": "uint256"
        }
      ],
      "name": "createBet",
      "outputs": [],
      "stateMutability": "nonpayable",
      "type": "function"
    },
    {
      "inputs": [],
      "name": "getBets",
      "outputs": [
        {
          "internalType": "address[]",
          "name": "",
          "type": "address[]"
        }
      ],
      "stateMutability": "view",
      "type": "function"
    }
  ],
  "bytecode": "0x6080604052348015600f57600080fd5b50613dd38061001f6000396000f3fe608060405234801561001057600080fd5b50600436106100415760003560e01c806322af00fa146100465780638ba5c68b14610076578063a6afd5fd14610092575b600080fd5b610060600480360381019061005b91906102d2565b6100b0565b60405161006d9190610340565b60405180910390f35b610090600480360381019061008b91906104a1565b6100ef565b005b61009a6101ed565b6040516100a791906105fe565b60405180910390f35b600081815481106100c057600080fd5b906000526020600020016000915054906101000a900473ffffffffffffffffffffffffffffffffffffffff1681565b600084848484336040516101029061027b565b6101109594939291906106ae565b604051809103906000f08015801561012c573d6000803e3d6000fd5b5090506000819080600181540180825580915050600190039060005260206000200160009091909190916101000a81548173ffffffffffffffffffffffffffffffffffffffff021916908373ffffffffffffffffffffffffffffffffffffffff1602179055508073ffffffffffffffffffffffffffffffffffffffff167f6013a36a3a921e166db5017f0d1ef7d90b7ee4c8f490c5a3da56e9a37077c9e4858585336040516101de949392919061070f565b60405180910390a25050505050565b6060600080548060200260200160405190810160405280929190818152602001828054801561027157602002820191906000526020600020905b8160009054906101000a900473ffffffffffffffffffffffffffffffffffffffff1673ffffffffffffffffffffffffffffffffffffffff1681526020019060010190808311610227575b5050505050905090565b61363b8061076383390190565b6000604051905090565b600080fd5b600080fd5b6000819050919050565b6102af8161029c565b81146102ba57600080fd5b50565b6000813590506102cc816102a6565b92915050565b6000602082840312156102e8576102e7610292565b5b60006102f6848285016102bd565b91505092915050565b600073ffffffffffffffffffffffffffffffffffffffff82169050919050565b600061032a826102ff565b9050919050565b61033a8161031f565b82525050565b60006020820190506103556000830184610331565b92915050565b600080fd5b600080fd5b6000601f19601f8301169050919050565b7f4e487b7100000000000000000000000000000000000000000000000000000000600052604160045260246000fd5b6103ae82610365565b810181811067ffffffffffffffff821117156103cd576103cc610376565b5b80604052505050565b60006103e0610288565b90506103ec82826103a5565b919050565b600067ffffffffffffffff82111561040c5761040b610376565b5b61041582610365565b9050602081019050919050565b82818337600083830152505050565b600061044461043f846103f1565b6103d6565b9050828152602081018484840111156104605761045f610360565b5b61046b848285610422565b509392505050565b600082601f8301126104885761048761035b565b5b8135610498848260208601610431565b91505092915050565b600080600080608085870312156104bb576104ba610292565b5b60006104c9878288016102bd565b945050602085013567ffffffffffffffff8111156104ea576104e9610297565b5b6104f687828801610473565b935050604085013567ffffffffffffffff81111561051757610516610297565b5b61052387828801610473565b9250506060610534878288016102bd565b91505092959194509250565b600081519050919050565b600082825260208201905092915050565b6000819050602082019050919050565b6105758161031f565b82525050565b6000610587838361056c565b60208301905092915050565b6000602082019050919050565b60006105ab82610540565b6105b5818561054b565b93506105c08361055c565b8060005b838110156105f15781516105d8888261057b565b97506105e383610593565b9250506001810190506105c4565b5085935050505092915050565b6000602082019050818103600083015261061881846105a0565b905092915050565b6106298161029c565b82525050565b600081519050919050565b600082825260208201905092915050565b60005b8381101561066957808201518184015260208101905061064e565b60008484015250505050565b60006106808261062f565b61068a818561063a565b935061069a81856020860161064b565b6106a381610365565b840191505092915050565b600060a0820190506106c36000830188610620565b81810360208301526106d58187610675565b905081810360408301526106e98186610675565b90506106f86060830185610620565b6107056080830184610331565b9695505050505050565b600060808201905081810360008301526107298187610675565b9050818103602083015261073d8186610675565b905061074c6040830185610620565b6107596060830184610331565b9594505050505056fe608060405234801561001057600080fd5b5060405161363b38038061363b8339818101604052810190610032919061032a565b6064851115610076576040517f08c379a000000000000000000000000000000000000000000000000000000000815260040161006d90610460565b60405180910390fd5b846009819055508360008001908161008e9190610697565b5082600060010190816100a19190610697565b508160006002018190555060008060030160006101000a81548160ff02191690831515021790555080600060050160006101000a81548173ffffffffffffffffffffffffffffffffffffffff021916908373ffffffffffffffffffffffffffffffffffffffff160217905550600080600601819055505050505050610769565b6000604051905090565b600080fd5b600080fd5b6000819050919050565b61014881610135565b811461015357600080fd5b50565b6000815190506101658161013f565b92915050565b600080fd5b600080fd5b6000601f19601f8301169050919050565b7f4e487b7100000000000000000000000000000000000000000000000000000000600052604160045260246000fd5b6101be82610175565b810181811067ffffffffffffffff821117156101dd576101dc610186565b5b80604052505050565b60006101f0610121565b90506101fc82826101b5565b919050565b600067ffffffffffffffff82111561021c5761021b610186565b5b61022582610175565b9050602081019050919050565b60005b83811015610250578082015181840152602081019050610235565b60008484015250505050565b600061026f61026a84610201565b6101e6565b90508281526020810184848401111561028b5761028a610170565b5b610296848285610232565b509392505050565b600082601f8301126102b3576102b261016b565b5b81516102c384826020860161025c565b91505092915050565b600073ffffffffffffffffffffffffffffffffffffffff82169050919050565b60006102f7826102cc565b9050919050565b610307816102ec565b811461031257600080fd5b50565b600081519050610324816102fe565b92915050565b600080600080600060a086880312156103465761034561012b565b5b600061035488828901610156565b955050602086015167ffffffffffffffff81111561037557610374610130565b5b6103818882890161029e565b945050604086015167ffffffffffffffff8111156103a2576103a1610130565b5b6103ae8882890161029e565b93505060606103bf88828901610156565b92505060806103d088828901610315565b9150509295509295909350565b600082825260208201905092915050565b7f4665652070657263656e742063616e6e6f74206265206772656174657220746860008201527f616e203130300000000000000000000000000000000000000000000000000000602082015250565b600061044a6026836103dd565b9150610455826103ee565b604082019050919050565b600060208201905081810360008301526104798161043d565b9050919050565b600081519050919050565b7f4e487b7100000000000000000000000000000000000000000000000000000000600052602260045260246000fd5b600060028204905060018216806104d257607f821691505b6020821081036104e5576104e461048b565b5b50919050565b60008190508160005260206000209050919050565b60006020601f8301049050919050565b600082821b905092915050565b60006008830261054d7fffffffffffffffffffffffffffffffffffffffffffffffffffffffffffffffff82610510565b6105578683610510565b95508019841693508086168417925050509392505050565b6000819050919050565b600061059461058f61058a84610135565b61056f565b610135565b9050919050565b6000819050919050565b6105ae83610579565b6105c26105ba8261059b565b84845461051d565b825550505050565b600090565b6105d76105ca565b6105e28184846105a5565b505050565b5b81811015610606576105fb6000826105cf565b6001810190506105e8565b5050565b601f82111561064b5761061c816104eb565b61062584610500565b81016020851015610634578190505b61064861064085610500565b8301826105e7565b50505b505050565b600082821c905092915050565b600061066e60001984600802610650565b1980831691505092915050565b6000610687838361065d565b9150826002028217905092915050565b6106a082610480565b67ffffffffffffffff8111156106b9576106b8610186565b5b6106c382546104ba565b6106ce82828561060a565b600060209050601f83116001811461070157600084156106ef578287015190505b6106f9858261067b565b865550610761565b601f19841661070f866104eb565b60005b8281101561073757848901518255600182019150602085019450602081019050610712565b868310156107545784890151610750601f89168261065d565b8355505b6001600288020188555050505b505050505050565b612ec3806107786000396000f3fe60806040526004361061009c5760003560e01c806372e4d5071161006457806372e4d507146101a35780638c639a85146101d057806397bfeb88146101fb57806399535bd714610217578063a3cb679d14610242578063d9229a3a1461026d5761009c565b80632c70444e146100a15780632eb190aa146100d257806332b19c65146100fd5780633482b644146101265780634a39ec9014610163575b600080fd5b3480156100ad57600080fd5b506100b661029e565b6040516100c99796959493929190612135565b60405180910390f35b3480156100de57600080fd5b506100e7610493565b6040516100f491906121b9565b60405180910390f35b34801561010957600080fd5b50610124600480360381019061011f919061231d565b6104ac565b005b34801561013257600080fd5b5061014d60048036038101906101489190612392565b610dec565b60405161015a91906123bf565b60405180910390f35b34801561016f57600080fd5b5061018a60048036038101906101859190612406565b610e2b565b60405161019a9493929190612446565b60405180910390f35b3480156101af57600080fd5b506101b8610f88565b6040516101c793929190612499565b60405180910390f35b3480156101dc57600080fd5b506101e56115e8565b6040516101f291906124d0565b60405180910390f35b6102156004803603810190610210919061231d565b6115ee565b005b34801561022357600080fd5b5061022c611b59565b60405161023991906125ae565b60405180910390f35b34801561024e57600080fd5b50610257611d8e565b60405161026491906124d0565b60405180910390f35b34801561027957600080fd5b50610282611d96565b6040516102959796959493929190612135565b60405180910390f35b60008060000180546102af906125ff565b80601f01602080910402602001604051908101604052809291908181526020018280546102db906125ff565b80156103285780601f106102fd57610100808354040283529160200191610328565b820191906000526020600020905b81548152906001019060200180831161030b57829003601f168201915b50505050509080600101805461033d906125ff565b80601f0160208091040260200160405190810160405280929190818152602001828054610369906125ff565b80156103b65780601f1061038b576101008083540402835291602001916103b6565b820191906000526020600020905b81548152906001019060200180831161039957829003601f168201915b5050505050908060020154908060030160009054906101000a900460ff16908060040180546103e4906125ff565b80601f0160208091040260200160405190810160405280929190818152602001828054610410906125ff565b801561045d5780601f106104325761010080835404028352916020019161045d565b820191906000526020600020905b81548152906001019060200180831161044057829003601f168201915b5050505050908060050160009054906101000a900473ffffffffffffffffffffffffffffffffffffffff16908060060154905087565b60008060030160009054906101000a900460ff16905090565b600060050160009054906101000a900473ffffffffffffffffffffffffffffffffffffffff1673ffffffffffffffffffffffffffffffffffffffff163373ffffffffffffffffffffffffffffffffffffffff161461053f576040517f08c379a0000000000000000000000000000000000000000000000000000000008152600401610536906126a2565b60405180910390fd5b600060030160009054906101000a900460ff1615610592576040517f08c379a00000000000000000000000000000000000000000000000000000000081526004016105899061270e565b60405180910390fd5b80610629816000800180546105a6906125ff565b80601f01602080910402602001604051908101604052809291908181526020018280546105d2906125ff565b801561061f5780601f106105f45761010080835404028352916020019161061f565b820191906000526020600020905b81548152906001019060200180831161060257829003601f168201915b5050505050611faf565b806106c757506106c68160006001018054610643906125ff565b80601f016020809104026020016040519081016040528092919081815260200182805461066f906125ff565b80156106bc5780601f10610691576101008083540402835291602001916106bc565b820191906000526020600020905b81548152906001019060200180831161069f57829003601f168201915b5050505050611faf565b5b8061070d575061070c816040518060400160405280600481526020017f4472617700000000000000000000000000000000000000000000000000000000815250611faf565b5b61074c576040517f08c379a00000000000000000000000000000000000000000000000000000000081526004016107439061277a565b60405180910390fd5b6001600060030160006101000a81548160ff021916908315150217905550816000600401908161077c9190612946565b50600047905060006064600954836107949190612a47565b61079e9190612ab8565b9050600081836107ae9190612ae9565b905081600060060181905550600060050160009054906101000a900473ffffffffffffffffffffffffffffffffffffffff1673ffffffffffffffffffffffffffffffffffffffff166108fc839081150290604051600060405180830381858888f19350505050158015610825573d6000803e3d6000fd5b507f1e78db4c4ee9ca4946fb3ee60599d1e0258a8b22e183510241ff770ab6332baf8260405161085591906124d0565b60405180910390a16000805b600880549050811015610a845760006008828154811061088457610883612b1d565b5b9060005260206000200160009054906101000a900473ffffffffffffffffffffffffffffffffffffffff16905060005b600760008373ffffffffffffffffffffffffffffffffffffffff1673ffffffffffffffffffffffffffffffffffffffff16815260200190815260200160002080549050811015610a75576109f2600760008473ffffffffffffffffffffffffffffffffffffffff1673ffffffffffffffffffffffffffffffffffffffff168152602001908152602001600020828154811061095257610951612b1d565b5b9060005260206000209060040201600101805461096e906125ff565b80601f016020809104026020016040519081016040528092919081815260200182805461099a906125ff565b80156109e75780601f106109bc576101008083540402835291602001916109e7565b820191906000526020600020905b8154815290600101906020018083116109ca57829003601f168201915b50505050508a611faf565b15610a6857600760008373ffffffffffffffffffffffffffffffffffffffff1673ffffffffffffffffffffffffffffffffffffffff1681526020019081526020016000208181548110610a4857610a47612b1d565b5b90600052602060002090600402016000015484610a659190612b4c565b93505b80806001019150506108b4565b50508080600101915050610861565b5060005b600880549050811015610dac57600060088281548110610aab57610aaa612b1d565b5b9060005260206000200160009054906101000a900473ffffffffffffffffffffffffffffffffffffffff1690506000805b600760008473ffffffffffffffffffffffffffffffffffffffff1673ffffffffffffffffffffffffffffffffffffffff16815260200190815260200160002080549050811015610cfd576000600760008573ffffffffffffffffffffffffffffffffffffffff1673ffffffffffffffffffffffffffffffffffffffff1681526020019081526020016000208281548110610b7957610b78612b1d565b5b90600052602060002090600402019050610c1f816001018054610b9b906125ff565b80601f0160208091040260200160405190810160405280929190818152602001828054610bc7906125ff565b8015610c145780601f10610be957610100808354040283529160200191610c14565b820191906000526020600020905b815481529060010190602001808311610bf757829003601f168201915b50505050508c611faf565b15610ca757600086888360000154610c379190612a47565b610c419190612ab8565b90508084610c4f9190612b4c565b93506040518060400160405280600381526020017f576f6e0000000000000000000000000000000000000000000000000000000000815250826002019081610c979190612946565b5080826003018190555050610cef565b6040518060400160405280600481526020017f4c6f737400000000000000000000000000000000000000000000000000000000815250816002019081610ced9190612946565b505b508080600101915050610adc565b506000811115610d9d578173ffffffffffffffffffffffffffffffffffffffff166108fc829081150290604051600060405180830381858888f19350505050158015610d4d573d6000803e3d6000fd5b508173ffffffffffffffffffffffffffffffffffffffff167fe34918ff1c7084970068b53fd71ad6d8b04e9f15d3886cbf006443e6cdc52ea682604051610d9491906124d0565b60405180910390a25b50508080600101915050610a88565b507f3ea7a0e97590231292a074b5b57cd3b715bff76a55a6125d03dc864e55909ba986604051610ddc9190612b80565b60405180910390a1505050505050565b60088181548110610dfc57600080fd5b906000526020600020016000915054906101000a900473ffffffffffffffffffffffffffffffffffffffff1681565b60076020528160005260406000208181548110610e4757600080fd5b906000526020600020906004020160009150915050806000015490806001018054610e71906125ff565b80601f0160208091040260200160405190810160405280929190818152602001828054610e9d906125ff565b8015610eea5780601f10610ebf57610100808354040283529160200191610eea565b820191906000526020600020905b815481529060010190602001808311610ecd57829003601f168201915b505050505090806002018054610eff906125ff565b80601f0160208091040260200160405190810160405280929190818152602001828054610f2b906125ff565b8015610f785780601f10610f4d57610100808354040283529160200191610f78565b820191906000526020600020905b815481529060010190602001808311610f5b57829003601f168201915b5050505050908060030154905084565b600080600080600090505b6008805490508110156115e257600060088281548110610fb657610fb5612b1d565b5b9060005260206000200160009054906101000a900473ffffffffffffffffffffffffffffffffffffffff16905060005b600760008373ffffffffffffffffffffffffffffffffffffffff1673ffffffffffffffffffffffffffffffffffffffff168152602001908152602001600020805490508110156115d3576111b0600760008473ffffffffffffffffffffffffffffffffffffffff1673ffffffffffffffffffffffffffffffffffffffff168152602001908152602001600020828154811061108457611083612b1d565b5b906000526020600020906004020160010180546110a0906125ff565b80601f01602080910402602001604051908101604052809291908181526020018280546110cc906125ff565b80156111195780601f106110ee57610100808354040283529160200191611119565b820191906000526020600020905b8154815290600101906020018083116110fc57829003601f168201915b505050505060008001805461112d906125ff565b80601f0160208091040260200160405190810160405280929190818152602001828054611159906125ff565b80156111a65780601f1061117b576101008083540402835291602001916111a6565b820191906000526020600020905b81548152906001019060200180831161118957829003601f168201915b5050505050611faf565b1561122a57600760008373ffffffffffffffffffffffffffffffffffffffff1673ffffffffffffffffffffffffffffffffffffffff168152602001908152602001600020818154811061120657611205612b1d565b5b906000526020600020906004020160000154866112239190612b4c565b95506115c6565b6113ab600760008473ffffffffffffffffffffffffffffffffffffffff1673ffffffffffffffffffffffffffffffffffffffff168152602001908152602001600020828154811061127e5761127d612b1d565b5b9060005260206000209060040201600101805461129a906125ff565b80601f01602080910402602001604051908101604052809291908181526020018280546112c6906125ff565b80156113135780601f106112e857610100808354040283529160200191611313565b820191906000526020600020905b8154815290600101906020018083116112f657829003601f168201915b505050505060006001018054611328906125ff565b80601f0160208091040260200160405190810160405280929190818152602001828054611354906125ff565b80156113a15780601f10611376576101008083540402835291602001916113a1565b820191906000526020600020905b81548152906001019060200180831161138457829003601f168201915b5050505050611faf565b1561142557600760008373ffffffffffffffffffffffffffffffffffffffff1673ffffffffffffffffffffffffffffffffffffffff168152602001908152602001600020818154811061140157611400612b1d565b5b9060005260206000209060040201600001548561141e9190612b4c565b94506115c5565b61154e600760008473ffffffffffffffffffffffffffffffffffffffff1673ffffffffffffffffffffffffffffffffffffffff168152602001908152602001600020828154811061147957611478612b1d565b5b90600052602060002090600402016001018054611495906125ff565b80601f01602080910402602001604051908101604052809291908181526020018280546114c1906125ff565b801561150e5780601f106114e35761010080835404028352916020019161150e565b820191906000526020600020905b8154815290600101906020018083116114f157829003601f168201915b50505050506040518060400160405280600481526020017f4472617700000000000000000000000000000000000000000000000000000000815250611faf565b156115c457600760008373ffffffffffffffffffffffffffffffffffffffff1673ffffffffffffffffffffffffffffffffffffffff16815260200190815260200160002081815481106115a4576115a3612b1d565b5b906000526020600020906004020160000154846115c19190612b4c565b93505b5b5b8080600101915050610fe6565b50508080600101915050610f93565b50909192565b60095481565b600060050160009054906101000a900473ffffffffffffffffffffffffffffffffffffffff1673ffffffffffffffffffffffffffffffffffffffff163373ffffffffffffffffffffffffffffffffffffffff1603611681576040517f08c379a000000000000000000000000000000000000000000000000000000000815260040161167890612c14565b60405180910390fd5b600060030160009054906101000a900460ff16156116d4576040517f08c379a00000000000000000000000000000000000000000000000000000000081526004016116cb9061270e565b60405180910390fd5b60003411611717576040517f08c379a000000000000000000000000000000000000000000000000000000000815260040161170e90612ca6565b60405180910390fd5b806117ae8160008001805461172b906125ff565b80601f0160208091040260200160405190810160405280929190818152602001828054611757906125ff565b80156117a45780601f10611779576101008083540402835291602001916117a4565b820191906000526020600020905b81548152906001019060200180831161178757829003601f168201915b5050505050611faf565b8061184c575061184b81600060010180546117c8906125ff565b80601f01602080910402602001604051908101604052809291908181526020018280546117f4906125ff565b80156118415780601f1061181657610100808354040283529160200191611841565b820191906000526020600020905b81548152906001019060200180831161182457829003601f168201915b5050505050611faf565b5b806118925750611891816040518060400160405280600481526020017f4472617700000000000000000000000000000000000000000000000000000000815250611faf565b5b6118d1576040517f08c379a00000000000000000000000000000000000000000000000000000000081526004016118c890612d12565b60405180910390fd5b6000600760003373ffffffffffffffffffffffffffffffffffffffff1673ffffffffffffffffffffffffffffffffffffffff1681526020019081526020016000208054905014611956576040517f08c379a000000000000000000000000000000000000000000000000000000000815260040161194d90612d7e565b60405180910390fd5b600760003373ffffffffffffffffffffffffffffffffffffffff1673ffffffffffffffffffffffffffffffffffffffff16815260200190815260200160002060405180608001604052803481526020018481526020016040518060400160405280600781526020017f70656e64696e6700000000000000000000000000000000000000000000000000815250815260200160008152509080600181540180825580915050600190039060005260206000209060040201600090919091909150600082015181600001556020820151816001019081611a349190612946565b506040820151816002019081611a4a9190612946565b506060820151816003015550506001600760003373ffffffffffffffffffffffffffffffffffffffff1673ffffffffffffffffffffffffffffffffffffffff1681526020019081526020016000208054905003611b05576008339080600181540180825580915050600190039060005260206000200160009091909190916101000a81548173ffffffffffffffffffffffffffffffffffffffff021916908373ffffffffffffffffffffffffffffffffffffffff1602179055505b3373ffffffffffffffffffffffffffffffffffffffff167ff14919ff92658c8b721faa944957b48dedaee13316a12a2635add911929e91703484604051611b4d929190612d9e565b60405180910390a25050565b611b61612008565b6000600760003373ffffffffffffffffffffffffffffffffffffffff1673ffffffffffffffffffffffffffffffffffffffff1681526020019081526020016000208054905011611be6576040517f08c379a0000000000000000000000000000000000000000000000000000000008152600401611bdd90612e1a565b60405180910390fd5b600760003373ffffffffffffffffffffffffffffffffffffffff1673ffffffffffffffffffffffffffffffffffffffff168152602001908152602001600020600081548110611c3857611c37612b1d565b5b906000526020600020906004020160405180608001604052908160008201548152602001600182018054611c6b906125ff565b80601f0160208091040260200160405190810160405280929190818152602001828054611c97906125ff565b8015611ce45780601f10611cb957610100808354040283529160200191611ce4565b820191906000526020600020905b815481529060010190602001808311611cc757829003601f168201915b50505050508152602001600282018054611cfd906125ff565b80601f0160208091040260200160405190810160405280929190818152602001828054611d29906125ff565b8015611d765780601f10611d4b57610100808354040283529160200191611d76565b820191906000526020600020905b815481529060010190602001808311611d5957829003601f168201915b50505050508152602001600382015481525050905090565b600047905090565b6060806000806060600080600080016000600101600060020154600060030160009054906101000a900460ff166000600401600060050160009054906101000a900473ffffffffffffffffffffffffffffffffffffffff16600060060154868054611e00906125ff565b80601f0160208091040260200160405190810160405280929190818152602001828054611e2c906125ff565b8015611e795780601f10611e4e57610100808354040283529160200191611e79565b820191906000526020600020905b815481529060010190602001808311611e5c57829003601f168201915b50505050509650858054611e8c906125ff565b80601f0160208091040260200160405190810160405280929190818152602001828054611eb8906125ff565b8015611f055780601f10611eda57610100808354040283529160200191611f05565b820191906000526020600020905b815481529060010190602001808311611ee857829003601f168201915b50505050509550828054611f18906125ff565b80601f0160208091040260200160405190810160405280929190818152602001828054611f44906125ff565b8015611f915780601f10611f6657610100808354040283529160200191611f91565b820191906000526020600020905b815481529060010190602001808311611f7457829003601f168201915b50505050509250965096509650965096509650965090919293949596565b600081604051602001611fc29190612e76565b6040516020818303038152906040528051906020012083604051602001611fe99190612e76565b6040516020818303038152906040528051906020012014905092915050565b6040518060800160405280600081526020016060815260200160608152602001600081525090565b600081519050919050565b600082825260208201905092915050565b60005b8381101561206a57808201518184015260208101905061204f565b60008484015250505050565b6000601f19601f8301169050919050565b600061209282612030565b61209c818561203b565b93506120ac81856020860161204c565b6120b581612076565b840191505092915050565b6000819050919050565b6120d3816120c0565b82525050565b60008115159050919050565b6120ee816120d9565b82525050565b600073ffffffffffffffffffffffffffffffffffffffff82169050919050565b600061211f826120f4565b9050919050565b61212f81612114565b82525050565b600060e082019050818103600083015261214f818a612087565b905081810360208301526121638189612087565b905061217260408301886120ca565b61217f60608301876120e5565b81810360808301526121918186612087565b90506121a060a0830185612126565b6121ad60c08301846120ca565b98975050505050505050565b60006020820190506121ce60008301846120e5565b92915050565b6000604051905090565b600080fd5b600080fd5b600080fd5b600080fd5b7f4e487b7100000000000000000000000000000000000000000000000000000000600052604160045260246000fd5b61222a82612076565b810181811067ffffffffffffffff82111715612249576122486121f2565b5b80604052505050565b600061225c6121d4565b90506122688282612221565b919050565b600067ffffffffffffffff821115612288576122876121f2565b5b61229182612076565b9050602081019050919050565b82818337600083830152505050565b60006122c06122bb8461226d565b612252565b9050828152602081018484840111156122dc576122db6121ed565b5b6122e784828561229e565b509392505050565b600082601f830112612304576123036121e8565b5b81356123148482602086016122ad565b91505092915050565b600060208284031215612333576123326121de565b5b600082013567ffffffffffffffff811115612351576123506121e3565b5b61235d848285016122ef565b91505092915050565b61236f816120c0565b811461237a57600080fd5b50565b60008135905061238c81612366565b92915050565b6000602082840312156123a8576123a76121de565b5b60006123b68482850161237d565b91505092915050565b60006020820190506123d46000830184612126565b92915050565b6123e381612114565b81146123ee57600080fd5b50565b600081359050612400816123da565b92915050565b6000806040838503121561241d5761241c6121de565b5b600061242b858286016123f1565b925050602061243c8582860161237d565b9150509250929050565b600060808201905061245b60008301876120ca565b818103602083015261246d8186612087565b905081810360408301526124818185612087565b905061249060608301846120ca565b95945050505050565b60006060820190506124ae60008301866120ca565b6124bb60208301856120ca565b6124c860408301846120ca565b949350505050565b60006020820190506124e560008301846120ca565b92915050565b6124f4816120c0565b82525050565b600082825260208201905092915050565b600061251682612030565b61252081856124fa565b935061253081856020860161204c565b61253981612076565b840191505092915050565b600060808301600083015161255c60008601826124eb565b5060208301518482036020860152612574828261250b565b9150506040830151848203604086015261258e828261250b565b91505060608301516125a360608601826124eb565b508091505092915050565b600060208201905081810360008301526125c88184612544565b905092915050565b7f4e487b7100000000000000000000000000000000000000000000000000000000600052602260045260246000fd5b6000600282049050600182168061261757607f821691505b60208210810361262a576126296125d0565b5b50919050565b7f4f6e6c79206f776e65722063616e2063616c6c20746869732066756e6374696f60008201527f6e00000000000000000000000000000000000000000000000000000000000000602082015250565b600061268c60218361203b565b915061269782612630565b604082019050919050565b600060208201905081810360008301526126bb8161267f565b9050919050565b7f42657474696e6720697320636c6f736564000000000000000000000000000000600082015250565b60006126f860118361203b565b9150612703826126c2565b602082019050919050565b60006020820190508181036000830152612727816126eb565b9050919050565b7f496e76616c696420726573756c74000000000000000000000000000000000000600082015250565b6000612764600e8361203b565b915061276f8261272e565b602082019050919050565b6000602082019050818103600083015261279381612757565b9050919050565b60008190508160005260206000209050919050565b60006020601f8301049050919050565b600082821b905092915050565b6000600883026127fc7fffffffffffffffffffffffffffffffffffffffffffffffffffffffffffffffff826127bf565b61280686836127bf565b95508019841693508086168417925050509392505050565b6000819050919050565b600061284361283e612839846120c0565b61281e565b6120c0565b9050919050565b6000819050919050565b61285d83612828565b6128716128698261284a565b8484546127cc565b825550505050565b600090565b612886612879565b612891818484612854565b505050565b5b818110156128b5576128aa60008261287e565b600181019050612897565b5050565b601f8211156128fa576128cb8161279a565b6128d4846127af565b810160208510156128e3578190505b6128f76128ef856127af565b830182612896565b50505b505050565b600082821c905092915050565b600061291d600019846008026128ff565b1980831691505092915050565b6000612936838361290c565b9150826002028217905092915050565b61294f82612030565b67ffffffffffffffff811115612968576129676121f2565b5b61297282546125ff565b61297d8282856128b9565b600060209050601f8311600181146129b0576000841561299e578287015190505b6129a8858261292a565b865550612a10565b601f1984166129be8661279a565b60005b828110156129e6578489015182556001820191506020850194506020810190506129c1565b86831015612a0357848901516129ff601f89168261290c565b8355505b6001600288020188555050505b505050505050565b7f4e487b7100000000000000000000000000000000000000000000000000000000600052601160045260246000fd5b6000612a52826120c0565b9150612a5d836120c0565b9250828202612a6b816120c0565b91508282048414831517612a8257612a81612a18565b5b5092915050565b7f4e487b7100000000000000000000000000000000000000000000000000000000600052601260045260246000fd5b6000612ac3826120c0565b9150612ace836120c0565b925082612ade57612add612a89565b5b828204905092915050565b6000612af4826120c0565b9150612aff836120c0565b9250828203905081811115612b1757612b16612a18565b5b92915050565b7f4e487b7100000000000000000000000000000000000000000000000000000000600052603260045260246000fd5b6000612b57826120c0565b9150612b62836120c0565b9250828201905080821115612b7a57612b79612a18565b5b92915050565b60006020820190508181036000830152612b9a8184612087565b905092915050565b7f4f6e6c79206e6f74206f776e65722063616e2063616c6c20746869732066756e60008201527f6374696f6e000000000000000000000000000000000000000000000000000000602082015250565b6000612bfe60258361203b565b9150612c0982612ba2565b604082019050919050565b60006020820190508181036000830152612c2d81612bf1565b9050919050565b7f42657420616d6f756e74206d7573742062652067726561746572207468616e2060008201527f3000000000000000000000000000000000000000000000000000000000000000602082015250565b6000612c9060218361203b565b9150612c9b82612c34565b604082019050919050565b60006020820190508181036000830152612cbf81612c83565b9050919050565b7f496e76616c69642063686f696365000000000000000000000000000000000000600082015250565b6000612cfc600e8361203b565b9150612d0782612cc6565b602082019050919050565b60006020820190508181036000830152612d2b81612cef565b9050919050565b7f4f6e6c79206f6e652062657420706572207573657220616c6c6f776564000000600082015250565b6000612d68601d8361203b565b9150612d7382612d32565b602082019050919050565b60006020820190508181036000830152612d9781612d5b565b9050919050565b6000604082019050612db360008301856120ca565b8181036020830152612dc58184612087565b90509392505050565b7f4e6f206265747320666f756e6420666f72207468697320757365720000000000600082015250565b6000612e04601b8361203b565b9150612e0f82612dce565b602082019050919050565b60006020820190508181036000830152612e3381612df7565b9050919050565b600081905092915050565b6000612e5082612030565b612e5a8185612e3a565b9350612e6a81856020860161204c565b80840191505092915050565b6000612e828284612e45565b91508190509291505056fea264697066735822122090d6e1469451cb72406e72027a185e9869aeada1affd3423c17b99d571c46c2164736f6c634300081c0033a26469706673582212206de2731ca5418a7b9b603b9d6bcd7d35de7f5571453690a0bdd1ec60e676987264736f6c634300081c0033",
  "linkReferences": {},
  "deployedLinkReferences": {}
}