{
  "_format": "hh-sol-artifact-1",
  "contractName": "BetFactory",
  "sourceName": "contracts/BetFactory.sol",
  "abi": [
    {
      "anonymous": false,
      "inputs": [
        {
          "indexed": true,
          "internalType": "address",
          "name": "betAddress",
          "type": "address"
        },
        {
          "indexed": false,
          "internalType": "string",
          "name": "team1",
          "type": "string"
        },
        {
          "indexed": false,
          "internalType": "string",
          "name": "team2",
          "type": "string"
        },
        {
          "indexed": false,
          "internalType": "uint256",
          "name": "matchDate",
          "type": "uint256"
        },
        {
          "indexed": false,
          "internalType": "string",
          "name": "owner",
          "type": "string"
        }
      ],
      "name": "BetCreated",
      "type": "event"
    },
    {
      "inputs": [
        {
          "internalType": "uint256",
          "name": "",
          "type": "uint256"
        }
      ],
      "name": "bets",
      "outputs": [
        {
          "internalType": "address",
          "name": "",
          "type": "address"
        }
      ],
      "stateMutability": "view",
      "type": "function"
    },
    {
      "inputs": [
        {
          "internalType": "uint256",
          "name": "_platformFeePercent",
          "type": "uint256"
        },
        {
          "internalType": "string",
          "name": "_team1",
          "type": "string"
        },
        {
          "internalType": "string",
          "name": "_team2",
          "type": "string"
        },
        {
          "internalType": "uint256",
          "name": "_matchDate",
          "type": "uint256"
        },
        {
          "internalType": "string",
          "name": "_owner",
          "type": "string"
        }
      ],
      "name": "createBet",
      "outputs": [],
      "stateMutability": "nonpayable",
      "type": "function"
    },
    {
      "inputs": [],
      "name": "getBets",
      "outputs": [
        {
          "internalType": "address[]",
          "name": "",
          "type": "address[]"
        }
      ],
      "stateMutability": "view",
      "type": "function"
    }
  ],
  "bytecode": "0x6080604052348015600f57600080fd5b506138748061001f6000396000f3fe608060405234801561001057600080fd5b50600436106100415760003560e01c806322af00fa146100465780636b9c2cd614610076578063a6afd5fd14610092575b600080fd5b610060600480360381019061005b91906102d3565b6100b0565b60405161006d9190610341565b60405180910390f35b610090600480360381019061008b91906104a2565b6100ef565b005b61009a6101ee565b6040516100a7919061062f565b60405180910390f35b600081815481106100c057600080fd5b906000526020600020016000915054906101000a900473ffffffffffffffffffffffffffffffffffffffff1681565b600085858585856040516101029061027c565b6101109594939291906106df565b604051809103906000f08015801561012c573d6000803e3d6000fd5b5090506000819080600181540180825580915050600190039060005260206000200160009091909190916101000a81548173ffffffffffffffffffffffffffffffffffffffff021916908373ffffffffffffffffffffffffffffffffffffffff1602179055508073ffffffffffffffffffffffffffffffffffffffff167f8dfdfb64ca5a9446f0fc615f7437091daf2edd1c3200c1754e23514c64426a51868686866040516101de9493929190610747565b60405180910390a2505050505050565b6060600080548060200260200160405190810160405280929190818152602001828054801561027257602002820191906000526020600020905b8160009054906101000a900473ffffffffffffffffffffffffffffffffffffffff1673ffffffffffffffffffffffffffffffffffffffff1681526020019060010190808311610228575b5050505050905090565b61309d806107a283390190565b6000604051905090565b600080fd5b600080fd5b6000819050919050565b6102b08161029d565b81146102bb57600080fd5b50565b6000813590506102cd816102a7565b92915050565b6000602082840312156102e9576102e8610293565b5b60006102f7848285016102be565b91505092915050565b600073ffffffffffffffffffffffffffffffffffffffff82169050919050565b600061032b82610300565b9050919050565b61033b81610320565b82525050565b60006020820190506103566000830184610332565b92915050565b600080fd5b600080fd5b6000601f19601f8301169050919050565b7f4e487b7100000000000000000000000000000000000000000000000000000000600052604160045260246000fd5b6103af82610366565b810181811067ffffffffffffffff821117156103ce576103cd610377565b5b80604052505050565b60006103e1610289565b90506103ed82826103a6565b919050565b600067ffffffffffffffff82111561040d5761040c610377565b5b61041682610366565b9050602081019050919050565b82818337600083830152505050565b6000610445610440846103f2565b6103d7565b90508281526020810184848401111561046157610460610361565b5b61046c848285610423565b509392505050565b600082601f8301126104895761048861035c565b5b8135610499848260208601610432565b91505092915050565b600080600080600060a086880312156104be576104bd610293565b5b60006104cc888289016102be565b955050602086013567ffffffffffffffff8111156104ed576104ec610298565b5b6104f988828901610474565b945050604086013567ffffffffffffffff81111561051a57610519610298565b5b61052688828901610474565b9350506060610537888289016102be565b925050608086013567ffffffffffffffff81111561055857610557610298565b5b61056488828901610474565b9150509295509295909350565b600081519050919050565b600082825260208201905092915050565b6000819050602082019050919050565b6105a681610320565b82525050565b60006105b8838361059d565b60208301905092915050565b6000602082019050919050565b60006105dc82610571565b6105e6818561057c565b93506105f18361058d565b8060005b8381101561062257815161060988826105ac565b9750610614836105c4565b9250506001810190506105f5565b5085935050505092915050565b6000602082019050818103600083015261064981846105d1565b905092915050565b61065a8161029d565b82525050565b600081519050919050565b600082825260208201905092915050565b60005b8381101561069a57808201518184015260208101905061067f565b60008484015250505050565b60006106b182610660565b6106bb818561066b565b93506106cb81856020860161067c565b6106d481610366565b840191505092915050565b600060a0820190506106f46000830188610651565b818103602083015261070681876106a6565b9050818103604083015261071a81866106a6565b90506107296060830185610651565b818103608083015261073b81846106a6565b90509695505050505050565b6000608082019050818103600083015261076181876106a6565b9050818103602083015261077581866106a6565b90506107846040830185610651565b818103606083015261079681846106a6565b90509594505050505056fe608060405234801561001057600080fd5b5060405161309d38038061309d833981810160405281019061003291906102d2565b6064851115610076576040517f08c379a000000000000000000000000000000000000000000000000000000000815260040161006d90610424565b60405180910390fd5b846009819055508360008001908161008e919061065b565b5082600060010190816100a1919061065b565b508160006002018190555060008060030160006101000a81548160ff02191690831515021790555080600060050190816100db919061065b565b5033600a60006101000a81548173ffffffffffffffffffffffffffffffffffffffff021916908373ffffffffffffffffffffffffffffffffffffffff160217905550505050505061072d565b6000604051905090565b600080fd5b600080fd5b6000819050919050565b61014e8161013b565b811461015957600080fd5b50565b60008151905061016b81610145565b92915050565b600080fd5b600080fd5b6000601f19601f8301169050919050565b7f4e487b7100000000000000000000000000000000000000000000000000000000600052604160045260246000fd5b6101c48261017b565b810181811067ffffffffffffffff821117156101e3576101e261018c565b5b80604052505050565b60006101f6610127565b905061020282826101bb565b919050565b600067ffffffffffffffff8211156102225761022161018c565b5b61022b8261017b565b9050602081019050919050565b60005b8381101561025657808201518184015260208101905061023b565b60008484015250505050565b600061027561027084610207565b6101ec565b90508281526020810184848401111561029157610290610176565b5b61029c848285610238565b509392505050565b600082601f8301126102b9576102b8610171565b5b81516102c9848260208601610262565b91505092915050565b600080600080600060a086880312156102ee576102ed610131565b5b60006102fc8882890161015c565b955050602086015167ffffffffffffffff81111561031d5761031c610136565b5b610329888289016102a4565b945050604086015167ffffffffffffffff81111561034a57610349610136565b5b610356888289016102a4565b93505060606103678882890161015c565b925050608086015167ffffffffffffffff81111561038857610387610136565b5b610394888289016102a4565b9150509295509295909350565b600082825260208201905092915050565b7f4665652070657263656e742063616e6e6f74206265206772656174657220746860008201527f616e203130300000000000000000000000000000000000000000000000000000602082015250565b600061040e6026836103a1565b9150610419826103b2565b604082019050919050565b6000602082019050818103600083015261043d81610401565b9050919050565b600081519050919050565b7f4e487b7100000000000000000000000000000000000000000000000000000000600052602260045260246000fd5b6000600282049050600182168061049657607f821691505b6020821081036104a9576104a861044f565b5b50919050565b60008190508160005260206000209050919050565b60006020601f8301049050919050565b600082821b905092915050565b6000600883026105117fffffffffffffffffffffffffffffffffffffffffffffffffffffffffffffffff826104d4565b61051b86836104d4565b95508019841693508086168417925050509392505050565b6000819050919050565b600061055861055361054e8461013b565b610533565b61013b565b9050919050565b6000819050919050565b6105728361053d565b61058661057e8261055f565b8484546104e1565b825550505050565b600090565b61059b61058e565b6105a6818484610569565b505050565b5b818110156105ca576105bf600082610593565b6001810190506105ac565b5050565b601f82111561060f576105e0816104af565b6105e9846104c4565b810160208510156105f8578190505b61060c610604856104c4565b8301826105ab565b50505b505050565b600082821c905092915050565b600061063260001984600802610614565b1980831691505092915050565b600061064b8383610621565b9150826002028217905092915050565b61066482610444565b67ffffffffffffffff81111561067d5761067c61018c565b5b610687825461047e565b6106928282856105ce565b600060209050601f8311600181146106c557600084156106b3578287015190505b6106bd858261063f565b865550610725565b601f1984166106d3866104af565b60005b828110156106fb578489015182556001820191506020850194506020810190506106d6565b868310156107185784890151610714601f891682610621565b8355505b6001600288020188555050505b505050505050565b6129618061073c6000396000f3fe60806040526004361061009c5760003560e01c806372e4d5071161006457806372e4d507146101a15780638c639a85146101ce5780638da5cb5b146101f957806397bfeb8814610224578063a3cb679d14610240578063d9229a3a1461026b5761009c565b80632c70444e146100a15780632eb190aa146100d257806332b19c65146100fd5780633482b644146101265780634a39ec9014610163575b600080fd5b3480156100ad57600080fd5b506100b661029b565b6040516100c99796959493929190611db0565b60405180910390f35b3480156100de57600080fd5b506100e76104f8565b6040516100f49190611e3b565b60405180910390f35b34801561010957600080fd5b50610124600480360381019061011f9190611f9f565b610511565b005b34801561013257600080fd5b5061014d60048036038101906101489190612014565b610dfd565b60405161015a9190612082565b60405180910390f35b34801561016f57600080fd5b5061018a600480360381019061018591906120c9565b610e3c565b604051610198929190612109565b60405180910390f35b3480156101ad57600080fd5b506101b6610f05565b6040516101c593929190612139565b60405180910390f35b3480156101da57600080fd5b506101e3611565565b6040516101f09190612170565b60405180910390f35b34801561020557600080fd5b5061020e61156b565b60405161021b9190612082565b60405180910390f35b61023e60048036038101906102399190611f9f565b611591565b005b34801561024c57600080fd5b50610255611a12565b6040516102629190612170565b60405180910390f35b34801561027757600080fd5b50610280611a1a565b6040516102929695949392919061218b565b60405180910390f35b60008060000180546102ac90612237565b80601f01602080910402602001604051908101604052809291908181526020018280546102d890612237565b80156103255780601f106102fa57610100808354040283529160200191610325565b820191906000526020600020905b81548152906001019060200180831161030857829003601f168201915b50505050509080600101805461033a90612237565b80601f016020809104026020016040519081016040528092919081815260200182805461036690612237565b80156103b35780601f10610388576101008083540402835291602001916103b3565b820191906000526020600020905b81548152906001019060200180831161039657829003601f168201915b5050505050908060020154908060030160009054906101000a900460ff16908060040180546103e190612237565b80601f016020809104026020016040519081016040528092919081815260200182805461040d90612237565b801561045a5780601f1061042f5761010080835404028352916020019161045a565b820191906000526020600020905b81548152906001019060200180831161043d57829003601f168201915b50505050509080600501805461046f90612237565b80601f016020809104026020016040519081016040528092919081815260200182805461049b90612237565b80156104e85780601f106104bd576101008083540402835291602001916104e8565b820191906000526020600020905b8154815290600101906020018083116104cb57829003601f168201915b5050505050908060060154905087565b60008060030160009054906101000a900460ff16905090565b600a60009054906101000a900473ffffffffffffffffffffffffffffffffffffffff1673ffffffffffffffffffffffffffffffffffffffff163373ffffffffffffffffffffffffffffffffffffffff16146105a1576040517f08c379a0000000000000000000000000000000000000000000000000000000008152600401610598906122da565b60405180910390fd5b600060030160009054906101000a900460ff16156105f4576040517f08c379a00000000000000000000000000000000000000000000000000000000081526004016105eb90612346565b60405180910390fd5b8061068b8160008001805461060890612237565b80601f016020809104026020016040519081016040528092919081815260200182805461063490612237565b80156106815780601f1061065657610100808354040283529160200191610681565b820191906000526020600020905b81548152906001019060200180831161066457829003601f168201915b5050505050611c93565b80610729575061072881600060010180546106a590612237565b80601f01602080910402602001604051908101604052809291908181526020018280546106d190612237565b801561071e5780601f106106f35761010080835404028352916020019161071e565b820191906000526020600020905b81548152906001019060200180831161070157829003601f168201915b5050505050611c93565b5b8061076f575061076e816040518060400160405280600481526020017f4472617700000000000000000000000000000000000000000000000000000000815250611c93565b5b6107ae576040517f08c379a00000000000000000000000000000000000000000000000000000000081526004016107a5906123b2565b60405180910390fd5b6001600060030160006101000a81548160ff02191690831515021790555081600060040190816107de919061257e565b50600047905060006064600954836107f6919061267f565b61080091906126f0565b9050600081836108109190612721565b9050600a60009054906101000a900473ffffffffffffffffffffffffffffffffffffffff1673ffffffffffffffffffffffffffffffffffffffff166108fc839081150290604051600060405180830381858888f1935050505015801561087a573d6000803e3d6000fd5b507f1e78db4c4ee9ca4946fb3ee60599d1e0258a8b22e183510241ff770ab6332baf826040516108aa9190612170565b60405180910390a16000805b600880549050811015610ad9576000600882815481106108d9576108d8612755565b5b9060005260206000200160009054906101000a900473ffffffffffffffffffffffffffffffffffffffff16905060005b600760008373ffffffffffffffffffffffffffffffffffffffff1673ffffffffffffffffffffffffffffffffffffffff16815260200190815260200160002080549050811015610aca57610a47600760008473ffffffffffffffffffffffffffffffffffffffff1673ffffffffffffffffffffffffffffffffffffffff16815260200190815260200160002082815481106109a7576109a6612755565b5b906000526020600020906002020160010180546109c390612237565b80601f01602080910402602001604051908101604052809291908181526020018280546109ef90612237565b8015610a3c5780601f10610a1157610100808354040283529160200191610a3c565b820191906000526020600020905b815481529060010190602001808311610a1f57829003601f168201915b50505050508a611c93565b15610abd57600760008373ffffffffffffffffffffffffffffffffffffffff1673ffffffffffffffffffffffffffffffffffffffff1681526020019081526020016000208181548110610a9d57610a9c612755565b5b90600052602060002090600202016000015484610aba9190612784565b93505b8080600101915050610909565b505080806001019150506108b6565b5060005b600880549050811015610dbd57600060088281548110610b0057610aff612755565b5b9060005260206000200160009054906101000a900473ffffffffffffffffffffffffffffffffffffffff1690506000805b600760008473ffffffffffffffffffffffffffffffffffffffff1673ffffffffffffffffffffffffffffffffffffffff16815260200190815260200160002080549050811015610d0e57610c6f600760008573ffffffffffffffffffffffffffffffffffffffff1673ffffffffffffffffffffffffffffffffffffffff1681526020019081526020016000208281548110610bcf57610bce612755565b5b90600052602060002090600202016001018054610beb90612237565b80601f0160208091040260200160405190810160405280929190818152602001828054610c1790612237565b8015610c645780601f10610c3957610100808354040283529160200191610c64565b820191906000526020600020905b815481529060010190602001808311610c4757829003601f168201915b50505050508b611c93565b15610d015760008587600760008773ffffffffffffffffffffffffffffffffffffffff1673ffffffffffffffffffffffffffffffffffffffff1681526020019081526020016000208481548110610cc957610cc8612755565b5b906000526020600020906002020160000154610ce5919061267f565b610cef91906126f0565b90508083610cfd9190612784565b9250505b8080600101915050610b31565b506000811115610dae578173ffffffffffffffffffffffffffffffffffffffff166108fc829081150290604051600060405180830381858888f19350505050158015610d5e573d6000803e3d6000fd5b508173ffffffffffffffffffffffffffffffffffffffff167fe34918ff1c7084970068b53fd71ad6d8b04e9f15d3886cbf006443e6cdc52ea682604051610da59190612170565b60405180910390a25b50508080600101915050610add565b507f3ea7a0e97590231292a074b5b57cd3b715bff76a55a6125d03dc864e55909ba986604051610ded91906127b8565b60405180910390a1505050505050565b60088181548110610e0d57600080fd5b906000526020600020016000915054906101000a900473ffffffffffffffffffffffffffffffffffffffff1681565b60076020528160005260406000208181548110610e5857600080fd5b906000526020600020906002020160009150915050806000015490806001018054610e8290612237565b80601f0160208091040260200160405190810160405280929190818152602001828054610eae90612237565b8015610efb5780601f10610ed057610100808354040283529160200191610efb565b820191906000526020600020905b815481529060010190602001808311610ede57829003601f168201915b5050505050905082565b600080600080600090505b60088054905081101561155f57600060088281548110610f3357610f32612755565b5b9060005260206000200160009054906101000a900473ffffffffffffffffffffffffffffffffffffffff16905060005b600760008373ffffffffffffffffffffffffffffffffffffffff1673ffffffffffffffffffffffffffffffffffffffff168152602001908152602001600020805490508110156115505761112d600760008473ffffffffffffffffffffffffffffffffffffffff1673ffffffffffffffffffffffffffffffffffffffff168152602001908152602001600020828154811061100157611000612755565b5b9060005260206000209060020201600101805461101d90612237565b80601f016020809104026020016040519081016040528092919081815260200182805461104990612237565b80156110965780601f1061106b57610100808354040283529160200191611096565b820191906000526020600020905b81548152906001019060200180831161107957829003601f168201915b50505050506000800180546110aa90612237565b80601f01602080910402602001604051908101604052809291908181526020018280546110d690612237565b80156111235780601f106110f857610100808354040283529160200191611123565b820191906000526020600020905b81548152906001019060200180831161110657829003601f168201915b5050505050611c93565b156111a757600760008373ffffffffffffffffffffffffffffffffffffffff1673ffffffffffffffffffffffffffffffffffffffff168152602001908152602001600020818154811061118357611182612755565b5b906000526020600020906002020160000154866111a09190612784565b9550611543565b611328600760008473ffffffffffffffffffffffffffffffffffffffff1673ffffffffffffffffffffffffffffffffffffffff16815260200190815260200160002082815481106111fb576111fa612755565b5b9060005260206000209060020201600101805461121790612237565b80601f016020809104026020016040519081016040528092919081815260200182805461124390612237565b80156112905780601f1061126557610100808354040283529160200191611290565b820191906000526020600020905b81548152906001019060200180831161127357829003601f168201915b5050505050600060010180546112a590612237565b80601f01602080910402602001604051908101604052809291908181526020018280546112d190612237565b801561131e5780601f106112f35761010080835404028352916020019161131e565b820191906000526020600020905b81548152906001019060200180831161130157829003601f168201915b5050505050611c93565b156113a257600760008373ffffffffffffffffffffffffffffffffffffffff1673ffffffffffffffffffffffffffffffffffffffff168152602001908152602001600020818154811061137e5761137d612755565b5b9060005260206000209060020201600001548561139b9190612784565b9450611542565b6114cb600760008473ffffffffffffffffffffffffffffffffffffffff1673ffffffffffffffffffffffffffffffffffffffff16815260200190815260200160002082815481106113f6576113f5612755565b5b9060005260206000209060020201600101805461141290612237565b80601f016020809104026020016040519081016040528092919081815260200182805461143e90612237565b801561148b5780601f106114605761010080835404028352916020019161148b565b820191906000526020600020905b81548152906001019060200180831161146e57829003601f168201915b50505050506040518060400160405280600481526020017f4472617700000000000000000000000000000000000000000000000000000000815250611c93565b1561154157600760008373ffffffffffffffffffffffffffffffffffffffff1673ffffffffffffffffffffffffffffffffffffffff168152602001908152602001600020818154811061152157611520612755565b5b9060005260206000209060020201600001548461153e9190612784565b93505b5b5b8080600101915050610f63565b50508080600101915050610f10565b50909192565b60095481565b600a60009054906101000a900473ffffffffffffffffffffffffffffffffffffffff1681565b600a60009054906101000a900473ffffffffffffffffffffffffffffffffffffffff1673ffffffffffffffffffffffffffffffffffffffff163373ffffffffffffffffffffffffffffffffffffffff1603611621576040517f08c379a0000000000000000000000000000000000000000000000000000000008152600401611618906122da565b60405180910390fd5b600060030160009054906101000a900460ff1615611674576040517f08c379a000000000000000000000000000000000000000000000000000000000815260040161166b90612346565b60405180910390fd5b600034116116b7576040517f08c379a00000000000000000000000000000000000000000000000000000000081526004016116ae9061284c565b60405180910390fd5b8061174e816000800180546116cb90612237565b80601f01602080910402602001604051908101604052809291908181526020018280546116f790612237565b80156117445780601f1061171957610100808354040283529160200191611744565b820191906000526020600020905b81548152906001019060200180831161172757829003601f168201915b5050505050611c93565b806117ec57506117eb816000600101805461176890612237565b80601f016020809104026020016040519081016040528092919081815260200182805461179490612237565b80156117e15780601f106117b6576101008083540402835291602001916117e1565b820191906000526020600020905b8154815290600101906020018083116117c457829003601f168201915b5050505050611c93565b5b806118325750611831816040518060400160405280600481526020017f4472617700000000000000000000000000000000000000000000000000000000815250611c93565b5b611871576040517f08c379a0000000000000000000000000000000000000000000000000000000008152600401611868906128b8565b60405180910390fd5b600760003373ffffffffffffffffffffffffffffffffffffffff1673ffffffffffffffffffffffffffffffffffffffff168152602001908152602001600020604051806040016040528034815260200184815250908060018154018082558091505060019003906000526020600020906002020160009091909190915060008201518160000155602082015181600101908161190d919061257e565b5050506001600760003373ffffffffffffffffffffffffffffffffffffffff1673ffffffffffffffffffffffffffffffffffffffff16815260200190815260200160002080549050036119be576008339080600181540180825580915050600190039060005260206000200160009091909190916101000a81548173ffffffffffffffffffffffffffffffffffffffff021916908373ffffffffffffffffffffffffffffffffffffffff1602179055505b3373ffffffffffffffffffffffffffffffffffffffff167ff14919ff92658c8b721faa944957b48dedaee13316a12a2635add911929e91703484604051611a06929190612109565b60405180910390a25050565b600047905090565b606080600080606080600080016000600101600060020154600060030160009054906101000a900460ff1660006004016000600501858054611a5b90612237565b80601f0160208091040260200160405190810160405280929190818152602001828054611a8790612237565b8015611ad45780601f10611aa957610100808354040283529160200191611ad4565b820191906000526020600020905b815481529060010190602001808311611ab757829003601f168201915b50505050509550848054611ae790612237565b80601f0160208091040260200160405190810160405280929190818152602001828054611b1390612237565b8015611b605780601f10611b3557610100808354040283529160200191611b60565b820191906000526020600020905b815481529060010190602001808311611b4357829003601f168201915b50505050509450818054611b7390612237565b80601f0160208091040260200160405190810160405280929190818152602001828054611b9f90612237565b8015611bec5780601f10611bc157610100808354040283529160200191611bec565b820191906000526020600020905b815481529060010190602001808311611bcf57829003601f168201915b50505050509150808054611bff90612237565b80601f0160208091040260200160405190810160405280929190818152602001828054611c2b90612237565b8015611c785780601f10611c4d57610100808354040283529160200191611c78565b820191906000526020600020905b815481529060010190602001808311611c5b57829003601f168201915b50505050509050955095509550955095509550909192939495565b600081604051602001611ca69190612914565b6040516020818303038152906040528051906020012083604051602001611ccd9190612914565b6040516020818303038152906040528051906020012014905092915050565b600081519050919050565b600082825260208201905092915050565b60005b83811015611d26578082015181840152602081019050611d0b565b60008484015250505050565b6000601f19601f8301169050919050565b6000611d4e82611cec565b611d588185611cf7565b9350611d68818560208601611d08565b611d7181611d32565b840191505092915050565b6000819050919050565b611d8f81611d7c565b82525050565b60008115159050919050565b611daa81611d95565b82525050565b600060e0820190508181036000830152611dca818a611d43565b90508181036020830152611dde8189611d43565b9050611ded6040830188611d86565b611dfa6060830187611da1565b8181036080830152611e0c8186611d43565b905081810360a0830152611e208185611d43565b9050611e2f60c0830184611d86565b98975050505050505050565b6000602082019050611e506000830184611da1565b92915050565b6000604051905090565b600080fd5b600080fd5b600080fd5b600080fd5b7f4e487b7100000000000000000000000000000000000000000000000000000000600052604160045260246000fd5b611eac82611d32565b810181811067ffffffffffffffff82111715611ecb57611eca611e74565b5b80604052505050565b6000611ede611e56565b9050611eea8282611ea3565b919050565b600067ffffffffffffffff821115611f0a57611f09611e74565b5b611f1382611d32565b9050602081019050919050565b82818337600083830152505050565b6000611f42611f3d84611eef565b611ed4565b905082815260208101848484011115611f5e57611f5d611e6f565b5b611f69848285611f20565b509392505050565b600082601f830112611f8657611f85611e6a565b5b8135611f96848260208601611f2f565b91505092915050565b600060208284031215611fb557611fb4611e60565b5b600082013567ffffffffffffffff811115611fd357611fd2611e65565b5b611fdf84828501611f71565b91505092915050565b611ff181611d7c565b8114611ffc57600080fd5b50565b60008135905061200e81611fe8565b92915050565b60006020828403121561202a57612029611e60565b5b600061203884828501611fff565b91505092915050565b600073ffffffffffffffffffffffffffffffffffffffff82169050919050565b600061206c82612041565b9050919050565b61207c81612061565b82525050565b60006020820190506120976000830184612073565b92915050565b6120a681612061565b81146120b157600080fd5b50565b6000813590506120c38161209d565b92915050565b600080604083850312156120e0576120df611e60565b5b60006120ee858286016120b4565b92505060206120ff85828601611fff565b9150509250929050565b600060408201905061211e6000830185611d86565b81810360208301526121308184611d43565b90509392505050565b600060608201905061214e6000830186611d86565b61215b6020830185611d86565b6121686040830184611d86565b949350505050565b60006020820190506121856000830184611d86565b92915050565b600060c08201905081810360008301526121a58189611d43565b905081810360208301526121b98188611d43565b90506121c86040830187611d86565b6121d56060830186611da1565b81810360808301526121e78185611d43565b905081810360a08301526121fb8184611d43565b9050979650505050505050565b7f4e487b7100000000000000000000000000000000000000000000000000000000600052602260045260246000fd5b6000600282049050600182168061224f57607f821691505b60208210810361226257612261612208565b5b50919050565b7f4f6e6c79206f776e65722063616e2063616c6c20746869732066756e6374696f60008201527f6e00000000000000000000000000000000000000000000000000000000000000602082015250565b60006122c4602183611cf7565b91506122cf82612268565b604082019050919050565b600060208201905081810360008301526122f3816122b7565b9050919050565b7f42657474696e6720697320636c6f736564000000000000000000000000000000600082015250565b6000612330601183611cf7565b915061233b826122fa565b602082019050919050565b6000602082019050818103600083015261235f81612323565b9050919050565b7f496e76616c696420726573756c74000000000000000000000000000000000000600082015250565b600061239c600e83611cf7565b91506123a782612366565b602082019050919050565b600060208201905081810360008301526123cb8161238f565b9050919050565b60008190508160005260206000209050919050565b60006020601f8301049050919050565b600082821b905092915050565b6000600883026124347fffffffffffffffffffffffffffffffffffffffffffffffffffffffffffffffff826123f7565b61243e86836123f7565b95508019841693508086168417925050509392505050565b6000819050919050565b600061247b61247661247184611d7c565b612456565b611d7c565b9050919050565b6000819050919050565b61249583612460565b6124a96124a182612482565b848454612404565b825550505050565b600090565b6124be6124b1565b6124c981848461248c565b505050565b5b818110156124ed576124e26000826124b6565b6001810190506124cf565b5050565b601f82111561253257612503816123d2565b61250c846123e7565b8101602085101561251b578190505b61252f612527856123e7565b8301826124ce565b50505b505050565b600082821c905092915050565b600061255560001984600802612537565b1980831691505092915050565b600061256e8383612544565b9150826002028217905092915050565b61258782611cec565b67ffffffffffffffff8111156125a05761259f611e74565b5b6125aa8254612237565b6125b58282856124f1565b600060209050601f8311600181146125e857600084156125d6578287015190505b6125e08582612562565b865550612648565b601f1984166125f6866123d2565b60005b8281101561261e578489015182556001820191506020850194506020810190506125f9565b8683101561263b5784890151612637601f891682612544565b8355505b6001600288020188555050505b505050505050565b7f4e487b7100000000000000000000000000000000000000000000000000000000600052601160045260246000fd5b600061268a82611d7c565b915061269583611d7c565b92508282026126a381611d7c565b915082820484148315176126ba576126b9612650565b5b5092915050565b7f4e487b7100000000000000000000000000000000000000000000000000000000600052601260045260246000fd5b60006126fb82611d7c565b915061270683611d7c565b925082612716576127156126c1565b5b828204905092915050565b600061272c82611d7c565b915061273783611d7c565b925082820390508181111561274f5761274e612650565b5b92915050565b7f4e487b7100000000000000000000000000000000000000000000000000000000600052603260045260246000fd5b600061278f82611d7c565b915061279a83611d7c565b92508282019050808211156127b2576127b1612650565b5b92915050565b600060208201905081810360008301526127d28184611d43565b905092915050565b7f42657420616d6f756e74206d7573742062652067726561746572207468616e2060008201527f3000000000000000000000000000000000000000000000000000000000000000602082015250565b6000612836602183611cf7565b9150612841826127da565b604082019050919050565b6000602082019050818103600083015261286581612829565b9050919050565b7f496e76616c69642063686f696365000000000000000000000000000000000000600082015250565b60006128a2600e83611cf7565b91506128ad8261286c565b602082019050919050565b600060208201905081810360008301526128d181612895565b9050919050565b600081905092915050565b60006128ee82611cec565b6128f881856128d8565b9350612908818560208601611d08565b80840191505092915050565b600061292082846128e3565b91508190509291505056fea26469706673582212207a2f43f45f8cdfea555846361f275ab357c0f39a541ca18e73e86c6e496b25e864736f6c634300081c0033a2646970667358221220e9716501e84a0bf2ee141af3fc6d219502c1ddb5a0861a25b1676df330b5b3b164736f6c634300081c0033",
  "linkReferences": {},
  "deployedLinkReferences": {}
}