{
  "_format": "hh-sol-artifact-1",
  "contractName": "BetFactory",
  "sourceName": "contracts/BetFactory.sol",
  "abi": [
    {
      "anonymous": false,
      "inputs": [
        {
          "indexed": true,
          "internalType": "address",
          "name": "betAddress",
          "type": "address"
        },
        {
          "indexed": false,
          "internalType": "string",
          "name": "team1",
          "type": "string"
        },
        {
          "indexed": false,
          "internalType": "string",
          "name": "team2",
          "type": "string"
        },
        {
          "indexed": false,
          "internalType": "uint256",
          "name": "matchDate",
          "type": "uint256"
        },
        {
          "indexed": false,
          "internalType": "string",
          "name": "owner",
          "type": "string"
        }
      ],
      "name": "BetCreated",
      "type": "event"
    },
    {
      "inputs": [
        {
          "internalType": "uint256",
          "name": "",
          "type": "uint256"
        }
      ],
      "name": "bets",
      "outputs": [
        {
          "internalType": "address",
          "name": "",
          "type": "address"
        }
      ],
      "stateMutability": "view",
      "type": "function"
    },
    {
      "inputs": [
        {
          "internalType": "uint256",
          "name": "_platformFeePercent",
          "type": "uint256"
        },
        {
          "internalType": "string",
          "name": "_team1",
          "type": "string"
        },
        {
          "internalType": "string",
          "name": "_team2",
          "type": "string"
        },
        {
          "internalType": "uint256",
          "name": "_matchDate",
          "type": "uint256"
        },
        {
          "internalType": "string",
          "name": "_owner",
          "type": "string"
        }
      ],
      "name": "createBet",
      "outputs": [],
      "stateMutability": "nonpayable",
      "type": "function"
    },
    {
      "inputs": [],
      "name": "getBets",
      "outputs": [
        {
          "internalType": "address[]",
          "name": "",
          "type": "address[]"
        }
      ],
      "stateMutability": "view",
      "type": "function"
    }
  ],
  "bytecode": "0x6080604052348015600f57600080fd5b506137e28061001f6000396000f3fe608060405234801561001057600080fd5b50600436106100415760003560e01c806322af00fa146100465780636b9c2cd614610076578063a6afd5fd14610092575b600080fd5b610060600480360381019061005b91906102d3565b6100b0565b60405161006d9190610341565b60405180910390f35b610090600480360381019061008b91906104a2565b6100ef565b005b61009a6101ee565b6040516100a7919061062f565b60405180910390f35b600081815481106100c057600080fd5b906000526020600020016000915054906101000a900473ffffffffffffffffffffffffffffffffffffffff1681565b600085858585856040516101029061027c565b6101109594939291906106df565b604051809103906000f08015801561012c573d6000803e3d6000fd5b5090506000819080600181540180825580915050600190039060005260206000200160009091909190916101000a81548173ffffffffffffffffffffffffffffffffffffffff021916908373ffffffffffffffffffffffffffffffffffffffff1602179055508073ffffffffffffffffffffffffffffffffffffffff167f8dfdfb64ca5a9446f0fc615f7437091daf2edd1c3200c1754e23514c64426a51868686866040516101de9493929190610747565b60405180910390a2505050505050565b6060600080548060200260200160405190810160405280929190818152602001828054801561027257602002820191906000526020600020905b8160009054906101000a900473ffffffffffffffffffffffffffffffffffffffff1673ffffffffffffffffffffffffffffffffffffffff1681526020019060010190808311610228575b5050505050905090565b61300b806107a283390190565b6000604051905090565b600080fd5b600080fd5b6000819050919050565b6102b08161029d565b81146102bb57600080fd5b50565b6000813590506102cd816102a7565b92915050565b6000602082840312156102e9576102e8610293565b5b60006102f7848285016102be565b91505092915050565b600073ffffffffffffffffffffffffffffffffffffffff82169050919050565b600061032b82610300565b9050919050565b61033b81610320565b82525050565b60006020820190506103566000830184610332565b92915050565b600080fd5b600080fd5b6000601f19601f8301169050919050565b7f4e487b7100000000000000000000000000000000000000000000000000000000600052604160045260246000fd5b6103af82610366565b810181811067ffffffffffffffff821117156103ce576103cd610377565b5b80604052505050565b60006103e1610289565b90506103ed82826103a6565b919050565b600067ffffffffffffffff82111561040d5761040c610377565b5b61041682610366565b9050602081019050919050565b82818337600083830152505050565b6000610445610440846103f2565b6103d7565b90508281526020810184848401111561046157610460610361565b5b61046c848285610423565b509392505050565b600082601f8301126104895761048861035c565b5b8135610499848260208601610432565b91505092915050565b600080600080600060a086880312156104be576104bd610293565b5b60006104cc888289016102be565b955050602086013567ffffffffffffffff8111156104ed576104ec610298565b5b6104f988828901610474565b945050604086013567ffffffffffffffff81111561051a57610519610298565b5b61052688828901610474565b9350506060610537888289016102be565b925050608086013567ffffffffffffffff81111561055857610557610298565b5b61056488828901610474565b9150509295509295909350565b600081519050919050565b600082825260208201905092915050565b6000819050602082019050919050565b6105a681610320565b82525050565b60006105b8838361059d565b60208301905092915050565b6000602082019050919050565b60006105dc82610571565b6105e6818561057c565b93506105f18361058d565b8060005b8381101561062257815161060988826105ac565b9750610614836105c4565b9250506001810190506105f5565b5085935050505092915050565b6000602082019050818103600083015261064981846105d1565b905092915050565b61065a8161029d565b82525050565b600081519050919050565b600082825260208201905092915050565b60005b8381101561069a57808201518184015260208101905061067f565b60008484015250505050565b60006106b182610660565b6106bb818561066b565b93506106cb81856020860161067c565b6106d481610366565b840191505092915050565b600060a0820190506106f46000830188610651565b818103602083015261070681876106a6565b9050818103604083015261071a81866106a6565b90506107296060830185610651565b818103608083015261073b81846106a6565b90509695505050505050565b6000608082019050818103600083015261076181876106a6565b9050818103602083015261077581866106a6565b90506107846040830185610651565b818103606083015261079681846106a6565b90509594505050505056fe608060405234801561001057600080fd5b5060405161300b38038061300b833981810160405281019061003291906102d2565b6064851115610076576040517f08c379a000000000000000000000000000000000000000000000000000000000815260040161006d90610424565b60405180910390fd5b846008819055508360008001908161008e919061065b565b5082600060010190816100a1919061065b565b508160006002018190555060008060030160006101000a81548160ff02191690831515021790555080600060050190816100db919061065b565b5033600960006101000a81548173ffffffffffffffffffffffffffffffffffffffff021916908373ffffffffffffffffffffffffffffffffffffffff160217905550505050505061072d565b6000604051905090565b600080fd5b600080fd5b6000819050919050565b61014e8161013b565b811461015957600080fd5b50565b60008151905061016b81610145565b92915050565b600080fd5b600080fd5b6000601f19601f8301169050919050565b7f4e487b7100000000000000000000000000000000000000000000000000000000600052604160045260246000fd5b6101c48261017b565b810181811067ffffffffffffffff821117156101e3576101e261018c565b5b80604052505050565b60006101f6610127565b905061020282826101bb565b919050565b600067ffffffffffffffff8211156102225761022161018c565b5b61022b8261017b565b9050602081019050919050565b60005b8381101561025657808201518184015260208101905061023b565b60008484015250505050565b600061027561027084610207565b6101ec565b90508281526020810184848401111561029157610290610176565b5b61029c848285610238565b509392505050565b600082601f8301126102b9576102b8610171565b5b81516102c9848260208601610262565b91505092915050565b600080600080600060a086880312156102ee576102ed610131565b5b60006102fc8882890161015c565b955050602086015167ffffffffffffffff81111561031d5761031c610136565b5b610329888289016102a4565b945050604086015167ffffffffffffffff81111561034a57610349610136565b5b610356888289016102a4565b93505060606103678882890161015c565b925050608086015167ffffffffffffffff81111561038857610387610136565b5b610394888289016102a4565b9150509295509295909350565b600082825260208201905092915050565b7f4665652070657263656e742063616e6e6f74206265206772656174657220746860008201527f616e203130300000000000000000000000000000000000000000000000000000602082015250565b600061040e6026836103a1565b9150610419826103b2565b604082019050919050565b6000602082019050818103600083015261043d81610401565b9050919050565b600081519050919050565b7f4e487b7100000000000000000000000000000000000000000000000000000000600052602260045260246000fd5b6000600282049050600182168061049657607f821691505b6020821081036104a9576104a861044f565b5b50919050565b60008190508160005260206000209050919050565b60006020601f8301049050919050565b600082821b905092915050565b6000600883026105117fffffffffffffffffffffffffffffffffffffffffffffffffffffffffffffffff826104d4565b61051b86836104d4565b95508019841693508086168417925050509392505050565b6000819050919050565b600061055861055361054e8461013b565b610533565b61013b565b9050919050565b6000819050919050565b6105728361053d565b61058661057e8261055f565b8484546104e1565b825550505050565b600090565b61059b61058e565b6105a6818484610569565b505050565b5b818110156105ca576105bf600082610593565b6001810190506105ac565b5050565b601f82111561060f576105e0816104af565b6105e9846104c4565b810160208510156105f8578190505b61060c610604856104c4565b8301826105ab565b50505b505050565b600082821c905092915050565b600061063260001984600802610614565b1980831691505092915050565b600061064b8383610621565b9150826002028217905092915050565b61066482610444565b67ffffffffffffffff81111561067d5761067c61018c565b5b610687825461047e565b6106928282856105ce565b600060209050601f8311600181146106c557600084156106b3578287015190505b6106bd858261063f565b865550610725565b601f1984166106d3866104af565b60005b828110156106fb578489015182556001820191506020850194506020810190506106d6565b868310156107185784890151610714601f891682610621565b8355505b6001600288020188555050505b505050505050565b6128cf8061073c6000396000f3fe60806040526004361061009c5760003560e01c806372e4d5071161006457806372e4d507146101a05780638c639a85146101cd5780638da5cb5b146101f857806397bfeb8814610223578063a3cb679d1461023f578063d9229a3a1461026a5761009c565b80632c70444e146100a15780632eb190aa146100d157806332b19c65146100fc5780633482b644146101255780634a39ec9014610162575b600080fd5b3480156100ad57600080fd5b506100b661029a565b6040516100c896959493929190611da9565b60405180910390f35b3480156100dd57600080fd5b506100e66104f1565b6040516100f39190611e26565b60405180910390f35b34801561010857600080fd5b50610123600480360381019061011e9190611f8a565b61050a565b005b34801561013157600080fd5b5061014c60048036038101906101479190611fff565b610df6565b604051610159919061206d565b60405180910390f35b34801561016e57600080fd5b50610189600480360381019061018491906120b4565b610e35565b6040516101979291906120f4565b60405180910390f35b3480156101ac57600080fd5b506101b5610efe565b6040516101c493929190612124565b60405180910390f35b3480156101d957600080fd5b506101e261155e565b6040516101ef919061215b565b60405180910390f35b34801561020457600080fd5b5061020d611564565b60405161021a919061206d565b60405180910390f35b61023d60048036038101906102389190611f8a565b61158a565b005b34801561024b57600080fd5b50610254611a0b565b604051610261919061215b565b60405180910390f35b34801561027657600080fd5b5061027f611a13565b60405161029196959493929190611da9565b60405180910390f35b60008060000180546102ab906121a5565b80601f01602080910402602001604051908101604052809291908181526020018280546102d7906121a5565b80156103245780601f106102f957610100808354040283529160200191610324565b820191906000526020600020905b81548152906001019060200180831161030757829003601f168201915b505050505090806001018054610339906121a5565b80601f0160208091040260200160405190810160405280929190818152602001828054610365906121a5565b80156103b25780601f10610387576101008083540402835291602001916103b2565b820191906000526020600020905b81548152906001019060200180831161039557829003601f168201915b5050505050908060020154908060030160009054906101000a900460ff16908060040180546103e0906121a5565b80601f016020809104026020016040519081016040528092919081815260200182805461040c906121a5565b80156104595780601f1061042e57610100808354040283529160200191610459565b820191906000526020600020905b81548152906001019060200180831161043c57829003601f168201915b50505050509080600501805461046e906121a5565b80601f016020809104026020016040519081016040528092919081815260200182805461049a906121a5565b80156104e75780601f106104bc576101008083540402835291602001916104e7565b820191906000526020600020905b8154815290600101906020018083116104ca57829003601f168201915b5050505050905086565b60008060030160009054906101000a900460ff16905090565b600960009054906101000a900473ffffffffffffffffffffffffffffffffffffffff1673ffffffffffffffffffffffffffffffffffffffff163373ffffffffffffffffffffffffffffffffffffffff161461059a576040517f08c379a000000000000000000000000000000000000000000000000000000000815260040161059190612248565b60405180910390fd5b600060030160009054906101000a900460ff16156105ed576040517f08c379a00000000000000000000000000000000000000000000000000000000081526004016105e4906122b4565b60405180910390fd5b8061068481600080018054610601906121a5565b80601f016020809104026020016040519081016040528092919081815260200182805461062d906121a5565b801561067a5780601f1061064f5761010080835404028352916020019161067a565b820191906000526020600020905b81548152906001019060200180831161065d57829003601f168201915b5050505050611c8c565b806107225750610721816000600101805461069e906121a5565b80601f01602080910402602001604051908101604052809291908181526020018280546106ca906121a5565b80156107175780601f106106ec57610100808354040283529160200191610717565b820191906000526020600020905b8154815290600101906020018083116106fa57829003601f168201915b5050505050611c8c565b5b806107685750610767816040518060400160405280600481526020017f4472617700000000000000000000000000000000000000000000000000000000815250611c8c565b5b6107a7576040517f08c379a000000000000000000000000000000000000000000000000000000000815260040161079e90612320565b60405180910390fd5b6001600060030160006101000a81548160ff02191690831515021790555081600060040190816107d791906124ec565b50600047905060006064600854836107ef91906125ed565b6107f9919061265e565b905060008183610809919061268f565b9050600960009054906101000a900473ffffffffffffffffffffffffffffffffffffffff1673ffffffffffffffffffffffffffffffffffffffff166108fc839081150290604051600060405180830381858888f19350505050158015610873573d6000803e3d6000fd5b507f1e78db4c4ee9ca4946fb3ee60599d1e0258a8b22e183510241ff770ab6332baf826040516108a3919061215b565b60405180910390a16000805b600780549050811015610ad2576000600782815481106108d2576108d16126c3565b5b9060005260206000200160009054906101000a900473ffffffffffffffffffffffffffffffffffffffff16905060005b600660008373ffffffffffffffffffffffffffffffffffffffff1673ffffffffffffffffffffffffffffffffffffffff16815260200190815260200160002080549050811015610ac357610a40600660008473ffffffffffffffffffffffffffffffffffffffff1673ffffffffffffffffffffffffffffffffffffffff16815260200190815260200160002082815481106109a05761099f6126c3565b5b906000526020600020906002020160010180546109bc906121a5565b80601f01602080910402602001604051908101604052809291908181526020018280546109e8906121a5565b8015610a355780601f10610a0a57610100808354040283529160200191610a35565b820191906000526020600020905b815481529060010190602001808311610a1857829003601f168201915b50505050508a611c8c565b15610ab657600660008373ffffffffffffffffffffffffffffffffffffffff1673ffffffffffffffffffffffffffffffffffffffff1681526020019081526020016000208181548110610a9657610a956126c3565b5b90600052602060002090600202016000015484610ab391906126f2565b93505b8080600101915050610902565b505080806001019150506108af565b5060005b600780549050811015610db657600060078281548110610af957610af86126c3565b5b9060005260206000200160009054906101000a900473ffffffffffffffffffffffffffffffffffffffff1690506000805b600660008473ffffffffffffffffffffffffffffffffffffffff1673ffffffffffffffffffffffffffffffffffffffff16815260200190815260200160002080549050811015610d0757610c68600660008573ffffffffffffffffffffffffffffffffffffffff1673ffffffffffffffffffffffffffffffffffffffff1681526020019081526020016000208281548110610bc857610bc76126c3565b5b90600052602060002090600202016001018054610be4906121a5565b80601f0160208091040260200160405190810160405280929190818152602001828054610c10906121a5565b8015610c5d5780601f10610c3257610100808354040283529160200191610c5d565b820191906000526020600020905b815481529060010190602001808311610c4057829003601f168201915b50505050508b611c8c565b15610cfa5760008587600660008773ffffffffffffffffffffffffffffffffffffffff1673ffffffffffffffffffffffffffffffffffffffff1681526020019081526020016000208481548110610cc257610cc16126c3565b5b906000526020600020906002020160000154610cde91906125ed565b610ce8919061265e565b90508083610cf691906126f2565b9250505b8080600101915050610b2a565b506000811115610da7578173ffffffffffffffffffffffffffffffffffffffff166108fc829081150290604051600060405180830381858888f19350505050158015610d57573d6000803e3d6000fd5b508173ffffffffffffffffffffffffffffffffffffffff167fe34918ff1c7084970068b53fd71ad6d8b04e9f15d3886cbf006443e6cdc52ea682604051610d9e919061215b565b60405180910390a25b50508080600101915050610ad6565b507f3ea7a0e97590231292a074b5b57cd3b715bff76a55a6125d03dc864e55909ba986604051610de69190612726565b60405180910390a1505050505050565b60078181548110610e0657600080fd5b906000526020600020016000915054906101000a900473ffffffffffffffffffffffffffffffffffffffff1681565b60066020528160005260406000208181548110610e5157600080fd5b906000526020600020906002020160009150915050806000015490806001018054610e7b906121a5565b80601f0160208091040260200160405190810160405280929190818152602001828054610ea7906121a5565b8015610ef45780601f10610ec957610100808354040283529160200191610ef4565b820191906000526020600020905b815481529060010190602001808311610ed757829003601f168201915b5050505050905082565b600080600080600090505b60078054905081101561155857600060078281548110610f2c57610f2b6126c3565b5b9060005260206000200160009054906101000a900473ffffffffffffffffffffffffffffffffffffffff16905060005b600660008373ffffffffffffffffffffffffffffffffffffffff1673ffffffffffffffffffffffffffffffffffffffff1681526020019081526020016000208054905081101561154957611126600660008473ffffffffffffffffffffffffffffffffffffffff1673ffffffffffffffffffffffffffffffffffffffff1681526020019081526020016000208281548110610ffa57610ff96126c3565b5b90600052602060002090600202016001018054611016906121a5565b80601f0160208091040260200160405190810160405280929190818152602001828054611042906121a5565b801561108f5780601f106110645761010080835404028352916020019161108f565b820191906000526020600020905b81548152906001019060200180831161107257829003601f168201915b50505050506000800180546110a3906121a5565b80601f01602080910402602001604051908101604052809291908181526020018280546110cf906121a5565b801561111c5780601f106110f15761010080835404028352916020019161111c565b820191906000526020600020905b8154815290600101906020018083116110ff57829003601f168201915b5050505050611c8c565b156111a057600660008373ffffffffffffffffffffffffffffffffffffffff1673ffffffffffffffffffffffffffffffffffffffff168152602001908152602001600020818154811061117c5761117b6126c3565b5b9060005260206000209060020201600001548661119991906126f2565b955061153c565b611321600660008473ffffffffffffffffffffffffffffffffffffffff1673ffffffffffffffffffffffffffffffffffffffff16815260200190815260200160002082815481106111f4576111f36126c3565b5b90600052602060002090600202016001018054611210906121a5565b80601f016020809104026020016040519081016040528092919081815260200182805461123c906121a5565b80156112895780601f1061125e57610100808354040283529160200191611289565b820191906000526020600020905b81548152906001019060200180831161126c57829003601f168201915b50505050506000600101805461129e906121a5565b80601f01602080910402602001604051908101604052809291908181526020018280546112ca906121a5565b80156113175780601f106112ec57610100808354040283529160200191611317565b820191906000526020600020905b8154815290600101906020018083116112fa57829003601f168201915b5050505050611c8c565b1561139b57600660008373ffffffffffffffffffffffffffffffffffffffff1673ffffffffffffffffffffffffffffffffffffffff1681526020019081526020016000208181548110611377576113766126c3565b5b9060005260206000209060020201600001548561139491906126f2565b945061153b565b6114c4600660008473ffffffffffffffffffffffffffffffffffffffff1673ffffffffffffffffffffffffffffffffffffffff16815260200190815260200160002082815481106113ef576113ee6126c3565b5b9060005260206000209060020201600101805461140b906121a5565b80601f0160208091040260200160405190810160405280929190818152602001828054611437906121a5565b80156114845780601f1061145957610100808354040283529160200191611484565b820191906000526020600020905b81548152906001019060200180831161146757829003601f168201915b50505050506040518060400160405280600481526020017f4472617700000000000000000000000000000000000000000000000000000000815250611c8c565b1561153a57600660008373ffffffffffffffffffffffffffffffffffffffff1673ffffffffffffffffffffffffffffffffffffffff168152602001908152602001600020818154811061151a576115196126c3565b5b9060005260206000209060020201600001548461153791906126f2565b93505b5b5b8080600101915050610f5c565b50508080600101915050610f09565b50909192565b60085481565b600960009054906101000a900473ffffffffffffffffffffffffffffffffffffffff1681565b600960009054906101000a900473ffffffffffffffffffffffffffffffffffffffff1673ffffffffffffffffffffffffffffffffffffffff163373ffffffffffffffffffffffffffffffffffffffff160361161a576040517f08c379a000000000000000000000000000000000000000000000000000000000815260040161161190612248565b60405180910390fd5b600060030160009054906101000a900460ff161561166d576040517f08c379a0000000000000000000000000000000000000000000000000000000008152600401611664906122b4565b60405180910390fd5b600034116116b0576040517f08c379a00000000000000000000000000000000000000000000000000000000081526004016116a7906127ba565b60405180910390fd5b80611747816000800180546116c4906121a5565b80601f01602080910402602001604051908101604052809291908181526020018280546116f0906121a5565b801561173d5780601f106117125761010080835404028352916020019161173d565b820191906000526020600020905b81548152906001019060200180831161172057829003601f168201915b5050505050611c8c565b806117e557506117e48160006001018054611761906121a5565b80601f016020809104026020016040519081016040528092919081815260200182805461178d906121a5565b80156117da5780601f106117af576101008083540402835291602001916117da565b820191906000526020600020905b8154815290600101906020018083116117bd57829003601f168201915b5050505050611c8c565b5b8061182b575061182a816040518060400160405280600481526020017f4472617700000000000000000000000000000000000000000000000000000000815250611c8c565b5b61186a576040517f08c379a000000000000000000000000000000000000000000000000000000000815260040161186190612826565b60405180910390fd5b600660003373ffffffffffffffffffffffffffffffffffffffff1673ffffffffffffffffffffffffffffffffffffffff168152602001908152602001600020604051806040016040528034815260200184815250908060018154018082558091505060019003906000526020600020906002020160009091909190915060008201518160000155602082015181600101908161190691906124ec565b5050506001600660003373ffffffffffffffffffffffffffffffffffffffff1673ffffffffffffffffffffffffffffffffffffffff16815260200190815260200160002080549050036119b7576007339080600181540180825580915050600190039060005260206000200160009091909190916101000a81548173ffffffffffffffffffffffffffffffffffffffff021916908373ffffffffffffffffffffffffffffffffffffffff1602179055505b3373ffffffffffffffffffffffffffffffffffffffff167ff14919ff92658c8b721faa944957b48dedaee13316a12a2635add911929e917034846040516119ff9291906120f4565b60405180910390a25050565b600047905090565b606080600080606080600080016000600101600060020154600060030160009054906101000a900460ff1660006004016000600501858054611a54906121a5565b80601f0160208091040260200160405190810160405280929190818152602001828054611a80906121a5565b8015611acd5780601f10611aa257610100808354040283529160200191611acd565b820191906000526020600020905b815481529060010190602001808311611ab057829003601f168201915b50505050509550848054611ae0906121a5565b80601f0160208091040260200160405190810160405280929190818152602001828054611b0c906121a5565b8015611b595780601f10611b2e57610100808354040283529160200191611b59565b820191906000526020600020905b815481529060010190602001808311611b3c57829003601f168201915b50505050509450818054611b6c906121a5565b80601f0160208091040260200160405190810160405280929190818152602001828054611b98906121a5565b8015611be55780601f10611bba57610100808354040283529160200191611be5565b820191906000526020600020905b815481529060010190602001808311611bc857829003601f168201915b50505050509150808054611bf8906121a5565b80601f0160208091040260200160405190810160405280929190818152602001828054611c24906121a5565b8015611c715780601f10611c4657610100808354040283529160200191611c71565b820191906000526020600020905b815481529060010190602001808311611c5457829003601f168201915b50505050509050955095509550955095509550909192939495565b600081604051602001611c9f9190612882565b6040516020818303038152906040528051906020012083604051602001611cc69190612882565b6040516020818303038152906040528051906020012014905092915050565b600081519050919050565b600082825260208201905092915050565b60005b83811015611d1f578082015181840152602081019050611d04565b60008484015250505050565b6000601f19601f8301169050919050565b6000611d4782611ce5565b611d518185611cf0565b9350611d61818560208601611d01565b611d6a81611d2b565b840191505092915050565b6000819050919050565b611d8881611d75565b82525050565b60008115159050919050565b611da381611d8e565b82525050565b600060c0820190508181036000830152611dc38189611d3c565b90508181036020830152611dd78188611d3c565b9050611de66040830187611d7f565b611df36060830186611d9a565b8181036080830152611e058185611d3c565b905081810360a0830152611e198184611d3c565b9050979650505050505050565b6000602082019050611e3b6000830184611d9a565b92915050565b6000604051905090565b600080fd5b600080fd5b600080fd5b600080fd5b7f4e487b7100000000000000000000000000000000000000000000000000000000600052604160045260246000fd5b611e9782611d2b565b810181811067ffffffffffffffff82111715611eb657611eb5611e5f565b5b80604052505050565b6000611ec9611e41565b9050611ed58282611e8e565b919050565b600067ffffffffffffffff821115611ef557611ef4611e5f565b5b611efe82611d2b565b9050602081019050919050565b82818337600083830152505050565b6000611f2d611f2884611eda565b611ebf565b905082815260208101848484011115611f4957611f48611e5a565b5b611f54848285611f0b565b509392505050565b600082601f830112611f7157611f70611e55565b5b8135611f81848260208601611f1a565b91505092915050565b600060208284031215611fa057611f9f611e4b565b5b600082013567ffffffffffffffff811115611fbe57611fbd611e50565b5b611fca84828501611f5c565b91505092915050565b611fdc81611d75565b8114611fe757600080fd5b50565b600081359050611ff981611fd3565b92915050565b60006020828403121561201557612014611e4b565b5b600061202384828501611fea565b91505092915050565b600073ffffffffffffffffffffffffffffffffffffffff82169050919050565b60006120578261202c565b9050919050565b6120678161204c565b82525050565b6000602082019050612082600083018461205e565b92915050565b6120918161204c565b811461209c57600080fd5b50565b6000813590506120ae81612088565b92915050565b600080604083850312156120cb576120ca611e4b565b5b60006120d98582860161209f565b92505060206120ea85828601611fea565b9150509250929050565b60006040820190506121096000830185611d7f565b818103602083015261211b8184611d3c565b90509392505050565b60006060820190506121396000830186611d7f565b6121466020830185611d7f565b6121536040830184611d7f565b949350505050565b60006020820190506121706000830184611d7f565b92915050565b7f4e487b7100000000000000000000000000000000000000000000000000000000600052602260045260246000fd5b600060028204905060018216806121bd57607f821691505b6020821081036121d0576121cf612176565b5b50919050565b7f4f6e6c79206f776e65722063616e2063616c6c20746869732066756e6374696f60008201527f6e00000000000000000000000000000000000000000000000000000000000000602082015250565b6000612232602183611cf0565b915061223d826121d6565b604082019050919050565b6000602082019050818103600083015261226181612225565b9050919050565b7f42657474696e6720697320636c6f736564000000000000000000000000000000600082015250565b600061229e601183611cf0565b91506122a982612268565b602082019050919050565b600060208201905081810360008301526122cd81612291565b9050919050565b7f496e76616c696420726573756c74000000000000000000000000000000000000600082015250565b600061230a600e83611cf0565b9150612315826122d4565b602082019050919050565b60006020820190508181036000830152612339816122fd565b9050919050565b60008190508160005260206000209050919050565b60006020601f8301049050919050565b600082821b905092915050565b6000600883026123a27fffffffffffffffffffffffffffffffffffffffffffffffffffffffffffffffff82612365565b6123ac8683612365565b95508019841693508086168417925050509392505050565b6000819050919050565b60006123e96123e46123df84611d75565b6123c4565b611d75565b9050919050565b6000819050919050565b612403836123ce565b61241761240f826123f0565b848454612372565b825550505050565b600090565b61242c61241f565b6124378184846123fa565b505050565b5b8181101561245b57612450600082612424565b60018101905061243d565b5050565b601f8211156124a05761247181612340565b61247a84612355565b81016020851015612489578190505b61249d61249585612355565b83018261243c565b50505b505050565b600082821c905092915050565b60006124c3600019846008026124a5565b1980831691505092915050565b60006124dc83836124b2565b9150826002028217905092915050565b6124f582611ce5565b67ffffffffffffffff81111561250e5761250d611e5f565b5b61251882546121a5565b61252382828561245f565b600060209050601f8311600181146125565760008415612544578287015190505b61254e85826124d0565b8655506125b6565b601f19841661256486612340565b60005b8281101561258c57848901518255600182019150602085019450602081019050612567565b868310156125a957848901516125a5601f8916826124b2565b8355505b6001600288020188555050505b505050505050565b7f4e487b7100000000000000000000000000000000000000000000000000000000600052601160045260246000fd5b60006125f882611d75565b915061260383611d75565b925082820261261181611d75565b91508282048414831517612628576126276125be565b5b5092915050565b7f4e487b7100000000000000000000000000000000000000000000000000000000600052601260045260246000fd5b600061266982611d75565b915061267483611d75565b9250826126845761268361262f565b5b828204905092915050565b600061269a82611d75565b91506126a583611d75565b92508282039050818111156126bd576126bc6125be565b5b92915050565b7f4e487b7100000000000000000000000000000000000000000000000000000000600052603260045260246000fd5b60006126fd82611d75565b915061270883611d75565b92508282019050808211156127205761271f6125be565b5b92915050565b600060208201905081810360008301526127408184611d3c565b905092915050565b7f42657420616d6f756e74206d7573742062652067726561746572207468616e2060008201527f3000000000000000000000000000000000000000000000000000000000000000602082015250565b60006127a4602183611cf0565b91506127af82612748565b604082019050919050565b600060208201905081810360008301526127d381612797565b9050919050565b7f496e76616c69642063686f696365000000000000000000000000000000000000600082015250565b6000612810600e83611cf0565b915061281b826127da565b602082019050919050565b6000602082019050818103600083015261283f81612803565b9050919050565b600081905092915050565b600061285c82611ce5565b6128668185612846565b9350612876818560208601611d01565b80840191505092915050565b600061288e8284612851565b91508190509291505056fea264697066735822122044af7b9193853234e42f4eb2a871092292642d47f80c5642febc851ad25a79e064736f6c634300081c0033a2646970667358221220e9feb7ff0f61bb6897fa8bb66d1c215f114ec6fb6f7ba3db4135b4a48453046564736f6c634300081c0033",
  "linkReferences": {},
  "deployedLinkReferences": {}
}